{
	"Contracts/Practise.sol": {
		"practise": {
			"abi": [
				{
					"inputs": [],
					"name": "integerVar",
					"outputs": [
						{
							"internalType": "int256",
							"name": "",
							"type": "int256"
						}
					],
					"stateMutability": "view",
					"type": "function"
				},
				{
					"inputs": [],
					"name": "myhome",
					"outputs": [
						{
							"internalType": "address",
							"name": "",
							"type": "address"
						}
					],
					"stateMutability": "view",
					"type": "function"
				},
				{
					"inputs": [],
					"name": "myname",
					"outputs": [
						{
							"internalType": "string",
							"name": "",
							"type": "string"
						}
					],
					"stateMutability": "view",
					"type": "function"
				},
				{
					"inputs": [],
					"name": "mynameinbytes",
					"outputs": [
						{
							"internalType": "bytes",
							"name": "",
							"type": "bytes"
						}
					],
					"stateMutability": "view",
					"type": "function"
				},
				{
					"inputs": [],
					"name": "status",
					"outputs": [
						{
							"internalType": "bool",
							"name": "",
							"type": "bool"
						}
					],
					"stateMutability": "view",
					"type": "function"
				},
				{
					"inputs": [],
					"name": "unsignedintegervar",
					"outputs": [
						{
							"internalType": "uint256",
							"name": "",
							"type": "uint256"
						}
					],
					"stateMutability": "view",
					"type": "function"
				}
			],
			"devdoc": {
				"kind": "dev",
				"methods": {},
				"version": 1
			},
			"evm": {
				"assembly": "    /* \"Contracts/Practise.sol\":58:344  contract practise{... */\n  mstore(0x40, 0x80)\n    /* \"Contracts/Practise.sol\":105:107  -4 */\n  0xfffffffffffffffffffffffffffffffffffffffffffffffffffffffffffffffc\n    /* \"Contracts/Practise.sol\":81:107  int public integerVar = -4 */\n  0x00\n  sstore\n    /* \"Contracts/Practise.sol\":146:147  4 */\n  0x04\n    /* \"Contracts/Practise.sol\":113:147  uint public unsignedintegervar = 4 */\n  0x01\n  sstore\n    /* \"Contracts/Practise.sol\":177:219  0x5B38Da6a701c568545dCfcB03FcB875f56beddC4 */\n  0x5b38da6a701c568545dcfcb03fcb875f56beddc4\n    /* \"Contracts/Practise.sol\":153:219  address public myhome = 0x5B38Da6a701c568545dCfcB03FcB875f56beddC4 */\n  0x02\n  exp(0x0100, 0x00)\n  dup2\n  sload\n  dup2\n  0xffffffffffffffffffffffffffffffffffffffff\n  mul\n  not\n  and\n  swap1\n  dup4\n  0xffffffffffffffffffffffffffffffffffffffff\n  and\n  mul\n  or\n  swap1\n  sstore\n  pop\n    /* \"Contracts/Practise.sol\":225:261  string public myname = \"Bala Brucks\" */\n  mload(0x40)\n  dup1\n  0x40\n  add\n  0x40\n  mstore\n  dup1\n  0x0b\n  dup2\n  mstore\n  0x20\n  add\n  0x42616c6120427275636b73000000000000000000000000000000000000000000\n  dup2\n  mstore\n  pop\n  0x03\n  swap1\n  dup2\n  tag_1\n  swap2\n  swap1\n  tag_2\n  jump\t// in\ntag_1:\n  pop\n    /* \"Contracts/Practise.sol\":267:309  bytes public mynameinbytes = \"Bala Brucks\" */\n  mload(0x40)\n  dup1\n  0x40\n  add\n  0x40\n  mstore\n  dup1\n  0x0b\n  dup2\n  mstore\n  0x20\n  add\n  0x42616c6120427275636b73000000000000000000000000000000000000000000\n  dup2\n  mstore\n  pop\n  0x04\n  swap1\n  dup2\n  tag_3\n  swap2\n  swap1\n  tag_4\n  jump\t// in\ntag_3:\n  pop\n    /* \"Contracts/Practise.sol\":336:341  false */\n  0x00\n    /* \"Contracts/Practise.sol\":315:341  bool public status = false */\n  0x05\n  exp(0x0100, 0x00)\n  dup2\n  sload\n  dup2\n  0xff\n  mul\n  not\n  and\n  swap1\n  dup4\n  iszero\n  iszero\n  mul\n  or\n  swap1\n  sstore\n  pop\n    /* \"Contracts/Practise.sol\":58:344  contract practise{... */\n  callvalue\n  dup1\n  iszero\n  tag_5\n  jumpi\n  0x00\n  dup1\n  revert\ntag_5:\n  pop\n  jump(tag_6)\n    /* \"#utility.yul\":7:106   */\ntag_7:\n    /* \"#utility.yul\":59:65   */\n  0x00\n    /* \"#utility.yul\":93:98   */\n  dup2\n    /* \"#utility.yul\":87:99   */\n  mload\n    /* \"#utility.yul\":77:99   */\n  swap1\n  pop\n    /* \"#utility.yul\":7:106   */\n  swap2\n  swap1\n  pop\n  jump\t// out\n    /* \"#utility.yul\":112:292   */\ntag_8:\n    /* \"#utility.yul\":160:237   */\n  0x4e487b7100000000000000000000000000000000000000000000000000000000\n    /* \"#utility.yul\":157:158   */\n  0x00\n    /* \"#utility.yul\":150:238   */\n  mstore\n    /* \"#utility.yul\":257:261   */\n  0x41\n    /* \"#utility.yul\":254:255   */\n  0x04\n    /* \"#utility.yul\":247:262   */\n  mstore\n    /* \"#utility.yul\":281:285   */\n  0x24\n    /* \"#utility.yul\":278:279   */\n  0x00\n    /* \"#utility.yul\":271:286   */\n  revert\n    /* \"#utility.yul\":298:478   */\ntag_9:\n    /* \"#utility.yul\":346:423   */\n  0x4e487b7100000000000000000000000000000000000000000000000000000000\n    /* \"#utility.yul\":343:344   */\n  0x00\n    /* \"#utility.yul\":336:424   */\n  mstore\n    /* \"#utility.yul\":443:447   */\n  0x22\n    /* \"#utility.yul\":440:441   */\n  0x04\n    /* \"#utility.yul\":433:448   */\n  mstore\n    /* \"#utility.yul\":467:471   */\n  0x24\n    /* \"#utility.yul\":464:465   */\n  0x00\n    /* \"#utility.yul\":457:472   */\n  revert\n    /* \"#utility.yul\":484:804   */\ntag_10:\n    /* \"#utility.yul\":528:534   */\n  0x00\n    /* \"#utility.yul\":565:566   */\n  0x02\n    /* \"#utility.yul\":559:563   */\n  dup3\n    /* \"#utility.yul\":555:567   */\n  div\n    /* \"#utility.yul\":545:567   */\n  swap1\n  pop\n    /* \"#utility.yul\":612:613   */\n  0x01\n    /* \"#utility.yul\":606:610   */\n  dup3\n    /* \"#utility.yul\":602:614   */\n  and\n    /* \"#utility.yul\":633:651   */\n  dup1\n    /* \"#utility.yul\":623:704   */\n  tag_34\n  jumpi\n    /* \"#utility.yul\":689:693   */\n  0x7f\n    /* \"#utility.yul\":681:687   */\n  dup3\n    /* \"#utility.yul\":677:694   */\n  and\n    /* \"#utility.yul\":667:694   */\n  swap2\n  pop\n    /* \"#utility.yul\":623:704   */\ntag_34:\n    /* \"#utility.yul\":751:753   */\n  0x20\n    /* \"#utility.yul\":743:749   */\n  dup3\n    /* \"#utility.yul\":740:754   */\n  lt\n    /* \"#utility.yul\":720:738   */\n  dup2\n    /* \"#utility.yul\":717:755   */\n  sub\n    /* \"#utility.yul\":714:798   */\n  tag_35\n  jumpi\n    /* \"#utility.yul\":770:788   */\n  tag_36\n  tag_9\n  jump\t// in\ntag_36:\n    /* \"#utility.yul\":714:798   */\ntag_35:\n    /* \"#utility.yul\":535:804   */\n  pop\n    /* \"#utility.yul\":484:804   */\n  swap2\n  swap1\n  pop\n  jump\t// out\n    /* \"#utility.yul\":810:951   */\ntag_11:\n    /* \"#utility.yul\":859:863   */\n  0x00\n    /* \"#utility.yul\":882:885   */\n  dup2\n    /* \"#utility.yul\":874:885   */\n  swap1\n  pop\n    /* \"#utility.yul\":905:908   */\n  dup2\n    /* \"#utility.yul\":902:903   */\n  0x00\n    /* \"#utility.yul\":895:909   */\n  mstore\n    /* \"#utility.yul\":939:943   */\n  0x20\n    /* \"#utility.yul\":936:937   */\n  0x00\n    /* \"#utility.yul\":926:944   */\n  keccak256\n    /* \"#utility.yul\":918:944   */\n  swap1\n  pop\n    /* \"#utility.yul\":810:951   */\n  swap2\n  swap1\n  pop\n  jump\t// out\n    /* \"#utility.yul\":957:1050   */\ntag_12:\n    /* \"#utility.yul\":994:1000   */\n  0x00\n    /* \"#utility.yul\":1041:1043   */\n  0x20\n    /* \"#utility.yul\":1036:1038   */\n  0x1f\n    /* \"#utility.yul\":1029:1034   */\n  dup4\n    /* \"#utility.yul\":1025:1039   */\n  add\n    /* \"#utility.yul\":1021:1044   */\n  div\n    /* \"#utility.yul\":1011:1044   */\n  swap1\n  pop\n    /* \"#utility.yul\":957:1050   */\n  swap2\n  swap1\n  pop\n  jump\t// out\n    /* \"#utility.yul\":1056:1163   */\ntag_13:\n    /* \"#utility.yul\":1100:1108   */\n  0x00\n    /* \"#utility.yul\":1150:1155   */\n  dup3\n    /* \"#utility.yul\":1144:1148   */\n  dup3\n    /* \"#utility.yul\":1140:1156   */\n  shl\n    /* \"#utility.yul\":1119:1156   */\n  swap1\n  pop\n    /* \"#utility.yul\":1056:1163   */\n  swap3\n  swap2\n  pop\n  pop\n  jump\t// out\n    /* \"#utility.yul\":1169:1562   */\ntag_14:\n    /* \"#utility.yul\":1238:1244   */\n  0x00\n    /* \"#utility.yul\":1288:1289   */\n  0x08\n    /* \"#utility.yul\":1276:1286   */\n  dup4\n    /* \"#utility.yul\":1272:1290   */\n  mul\n    /* \"#utility.yul\":1311:1408   */\n  tag_41\n    /* \"#utility.yul\":1341:1407   */\n  0xffffffffffffffffffffffffffffffffffffffffffffffffffffffffffffffff\n    /* \"#utility.yul\":1330:1339   */\n  dup3\n    /* \"#utility.yul\":1311:1408   */\n  tag_13\n  jump\t// in\ntag_41:\n    /* \"#utility.yul\":1429:1468   */\n  tag_42\n    /* \"#utility.yul\":1459:1467   */\n  dup7\n    /* \"#utility.yul\":1448:1457   */\n  dup4\n    /* \"#utility.yul\":1429:1468   */\n  tag_13\n  jump\t// in\ntag_42:\n    /* \"#utility.yul\":1417:1468   */\n  swap6\n  pop\n    /* \"#utility.yul\":1501:1505   */\n  dup1\n    /* \"#utility.yul\":1497:1506   */\n  not\n    /* \"#utility.yul\":1490:1495   */\n  dup5\n    /* \"#utility.yul\":1486:1507   */\n  and\n    /* \"#utility.yul\":1477:1507   */\n  swap4\n  pop\n    /* \"#utility.yul\":1550:1554   */\n  dup1\n    /* \"#utility.yul\":1540:1548   */\n  dup7\n    /* \"#utility.yul\":1536:1555   */\n  and\n    /* \"#utility.yul\":1529:1534   */\n  dup5\n    /* \"#utility.yul\":1526:1556   */\n  or\n    /* \"#utility.yul\":1516:1556   */\n  swap3\n  pop\n    /* \"#utility.yul\":1245:1562   */\n  pop\n  pop\n    /* \"#utility.yul\":1169:1562   */\n  swap4\n  swap3\n  pop\n  pop\n  pop\n  jump\t// out\n    /* \"#utility.yul\":1568:1645   */\ntag_15:\n    /* \"#utility.yul\":1605:1612   */\n  0x00\n    /* \"#utility.yul\":1634:1639   */\n  dup2\n    /* \"#utility.yul\":1623:1639   */\n  swap1\n  pop\n    /* \"#utility.yul\":1568:1645   */\n  swap2\n  swap1\n  pop\n  jump\t// out\n    /* \"#utility.yul\":1651:1711   */\ntag_16:\n    /* \"#utility.yul\":1679:1682   */\n  0x00\n    /* \"#utility.yul\":1700:1705   */\n  dup2\n    /* \"#utility.yul\":1693:1705   */\n  swap1\n  pop\n    /* \"#utility.yul\":1651:1711   */\n  swap2\n  swap1\n  pop\n  jump\t// out\n    /* \"#utility.yul\":1717:1859   */\ntag_17:\n    /* \"#utility.yul\":1767:1776   */\n  0x00\n    /* \"#utility.yul\":1800:1853   */\n  tag_46\n    /* \"#utility.yul\":1818:1852   */\n  tag_47\n    /* \"#utility.yul\":1827:1851   */\n  tag_48\n    /* \"#utility.yul\":1845:1850   */\n  dup5\n    /* \"#utility.yul\":1827:1851   */\n  tag_15\n  jump\t// in\ntag_48:\n    /* \"#utility.yul\":1818:1852   */\n  tag_16\n  jump\t// in\ntag_47:\n    /* \"#utility.yul\":1800:1853   */\n  tag_15\n  jump\t// in\ntag_46:\n    /* \"#utility.yul\":1787:1853   */\n  swap1\n  pop\n    /* \"#utility.yul\":1717:1859   */\n  swap2\n  swap1\n  pop\n  jump\t// out\n    /* \"#utility.yul\":1865:1940   */\ntag_18:\n    /* \"#utility.yul\":1908:1911   */\n  0x00\n    /* \"#utility.yul\":1929:1934   */\n  dup2\n    /* \"#utility.yul\":1922:1934   */\n  swap1\n  pop\n    /* \"#utility.yul\":1865:1940   */\n  swap2\n  swap1\n  pop\n  jump\t// out\n    /* \"#utility.yul\":1946:2215   */\ntag_19:\n    /* \"#utility.yul\":2056:2095   */\n  tag_51\n    /* \"#utility.yul\":2087:2094   */\n  dup4\n    /* \"#utility.yul\":2056:2095   */\n  tag_17\n  jump\t// in\ntag_51:\n    /* \"#utility.yul\":2117:2208   */\n  tag_52\n    /* \"#utility.yul\":2166:2207   */\n  tag_53\n    /* \"#utility.yul\":2190:2206   */\n  dup3\n    /* \"#utility.yul\":2166:2207   */\n  tag_18\n  jump\t// in\ntag_53:\n    /* \"#utility.yul\":2158:2164   */\n  dup5\n    /* \"#utility.yul\":2151:2155   */\n  dup5\n    /* \"#utility.yul\":2145:2156   */\n  sload\n    /* \"#utility.yul\":2117:2208   */\n  tag_14\n  jump\t// in\ntag_52:\n    /* \"#utility.yul\":2111:2115   */\n  dup3\n    /* \"#utility.yul\":2104:2209   */\n  sstore\n    /* \"#utility.yul\":2022:2215   */\n  pop\n    /* \"#utility.yul\":1946:2215   */\n  pop\n  pop\n  pop\n  jump\t// out\n    /* \"#utility.yul\":2221:2294   */\ntag_20:\n    /* \"#utility.yul\":2266:2269   */\n  0x00\n    /* \"#utility.yul\":2221:2294   */\n  swap1\n  jump\t// out\n    /* \"#utility.yul\":2300:2489   */\ntag_21:\n    /* \"#utility.yul\":2377:2409   */\n  tag_56\n  tag_20\n  jump\t// in\ntag_56:\n    /* \"#utility.yul\":2418:2483   */\n  tag_57\n    /* \"#utility.yul\":2476:2482   */\n  dup2\n    /* \"#utility.yul\":2468:2474   */\n  dup5\n    /* \"#utility.yul\":2462:2466   */\n  dup5\n    /* \"#utility.yul\":2418:2483   */\n  tag_19\n  jump\t// in\ntag_57:\n    /* \"#utility.yul\":2353:2489   */\n  pop\n    /* \"#utility.yul\":2300:2489   */\n  pop\n  pop\n  jump\t// out\n    /* \"#utility.yul\":2495:2681   */\ntag_22:\n    /* \"#utility.yul\":2555:2675   */\ntag_59:\n    /* \"#utility.yul\":2572:2575   */\n  dup2\n    /* \"#utility.yul\":2565:2570   */\n  dup2\n    /* \"#utility.yul\":2562:2576   */\n  lt\n    /* \"#utility.yul\":2555:2675   */\n  iszero\n  tag_61\n  jumpi\n    /* \"#utility.yul\":2626:2665   */\n  tag_62\n    /* \"#utility.yul\":2663:2664   */\n  0x00\n    /* \"#utility.yul\":2656:2661   */\n  dup3\n    /* \"#utility.yul\":2626:2665   */\n  tag_21\n  jump\t// in\ntag_62:\n    /* \"#utility.yul\":2599:2600   */\n  0x01\n    /* \"#utility.yul\":2592:2597   */\n  dup2\n    /* \"#utility.yul\":2588:2601   */\n  add\n    /* \"#utility.yul\":2579:2601   */\n  swap1\n  pop\n    /* \"#utility.yul\":2555:2675   */\n  jump(tag_59)\ntag_61:\n    /* \"#utility.yul\":2495:2681   */\n  pop\n  pop\n  jump\t// out\n    /* \"#utility.yul\":2687:3230   */\ntag_23:\n    /* \"#utility.yul\":2788:2790   */\n  0x1f\n    /* \"#utility.yul\":2783:2786   */\n  dup3\n    /* \"#utility.yul\":2780:2791   */\n  gt\n    /* \"#utility.yul\":2777:3223   */\n  iszero\n  tag_64\n  jumpi\n    /* \"#utility.yul\":2822:2860   */\n  tag_65\n    /* \"#utility.yul\":2854:2859   */\n  dup2\n    /* \"#utility.yul\":2822:2860   */\n  tag_11\n  jump\t// in\ntag_65:\n    /* \"#utility.yul\":2906:2935   */\n  tag_66\n    /* \"#utility.yul\":2924:2934   */\n  dup5\n    /* \"#utility.yul\":2906:2935   */\n  tag_12\n  jump\t// in\ntag_66:\n    /* \"#utility.yul\":2896:2904   */\n  dup2\n    /* \"#utility.yul\":2892:2936   */\n  add\n    /* \"#utility.yul\":3089:3091   */\n  0x20\n    /* \"#utility.yul\":3077:3087   */\n  dup6\n    /* \"#utility.yul\":3074:3092   */\n  lt\n    /* \"#utility.yul\":3071:3120   */\n  iszero\n  tag_67\n  jumpi\n    /* \"#utility.yul\":3110:3118   */\n  dup2\n    /* \"#utility.yul\":3095:3118   */\n  swap1\n  pop\n    /* \"#utility.yul\":3071:3120   */\ntag_67:\n    /* \"#utility.yul\":3133:3213   */\n  tag_68\n    /* \"#utility.yul\":3189:3211   */\n  tag_69\n    /* \"#utility.yul\":3207:3210   */\n  dup6\n    /* \"#utility.yul\":3189:3211   */\n  tag_12\n  jump\t// in\ntag_69:\n    /* \"#utility.yul\":3179:3187   */\n  dup4\n    /* \"#utility.yul\":3175:3212   */\n  add\n    /* \"#utility.yul\":3162:3173   */\n  dup3\n    /* \"#utility.yul\":3133:3213   */\n  tag_22\n  jump\t// in\ntag_68:\n    /* \"#utility.yul\":2792:3223   */\n  pop\n  pop\n    /* \"#utility.yul\":2777:3223   */\ntag_64:\n    /* \"#utility.yul\":2687:3230   */\n  pop\n  pop\n  pop\n  jump\t// out\n    /* \"#utility.yul\":3236:3353   */\ntag_24:\n    /* \"#utility.yul\":3290:3298   */\n  0x00\n    /* \"#utility.yul\":3340:3345   */\n  dup3\n    /* \"#utility.yul\":3334:3338   */\n  dup3\n    /* \"#utility.yul\":3330:3346   */\n  shr\n    /* \"#utility.yul\":3309:3346   */\n  swap1\n  pop\n    /* \"#utility.yul\":3236:3353   */\n  swap3\n  swap2\n  pop\n  pop\n  jump\t// out\n    /* \"#utility.yul\":3359:3528   */\ntag_25:\n    /* \"#utility.yul\":3403:3409   */\n  0x00\n    /* \"#utility.yul\":3436:3487   */\n  tag_72\n    /* \"#utility.yul\":3484:3485   */\n  0x00\n    /* \"#utility.yul\":3480:3486   */\n  not\n    /* \"#utility.yul\":3472:3477   */\n  dup5\n    /* \"#utility.yul\":3469:3470   */\n  0x08\n    /* \"#utility.yul\":3465:3478   */\n  mul\n    /* \"#utility.yul\":3436:3487   */\n  tag_24\n  jump\t// in\ntag_72:\n    /* \"#utility.yul\":3432:3488   */\n  not\n    /* \"#utility.yul\":3517:3521   */\n  dup1\n    /* \"#utility.yul\":3511:3515   */\n  dup4\n    /* \"#utility.yul\":3507:3522   */\n  and\n    /* \"#utility.yul\":3497:3522   */\n  swap2\n  pop\n    /* \"#utility.yul\":3410:3528   */\n  pop\n    /* \"#utility.yul\":3359:3528   */\n  swap3\n  swap2\n  pop\n  pop\n  jump\t// out\n    /* \"#utility.yul\":3533:3828   */\ntag_26:\n    /* \"#utility.yul\":3609:3613   */\n  0x00\n    /* \"#utility.yul\":3755:3784   */\n  tag_74\n    /* \"#utility.yul\":3780:3783   */\n  dup4\n    /* \"#utility.yul\":3774:3778   */\n  dup4\n    /* \"#utility.yul\":3755:3784   */\n  tag_25\n  jump\t// in\ntag_74:\n    /* \"#utility.yul\":3747:3784   */\n  swap2\n  pop\n    /* \"#utility.yul\":3817:3820   */\n  dup3\n    /* \"#utility.yul\":3814:3815   */\n  0x02\n    /* \"#utility.yul\":3810:3821   */\n  mul\n    /* \"#utility.yul\":3804:3808   */\n  dup3\n    /* \"#utility.yul\":3801:3822   */\n  or\n    /* \"#utility.yul\":3793:3822   */\n  swap1\n  pop\n    /* \"#utility.yul\":3533:3828   */\n  swap3\n  swap2\n  pop\n  pop\n  jump\t// out\n    /* \"#utility.yul\":3833:5228   */\ntag_2:\n    /* \"#utility.yul\":3950:3987   */\n  tag_76\n    /* \"#utility.yul\":3983:3986   */\n  dup3\n    /* \"#utility.yul\":3950:3987   */\n  tag_7\n  jump\t// in\ntag_76:\n    /* \"#utility.yul\":4052:4070   */\n  0xffffffffffffffff\n    /* \"#utility.yul\":4044:4050   */\n  dup2\n    /* \"#utility.yul\":4041:4071   */\n  gt\n    /* \"#utility.yul\":4038:4094   */\n  iszero\n  tag_77\n  jumpi\n    /* \"#utility.yul\":4074:4092   */\n  tag_78\n  tag_8\n  jump\t// in\ntag_78:\n    /* \"#utility.yul\":4038:4094   */\ntag_77:\n    /* \"#utility.yul\":4118:4156   */\n  tag_79\n    /* \"#utility.yul\":4150:4154   */\n  dup3\n    /* \"#utility.yul\":4144:4155   */\n  sload\n    /* \"#utility.yul\":4118:4156   */\n  tag_10\n  jump\t// in\ntag_79:\n    /* \"#utility.yul\":4203:4270   */\n  tag_80\n    /* \"#utility.yul\":4263:4269   */\n  dup3\n    /* \"#utility.yul\":4255:4261   */\n  dup3\n    /* \"#utility.yul\":4249:4253   */\n  dup6\n    /* \"#utility.yul\":4203:4270   */\n  tag_23\n  jump\t// in\ntag_80:\n    /* \"#utility.yul\":4297:4298   */\n  0x00\n    /* \"#utility.yul\":4321:4325   */\n  0x20\n    /* \"#utility.yul\":4308:4325   */\n  swap1\n  pop\n    /* \"#utility.yul\":4353:4355   */\n  0x1f\n    /* \"#utility.yul\":4345:4351   */\n  dup4\n    /* \"#utility.yul\":4342:4356   */\n  gt\n    /* \"#utility.yul\":4370:4371   */\n  0x01\n    /* \"#utility.yul\":4365:4983   */\n  dup2\n  eq\n  tag_82\n  jumpi\n    /* \"#utility.yul\":5027:5028   */\n  0x00\n    /* \"#utility.yul\":5044:5050   */\n  dup5\n    /* \"#utility.yul\":5041:5118   */\n  iszero\n  tag_83\n  jumpi\n    /* \"#utility.yul\":5093:5102   */\n  dup3\n    /* \"#utility.yul\":5088:5091   */\n  dup8\n    /* \"#utility.yul\":5084:5103   */\n  add\n    /* \"#utility.yul\":5078:5104   */\n  mload\n    /* \"#utility.yul\":5069:5104   */\n  swap1\n  pop\n    /* \"#utility.yul\":5041:5118   */\ntag_83:\n    /* \"#utility.yul\":5144:5211   */\n  tag_84\n    /* \"#utility.yul\":5204:5210   */\n  dup6\n    /* \"#utility.yul\":5197:5202   */\n  dup3\n    /* \"#utility.yul\":5144:5211   */\n  tag_26\n  jump\t// in\ntag_84:\n    /* \"#utility.yul\":5138:5142   */\n  dup7\n    /* \"#utility.yul\":5131:5212   */\n  sstore\n    /* \"#utility.yul\":5000:5222   */\n  pop\n    /* \"#utility.yul\":4335:5222   */\n  jump(tag_81)\n    /* \"#utility.yul\":4365:4983   */\ntag_82:\n    /* \"#utility.yul\":4417:4421   */\n  0x1f\n    /* \"#utility.yul\":4413:4422   */\n  not\n    /* \"#utility.yul\":4405:4411   */\n  dup5\n    /* \"#utility.yul\":4401:4423   */\n  and\n    /* \"#utility.yul\":4451:4488   */\n  tag_85\n    /* \"#utility.yul\":4483:4487   */\n  dup7\n    /* \"#utility.yul\":4451:4488   */\n  tag_11\n  jump\t// in\ntag_85:\n    /* \"#utility.yul\":4510:4511   */\n  0x00\n    /* \"#utility.yul\":4524:4732   */\ntag_86:\n    /* \"#utility.yul\":4538:4545   */\n  dup3\n    /* \"#utility.yul\":4535:4536   */\n  dup2\n    /* \"#utility.yul\":4532:4546   */\n  lt\n    /* \"#utility.yul\":4524:4732   */\n  iszero\n  tag_88\n  jumpi\n    /* \"#utility.yul\":4617:4626   */\n  dup5\n    /* \"#utility.yul\":4612:4615   */\n  dup10\n    /* \"#utility.yul\":4608:4627   */\n  add\n    /* \"#utility.yul\":4602:4628   */\n  mload\n    /* \"#utility.yul\":4594:4600   */\n  dup3\n    /* \"#utility.yul\":4587:4629   */\n  sstore\n    /* \"#utility.yul\":4668:4669   */\n  0x01\n    /* \"#utility.yul\":4660:4666   */\n  dup3\n    /* \"#utility.yul\":4656:4670   */\n  add\n    /* \"#utility.yul\":4646:4670   */\n  swap2\n  pop\n    /* \"#utility.yul\":4715:4717   */\n  0x20\n    /* \"#utility.yul\":4704:4713   */\n  dup6\n    /* \"#utility.yul\":4700:4718   */\n  add\n    /* \"#utility.yul\":4687:4718   */\n  swap5\n  pop\n    /* \"#utility.yul\":4561:4565   */\n  0x20\n    /* \"#utility.yul\":4558:4559   */\n  dup2\n    /* \"#utility.yul\":4554:4566   */\n  add\n    /* \"#utility.yul\":4549:4566   */\n  swap1\n  pop\n    /* \"#utility.yul\":4524:4732   */\n  jump(tag_86)\ntag_88:\n    /* \"#utility.yul\":4760:4766   */\n  dup7\n    /* \"#utility.yul\":4751:4758   */\n  dup4\n    /* \"#utility.yul\":4748:4767   */\n  lt\n    /* \"#utility.yul\":4745:4924   */\n  iszero\n  tag_89\n  jumpi\n    /* \"#utility.yul\":4818:4827   */\n  dup5\n    /* \"#utility.yul\":4813:4816   */\n  dup10\n    /* \"#utility.yul\":4809:4828   */\n  add\n    /* \"#utility.yul\":4803:4829   */\n  mload\n    /* \"#utility.yul\":4861:4909   */\n  tag_90\n    /* \"#utility.yul\":4903:4907   */\n  0x1f\n    /* \"#utility.yul\":4895:4901   */\n  dup10\n    /* \"#utility.yul\":4891:4908   */\n  and\n    /* \"#utility.yul\":4880:4889   */\n  dup3\n    /* \"#utility.yul\":4861:4909   */\n  tag_25\n  jump\t// in\ntag_90:\n    /* \"#utility.yul\":4853:4859   */\n  dup4\n    /* \"#utility.yul\":4846:4910   */\n  sstore\n    /* \"#utility.yul\":4768:4924   */\n  pop\n    /* \"#utility.yul\":4745:4924   */\ntag_89:\n    /* \"#utility.yul\":4970:4971   */\n  0x01\n    /* \"#utility.yul\":4966:4967   */\n  0x02\n    /* \"#utility.yul\":4958:4964   */\n  dup9\n    /* \"#utility.yul\":4954:4968   */\n  mul\n    /* \"#utility.yul\":4950:4972   */\n  add\n    /* \"#utility.yul\":4944:4948   */\n  dup9\n    /* \"#utility.yul\":4937:4973   */\n  sstore\n    /* \"#utility.yul\":4372:4983   */\n  pop\n  pop\n  pop\n    /* \"#utility.yul\":4335:5222   */\ntag_81:\n  pop\n    /* \"#utility.yul\":3925:5228   */\n  pop\n  pop\n  pop\n    /* \"#utility.yul\":3833:5228   */\n  pop\n  pop\n  jump\t// out\n    /* \"#utility.yul\":5234:5374   */\ntag_27:\n    /* \"#utility.yul\":5282:5286   */\n  0x00\n    /* \"#utility.yul\":5305:5308   */\n  dup2\n    /* \"#utility.yul\":5297:5308   */\n  swap1\n  pop\n    /* \"#utility.yul\":5328:5331   */\n  dup2\n    /* \"#utility.yul\":5325:5326   */\n  0x00\n    /* \"#utility.yul\":5318:5332   */\n  mstore\n    /* \"#utility.yul\":5362:5366   */\n  0x20\n    /* \"#utility.yul\":5359:5360   */\n  0x00\n    /* \"#utility.yul\":5349:5367   */\n  keccak256\n    /* \"#utility.yul\":5341:5367   */\n  swap1\n  pop\n    /* \"#utility.yul\":5234:5374   */\n  swap2\n  swap1\n  pop\n  jump\t// out\n    /* \"#utility.yul\":5380:5921   */\ntag_28:\n    /* \"#utility.yul\":5480:5482   */\n  0x1f\n    /* \"#utility.yul\":5475:5478   */\n  dup3\n    /* \"#utility.yul\":5472:5483   */\n  gt\n    /* \"#utility.yul\":5469:5914   */\n  iszero\n  tag_93\n  jumpi\n    /* \"#utility.yul\":5514:5551   */\n  tag_94\n    /* \"#utility.yul\":5545:5550   */\n  dup2\n    /* \"#utility.yul\":5514:5551   */\n  tag_27\n  jump\t// in\ntag_94:\n    /* \"#utility.yul\":5597:5626   */\n  tag_95\n    /* \"#utility.yul\":5615:5625   */\n  dup5\n    /* \"#utility.yul\":5597:5626   */\n  tag_12\n  jump\t// in\ntag_95:\n    /* \"#utility.yul\":5587:5595   */\n  dup2\n    /* \"#utility.yul\":5583:5627   */\n  add\n    /* \"#utility.yul\":5780:5782   */\n  0x20\n    /* \"#utility.yul\":5768:5778   */\n  dup6\n    /* \"#utility.yul\":5765:5783   */\n  lt\n    /* \"#utility.yul\":5762:5811   */\n  iszero\n  tag_96\n  jumpi\n    /* \"#utility.yul\":5801:5809   */\n  dup2\n    /* \"#utility.yul\":5786:5809   */\n  swap1\n  pop\n    /* \"#utility.yul\":5762:5811   */\ntag_96:\n    /* \"#utility.yul\":5824:5904   */\n  tag_97\n    /* \"#utility.yul\":5880:5902   */\n  tag_98\n    /* \"#utility.yul\":5898:5901   */\n  dup6\n    /* \"#utility.yul\":5880:5902   */\n  tag_12\n  jump\t// in\ntag_98:\n    /* \"#utility.yul\":5870:5878   */\n  dup4\n    /* \"#utility.yul\":5866:5903   */\n  add\n    /* \"#utility.yul\":5853:5864   */\n  dup3\n    /* \"#utility.yul\":5824:5904   */\n  tag_22\n  jump\t// in\ntag_97:\n    /* \"#utility.yul\":5484:5914   */\n  pop\n  pop\n    /* \"#utility.yul\":5469:5914   */\ntag_93:\n    /* \"#utility.yul\":5380:5921   */\n  pop\n  pop\n  pop\n  jump\t// out\n    /* \"#utility.yul\":5927:7319   */\ntag_4:\n    /* \"#utility.yul\":6043:6080   */\n  tag_100\n    /* \"#utility.yul\":6076:6079   */\n  dup3\n    /* \"#utility.yul\":6043:6080   */\n  tag_7\n  jump\t// in\ntag_100:\n    /* \"#utility.yul\":6145:6163   */\n  0xffffffffffffffff\n    /* \"#utility.yul\":6137:6143   */\n  dup2\n    /* \"#utility.yul\":6134:6164   */\n  gt\n    /* \"#utility.yul\":6131:6187   */\n  iszero\n  tag_101\n  jumpi\n    /* \"#utility.yul\":6167:6185   */\n  tag_102\n  tag_8\n  jump\t// in\ntag_102:\n    /* \"#utility.yul\":6131:6187   */\ntag_101:\n    /* \"#utility.yul\":6211:6249   */\n  tag_103\n    /* \"#utility.yul\":6243:6247   */\n  dup3\n    /* \"#utility.yul\":6237:6248   */\n  sload\n    /* \"#utility.yul\":6211:6249   */\n  tag_10\n  jump\t// in\ntag_103:\n    /* \"#utility.yul\":6296:6362   */\n  tag_104\n    /* \"#utility.yul\":6355:6361   */\n  dup3\n    /* \"#utility.yul\":6347:6353   */\n  dup3\n    /* \"#utility.yul\":6341:6345   */\n  dup6\n    /* \"#utility.yul\":6296:6362   */\n  tag_28\n  jump\t// in\ntag_104:\n    /* \"#utility.yul\":6389:6390   */\n  0x00\n    /* \"#utility.yul\":6413:6417   */\n  0x20\n    /* \"#utility.yul\":6400:6417   */\n  swap1\n  pop\n    /* \"#utility.yul\":6445:6447   */\n  0x1f\n    /* \"#utility.yul\":6437:6443   */\n  dup4\n    /* \"#utility.yul\":6434:6448   */\n  gt\n    /* \"#utility.yul\":6462:6463   */\n  0x01\n    /* \"#utility.yul\":6457:7074   */\n  dup2\n  eq\n  tag_106\n  jumpi\n    /* \"#utility.yul\":7118:7119   */\n  0x00\n    /* \"#utility.yul\":7135:7141   */\n  dup5\n    /* \"#utility.yul\":7132:7209   */\n  iszero\n  tag_107\n  jumpi\n    /* \"#utility.yul\":7184:7193   */\n  dup3\n    /* \"#utility.yul\":7179:7182   */\n  dup8\n    /* \"#utility.yul\":7175:7194   */\n  add\n    /* \"#utility.yul\":7169:7195   */\n  mload\n    /* \"#utility.yul\":7160:7195   */\n  swap1\n  pop\n    /* \"#utility.yul\":7132:7209   */\ntag_107:\n    /* \"#utility.yul\":7235:7302   */\n  tag_108\n    /* \"#utility.yul\":7295:7301   */\n  dup6\n    /* \"#utility.yul\":7288:7293   */\n  dup3\n    /* \"#utility.yul\":7235:7302   */\n  tag_26\n  jump\t// in\ntag_108:\n    /* \"#utility.yul\":7229:7233   */\n  dup7\n    /* \"#utility.yul\":7222:7303   */\n  sstore\n    /* \"#utility.yul\":7091:7313   */\n  pop\n    /* \"#utility.yul\":6427:7313   */\n  jump(tag_105)\n    /* \"#utility.yul\":6457:7074   */\ntag_106:\n    /* \"#utility.yul\":6509:6513   */\n  0x1f\n    /* \"#utility.yul\":6505:6514   */\n  not\n    /* \"#utility.yul\":6497:6503   */\n  dup5\n    /* \"#utility.yul\":6493:6515   */\n  and\n    /* \"#utility.yul\":6543:6579   */\n  tag_109\n    /* \"#utility.yul\":6574:6578   */\n  dup7\n    /* \"#utility.yul\":6543:6579   */\n  tag_27\n  jump\t// in\ntag_109:\n    /* \"#utility.yul\":6601:6602   */\n  0x00\n    /* \"#utility.yul\":6615:6823   */\ntag_110:\n    /* \"#utility.yul\":6629:6636   */\n  dup3\n    /* \"#utility.yul\":6626:6627   */\n  dup2\n    /* \"#utility.yul\":6623:6637   */\n  lt\n    /* \"#utility.yul\":6615:6823   */\n  iszero\n  tag_112\n  jumpi\n    /* \"#utility.yul\":6708:6717   */\n  dup5\n    /* \"#utility.yul\":6703:6706   */\n  dup10\n    /* \"#utility.yul\":6699:6718   */\n  add\n    /* \"#utility.yul\":6693:6719   */\n  mload\n    /* \"#utility.yul\":6685:6691   */\n  dup3\n    /* \"#utility.yul\":6678:6720   */\n  sstore\n    /* \"#utility.yul\":6759:6760   */\n  0x01\n    /* \"#utility.yul\":6751:6757   */\n  dup3\n    /* \"#utility.yul\":6747:6761   */\n  add\n    /* \"#utility.yul\":6737:6761   */\n  swap2\n  pop\n    /* \"#utility.yul\":6806:6808   */\n  0x20\n    /* \"#utility.yul\":6795:6804   */\n  dup6\n    /* \"#utility.yul\":6791:6809   */\n  add\n    /* \"#utility.yul\":6778:6809   */\n  swap5\n  pop\n    /* \"#utility.yul\":6652:6656   */\n  0x20\n    /* \"#utility.yul\":6649:6650   */\n  dup2\n    /* \"#utility.yul\":6645:6657   */\n  add\n    /* \"#utility.yul\":6640:6657   */\n  swap1\n  pop\n    /* \"#utility.yul\":6615:6823   */\n  jump(tag_110)\ntag_112:\n    /* \"#utility.yul\":6851:6857   */\n  dup7\n    /* \"#utility.yul\":6842:6849   */\n  dup4\n    /* \"#utility.yul\":6839:6858   */\n  lt\n    /* \"#utility.yul\":6836:7015   */\n  iszero\n  tag_113\n  jumpi\n    /* \"#utility.yul\":6909:6918   */\n  dup5\n    /* \"#utility.yul\":6904:6907   */\n  dup10\n    /* \"#utility.yul\":6900:6919   */\n  add\n    /* \"#utility.yul\":6894:6920   */\n  mload\n    /* \"#utility.yul\":6952:7000   */\n  tag_114\n    /* \"#utility.yul\":6994:6998   */\n  0x1f\n    /* \"#utility.yul\":6986:6992   */\n  dup10\n    /* \"#utility.yul\":6982:6999   */\n  and\n    /* \"#utility.yul\":6971:6980   */\n  dup3\n    /* \"#utility.yul\":6952:7000   */\n  tag_25\n  jump\t// in\ntag_114:\n    /* \"#utility.yul\":6944:6950   */\n  dup4\n    /* \"#utility.yul\":6937:7001   */\n  sstore\n    /* \"#utility.yul\":6859:7015   */\n  pop\n    /* \"#utility.yul\":6836:7015   */\ntag_113:\n    /* \"#utility.yul\":7061:7062   */\n  0x01\n    /* \"#utility.yul\":7057:7058   */\n  0x02\n    /* \"#utility.yul\":7049:7055   */\n  dup9\n    /* \"#utility.yul\":7045:7059   */\n  mul\n    /* \"#utility.yul\":7041:7063   */\n  add\n    /* \"#utility.yul\":7035:7039   */\n  dup9\n    /* \"#utility.yul\":7028:7064   */\n  sstore\n    /* \"#utility.yul\":6464:7074   */\n  pop\n  pop\n  pop\n    /* \"#utility.yul\":6427:7313   */\ntag_105:\n  pop\n    /* \"#utility.yul\":6018:7319   */\n  pop\n  pop\n  pop\n    /* \"#utility.yul\":5927:7319   */\n  pop\n  pop\n  jump\t// out\n    /* \"Contracts/Practise.sol\":58:344  contract practise{... */\ntag_6:\n  dataSize(sub_0)\n  dup1\n  dataOffset(sub_0)\n  0x00\n  codecopy\n  0x00\n  return\nstop\n\nsub_0: assembly {\n        /* \"Contracts/Practise.sol\":58:344  contract practise{... */\n      mstore(0x40, 0x80)\n      callvalue\n      dup1\n      iszero\n      tag_1\n      jumpi\n      0x00\n      dup1\n      revert\n    tag_1:\n      pop\n      jumpi(tag_2, lt(calldatasize, 0x04))\n      shr(0xe0, calldataload(0x00))\n      dup1\n      0x200d2ed2\n      eq\n      tag_3\n      jumpi\n      dup1\n      0xa2c5e507\n      eq\n      tag_4\n      jumpi\n      dup1\n      0xa4311e32\n      eq\n      tag_5\n      jumpi\n      dup1\n      0xb8cdbd22\n      eq\n      tag_6\n      jumpi\n      dup1\n      0xdcb49716\n      eq\n      tag_7\n      jumpi\n      dup1\n      0xee4384a7\n      eq\n      tag_8\n      jumpi\n    tag_2:\n      0x00\n      dup1\n      revert\n        /* \"Contracts/Practise.sol\":315:341  bool public status = false */\n    tag_3:\n      tag_9\n      tag_10\n      jump\t// in\n    tag_9:\n      mload(0x40)\n      tag_11\n      swap2\n      swap1\n      tag_12\n      jump\t// in\n    tag_11:\n      mload(0x40)\n      dup1\n      swap2\n      sub\n      swap1\n      return\n        /* \"Contracts/Practise.sol\":153:219  address public myhome = 0x5B38Da6a701c568545dCfcB03FcB875f56beddC4 */\n    tag_4:\n      tag_13\n      tag_14\n      jump\t// in\n    tag_13:\n      mload(0x40)\n      tag_15\n      swap2\n      swap1\n      tag_16\n      jump\t// in\n    tag_15:\n      mload(0x40)\n      dup1\n      swap2\n      sub\n      swap1\n      return\n        /* \"Contracts/Practise.sol\":267:309  bytes public mynameinbytes = \"Bala Brucks\" */\n    tag_5:\n      tag_17\n      tag_18\n      jump\t// in\n    tag_17:\n      mload(0x40)\n      tag_19\n      swap2\n      swap1\n      tag_20\n      jump\t// in\n    tag_19:\n      mload(0x40)\n      dup1\n      swap2\n      sub\n      swap1\n      return\n        /* \"Contracts/Practise.sol\":225:261  string public myname = \"Bala Brucks\" */\n    tag_6:\n      tag_21\n      tag_22\n      jump\t// in\n    tag_21:\n      mload(0x40)\n      tag_23\n      swap2\n      swap1\n      tag_24\n      jump\t// in\n    tag_23:\n      mload(0x40)\n      dup1\n      swap2\n      sub\n      swap1\n      return\n        /* \"Contracts/Practise.sol\":81:107  int public integerVar = -4 */\n    tag_7:\n      tag_25\n      tag_26\n      jump\t// in\n    tag_25:\n      mload(0x40)\n      tag_27\n      swap2\n      swap1\n      tag_28\n      jump\t// in\n    tag_27:\n      mload(0x40)\n      dup1\n      swap2\n      sub\n      swap1\n      return\n        /* \"Contracts/Practise.sol\":113:147  uint public unsignedintegervar = 4 */\n    tag_8:\n      tag_29\n      tag_30\n      jump\t// in\n    tag_29:\n      mload(0x40)\n      tag_31\n      swap2\n      swap1\n      tag_32\n      jump\t// in\n    tag_31:\n      mload(0x40)\n      dup1\n      swap2\n      sub\n      swap1\n      return\n        /* \"Contracts/Practise.sol\":315:341  bool public status = false */\n    tag_10:\n      0x05\n      0x00\n      swap1\n      sload\n      swap1\n      0x0100\n      exp\n      swap1\n      div\n      0xff\n      and\n      dup2\n      jump\t// out\n        /* \"Contracts/Practise.sol\":153:219  address public myhome = 0x5B38Da6a701c568545dCfcB03FcB875f56beddC4 */\n    tag_14:\n      0x02\n      0x00\n      swap1\n      sload\n      swap1\n      0x0100\n      exp\n      swap1\n      div\n      0xffffffffffffffffffffffffffffffffffffffff\n      and\n      dup2\n      jump\t// out\n        /* \"Contracts/Practise.sol\":267:309  bytes public mynameinbytes = \"Bala Brucks\" */\n    tag_18:\n      0x04\n      dup1\n      sload\n      tag_33\n      swap1\n      tag_34\n      jump\t// in\n    tag_33:\n      dup1\n      0x1f\n      add\n      0x20\n      dup1\n      swap2\n      div\n      mul\n      0x20\n      add\n      mload(0x40)\n      swap1\n      dup2\n      add\n      0x40\n      mstore\n      dup1\n      swap3\n      swap2\n      swap1\n      dup2\n      dup2\n      mstore\n      0x20\n      add\n      dup3\n      dup1\n      sload\n      tag_35\n      swap1\n      tag_34\n      jump\t// in\n    tag_35:\n      dup1\n      iszero\n      tag_36\n      jumpi\n      dup1\n      0x1f\n      lt\n      tag_37\n      jumpi\n      0x0100\n      dup1\n      dup4\n      sload\n      div\n      mul\n      dup4\n      mstore\n      swap2\n      0x20\n      add\n      swap2\n      jump(tag_36)\n    tag_37:\n      dup3\n      add\n      swap2\n      swap1\n      0x00\n      mstore\n      keccak256(0x00, 0x20)\n      swap1\n    tag_38:\n      dup2\n      sload\n      dup2\n      mstore\n      swap1\n      0x01\n      add\n      swap1\n      0x20\n      add\n      dup1\n      dup4\n      gt\n      tag_38\n      jumpi\n      dup3\n      swap1\n      sub\n      0x1f\n      and\n      dup3\n      add\n      swap2\n    tag_36:\n      pop\n      pop\n      pop\n      pop\n      pop\n      dup2\n      jump\t// out\n        /* \"Contracts/Practise.sol\":225:261  string public myname = \"Bala Brucks\" */\n    tag_22:\n      0x03\n      dup1\n      sload\n      tag_39\n      swap1\n      tag_34\n      jump\t// in\n    tag_39:\n      dup1\n      0x1f\n      add\n      0x20\n      dup1\n      swap2\n      div\n      mul\n      0x20\n      add\n      mload(0x40)\n      swap1\n      dup2\n      add\n      0x40\n      mstore\n      dup1\n      swap3\n      swap2\n      swap1\n      dup2\n      dup2\n      mstore\n      0x20\n      add\n      dup3\n      dup1\n      sload\n      tag_40\n      swap1\n      tag_34\n      jump\t// in\n    tag_40:\n      dup1\n      iszero\n      tag_41\n      jumpi\n      dup1\n      0x1f\n      lt\n      tag_42\n      jumpi\n      0x0100\n      dup1\n      dup4\n      sload\n      div\n      mul\n      dup4\n      mstore\n      swap2\n      0x20\n      add\n      swap2\n      jump(tag_41)\n    tag_42:\n      dup3\n      add\n      swap2\n      swap1\n      0x00\n      mstore\n      keccak256(0x00, 0x20)\n      swap1\n    tag_43:\n      dup2\n      sload\n      dup2\n      mstore\n      swap1\n      0x01\n      add\n      swap1\n      0x20\n      add\n      dup1\n      dup4\n      gt\n      tag_43\n      jumpi\n      dup3\n      swap1\n      sub\n      0x1f\n      and\n      dup3\n      add\n      swap2\n    tag_41:\n      pop\n      pop\n      pop\n      pop\n      pop\n      dup2\n      jump\t// out\n        /* \"Contracts/Practise.sol\":81:107  int public integerVar = -4 */\n    tag_26:\n      sload(0x00)\n      dup2\n      jump\t// out\n        /* \"Contracts/Practise.sol\":113:147  uint public unsignedintegervar = 4 */\n    tag_30:\n      sload(0x01)\n      dup2\n      jump\t// out\n        /* \"#utility.yul\":7:97   */\n    tag_44:\n        /* \"#utility.yul\":41:48   */\n      0x00\n        /* \"#utility.yul\":84:89   */\n      dup2\n        /* \"#utility.yul\":77:90   */\n      iszero\n        /* \"#utility.yul\":70:91   */\n      iszero\n        /* \"#utility.yul\":59:91   */\n      swap1\n      pop\n        /* \"#utility.yul\":7:97   */\n      swap2\n      swap1\n      pop\n      jump\t// out\n        /* \"#utility.yul\":103:212   */\n    tag_45:\n        /* \"#utility.yul\":184:205   */\n      tag_65\n        /* \"#utility.yul\":199:204   */\n      dup2\n        /* \"#utility.yul\":184:205   */\n      tag_44\n      jump\t// in\n    tag_65:\n        /* \"#utility.yul\":179:182   */\n      dup3\n        /* \"#utility.yul\":172:206   */\n      mstore\n        /* \"#utility.yul\":103:212   */\n      pop\n      pop\n      jump\t// out\n        /* \"#utility.yul\":218:428   */\n    tag_12:\n        /* \"#utility.yul\":305:309   */\n      0x00\n        /* \"#utility.yul\":343:345   */\n      0x20\n        /* \"#utility.yul\":332:341   */\n      dup3\n        /* \"#utility.yul\":328:346   */\n      add\n        /* \"#utility.yul\":320:346   */\n      swap1\n      pop\n        /* \"#utility.yul\":356:421   */\n      tag_67\n        /* \"#utility.yul\":418:419   */\n      0x00\n        /* \"#utility.yul\":407:416   */\n      dup4\n        /* \"#utility.yul\":403:420   */\n      add\n        /* \"#utility.yul\":394:400   */\n      dup5\n        /* \"#utility.yul\":356:421   */\n      tag_45\n      jump\t// in\n    tag_67:\n        /* \"#utility.yul\":218:428   */\n      swap3\n      swap2\n      pop\n      pop\n      jump\t// out\n        /* \"#utility.yul\":434:560   */\n    tag_46:\n        /* \"#utility.yul\":471:478   */\n      0x00\n        /* \"#utility.yul\":511:553   */\n      0xffffffffffffffffffffffffffffffffffffffff\n        /* \"#utility.yul\":504:509   */\n      dup3\n        /* \"#utility.yul\":500:554   */\n      and\n        /* \"#utility.yul\":489:554   */\n      swap1\n      pop\n        /* \"#utility.yul\":434:560   */\n      swap2\n      swap1\n      pop\n      jump\t// out\n        /* \"#utility.yul\":566:662   */\n    tag_47:\n        /* \"#utility.yul\":603:610   */\n      0x00\n        /* \"#utility.yul\":632:656   */\n      tag_70\n        /* \"#utility.yul\":650:655   */\n      dup3\n        /* \"#utility.yul\":632:656   */\n      tag_46\n      jump\t// in\n    tag_70:\n        /* \"#utility.yul\":621:656   */\n      swap1\n      pop\n        /* \"#utility.yul\":566:662   */\n      swap2\n      swap1\n      pop\n      jump\t// out\n        /* \"#utility.yul\":668:786   */\n    tag_48:\n        /* \"#utility.yul\":755:779   */\n      tag_72\n        /* \"#utility.yul\":773:778   */\n      dup2\n        /* \"#utility.yul\":755:779   */\n      tag_47\n      jump\t// in\n    tag_72:\n        /* \"#utility.yul\":750:753   */\n      dup3\n        /* \"#utility.yul\":743:780   */\n      mstore\n        /* \"#utility.yul\":668:786   */\n      pop\n      pop\n      jump\t// out\n        /* \"#utility.yul\":792:1014   */\n    tag_16:\n        /* \"#utility.yul\":885:889   */\n      0x00\n        /* \"#utility.yul\":923:925   */\n      0x20\n        /* \"#utility.yul\":912:921   */\n      dup3\n        /* \"#utility.yul\":908:926   */\n      add\n        /* \"#utility.yul\":900:926   */\n      swap1\n      pop\n        /* \"#utility.yul\":936:1007   */\n      tag_74\n        /* \"#utility.yul\":1004:1005   */\n      0x00\n        /* \"#utility.yul\":993:1002   */\n      dup4\n        /* \"#utility.yul\":989:1006   */\n      add\n        /* \"#utility.yul\":980:986   */\n      dup5\n        /* \"#utility.yul\":936:1007   */\n      tag_48\n      jump\t// in\n    tag_74:\n        /* \"#utility.yul\":792:1014   */\n      swap3\n      swap2\n      pop\n      pop\n      jump\t// out\n        /* \"#utility.yul\":1020:1118   */\n    tag_49:\n        /* \"#utility.yul\":1071:1077   */\n      0x00\n        /* \"#utility.yul\":1105:1110   */\n      dup2\n        /* \"#utility.yul\":1099:1111   */\n      mload\n        /* \"#utility.yul\":1089:1111   */\n      swap1\n      pop\n        /* \"#utility.yul\":1020:1118   */\n      swap2\n      swap1\n      pop\n      jump\t// out\n        /* \"#utility.yul\":1124:1292   */\n    tag_50:\n        /* \"#utility.yul\":1207:1218   */\n      0x00\n        /* \"#utility.yul\":1241:1247   */\n      dup3\n        /* \"#utility.yul\":1236:1239   */\n      dup3\n        /* \"#utility.yul\":1229:1248   */\n      mstore\n        /* \"#utility.yul\":1281:1285   */\n      0x20\n        /* \"#utility.yul\":1276:1279   */\n      dup3\n        /* \"#utility.yul\":1272:1286   */\n      add\n        /* \"#utility.yul\":1257:1286   */\n      swap1\n      pop\n        /* \"#utility.yul\":1124:1292   */\n      swap3\n      swap2\n      pop\n      pop\n      jump\t// out\n        /* \"#utility.yul\":1298:1437   */\n    tag_51:\n        /* \"#utility.yul\":1387:1393   */\n      dup3\n        /* \"#utility.yul\":1382:1385   */\n      dup2\n        /* \"#utility.yul\":1377:1380   */\n      dup4\n        /* \"#utility.yul\":1371:1394   */\n      mcopy\n        /* \"#utility.yul\":1428:1429   */\n      0x00\n        /* \"#utility.yul\":1419:1425   */\n      dup4\n        /* \"#utility.yul\":1414:1417   */\n      dup4\n        /* \"#utility.yul\":1410:1426   */\n      add\n        /* \"#utility.yul\":1403:1430   */\n      mstore\n        /* \"#utility.yul\":1298:1437   */\n      pop\n      pop\n      pop\n      jump\t// out\n        /* \"#utility.yul\":1443:1545   */\n    tag_52:\n        /* \"#utility.yul\":1484:1490   */\n      0x00\n        /* \"#utility.yul\":1535:1537   */\n      0x1f\n        /* \"#utility.yul\":1531:1538   */\n      not\n        /* \"#utility.yul\":1526:1528   */\n      0x1f\n        /* \"#utility.yul\":1519:1524   */\n      dup4\n        /* \"#utility.yul\":1515:1529   */\n      add\n        /* \"#utility.yul\":1511:1539   */\n      and\n        /* \"#utility.yul\":1501:1539   */\n      swap1\n      pop\n        /* \"#utility.yul\":1443:1545   */\n      swap2\n      swap1\n      pop\n      jump\t// out\n        /* \"#utility.yul\":1551:1924   */\n    tag_53:\n        /* \"#utility.yul\":1637:1640   */\n      0x00\n        /* \"#utility.yul\":1665:1703   */\n      tag_80\n        /* \"#utility.yul\":1697:1702   */\n      dup3\n        /* \"#utility.yul\":1665:1703   */\n      tag_49\n      jump\t// in\n    tag_80:\n        /* \"#utility.yul\":1719:1789   */\n      tag_81\n        /* \"#utility.yul\":1782:1788   */\n      dup2\n        /* \"#utility.yul\":1777:1780   */\n      dup6\n        /* \"#utility.yul\":1719:1789   */\n      tag_50\n      jump\t// in\n    tag_81:\n        /* \"#utility.yul\":1712:1789   */\n      swap4\n      pop\n        /* \"#utility.yul\":1798:1863   */\n      tag_82\n        /* \"#utility.yul\":1856:1862   */\n      dup2\n        /* \"#utility.yul\":1851:1854   */\n      dup6\n        /* \"#utility.yul\":1844:1848   */\n      0x20\n        /* \"#utility.yul\":1837:1842   */\n      dup7\n        /* \"#utility.yul\":1833:1849   */\n      add\n        /* \"#utility.yul\":1798:1863   */\n      tag_51\n      jump\t// in\n    tag_82:\n        /* \"#utility.yul\":1888:1917   */\n      tag_83\n        /* \"#utility.yul\":1910:1916   */\n      dup2\n        /* \"#utility.yul\":1888:1917   */\n      tag_52\n      jump\t// in\n    tag_83:\n        /* \"#utility.yul\":1883:1886   */\n      dup5\n        /* \"#utility.yul\":1879:1918   */\n      add\n        /* \"#utility.yul\":1872:1918   */\n      swap2\n      pop\n        /* \"#utility.yul\":1641:1924   */\n      pop\n        /* \"#utility.yul\":1551:1924   */\n      swap3\n      swap2\n      pop\n      pop\n      jump\t// out\n        /* \"#utility.yul\":1930:2239   */\n    tag_20:\n        /* \"#utility.yul\":2041:2045   */\n      0x00\n        /* \"#utility.yul\":2079:2081   */\n      0x20\n        /* \"#utility.yul\":2068:2077   */\n      dup3\n        /* \"#utility.yul\":2064:2082   */\n      add\n        /* \"#utility.yul\":2056:2082   */\n      swap1\n      pop\n        /* \"#utility.yul\":2128:2137   */\n      dup2\n        /* \"#utility.yul\":2122:2126   */\n      dup2\n        /* \"#utility.yul\":2118:2138   */\n      sub\n        /* \"#utility.yul\":2114:2115   */\n      0x00\n        /* \"#utility.yul\":2103:2112   */\n      dup4\n        /* \"#utility.yul\":2099:2116   */\n      add\n        /* \"#utility.yul\":2092:2139   */\n      mstore\n        /* \"#utility.yul\":2156:2232   */\n      tag_85\n        /* \"#utility.yul\":2227:2231   */\n      dup2\n        /* \"#utility.yul\":2218:2224   */\n      dup5\n        /* \"#utility.yul\":2156:2232   */\n      tag_53\n      jump\t// in\n    tag_85:\n        /* \"#utility.yul\":2148:2232   */\n      swap1\n      pop\n        /* \"#utility.yul\":1930:2239   */\n      swap3\n      swap2\n      pop\n      pop\n      jump\t// out\n        /* \"#utility.yul\":2245:2344   */\n    tag_54:\n        /* \"#utility.yul\":2297:2303   */\n      0x00\n        /* \"#utility.yul\":2331:2336   */\n      dup2\n        /* \"#utility.yul\":2325:2337   */\n      mload\n        /* \"#utility.yul\":2315:2337   */\n      swap1\n      pop\n        /* \"#utility.yul\":2245:2344   */\n      swap2\n      swap1\n      pop\n      jump\t// out\n        /* \"#utility.yul\":2350:2519   */\n    tag_55:\n        /* \"#utility.yul\":2434:2445   */\n      0x00\n        /* \"#utility.yul\":2468:2474   */\n      dup3\n        /* \"#utility.yul\":2463:2466   */\n      dup3\n        /* \"#utility.yul\":2456:2475   */\n      mstore\n        /* \"#utility.yul\":2508:2512   */\n      0x20\n        /* \"#utility.yul\":2503:2506   */\n      dup3\n        /* \"#utility.yul\":2499:2513   */\n      add\n        /* \"#utility.yul\":2484:2513   */\n      swap1\n      pop\n        /* \"#utility.yul\":2350:2519   */\n      swap3\n      swap2\n      pop\n      pop\n      jump\t// out\n        /* \"#utility.yul\":2525:2902   */\n    tag_56:\n        /* \"#utility.yul\":2613:2616   */\n      0x00\n        /* \"#utility.yul\":2641:2680   */\n      tag_89\n        /* \"#utility.yul\":2674:2679   */\n      dup3\n        /* \"#utility.yul\":2641:2680   */\n      tag_54\n      jump\t// in\n    tag_89:\n        /* \"#utility.yul\":2696:2767   */\n      tag_90\n        /* \"#utility.yul\":2760:2766   */\n      dup2\n        /* \"#utility.yul\":2755:2758   */\n      dup6\n        /* \"#utility.yul\":2696:2767   */\n      tag_55\n      jump\t// in\n    tag_90:\n        /* \"#utility.yul\":2689:2767   */\n      swap4\n      pop\n        /* \"#utility.yul\":2776:2841   */\n      tag_91\n        /* \"#utility.yul\":2834:2840   */\n      dup2\n        /* \"#utility.yul\":2829:2832   */\n      dup6\n        /* \"#utility.yul\":2822:2826   */\n      0x20\n        /* \"#utility.yul\":2815:2820   */\n      dup7\n        /* \"#utility.yul\":2811:2827   */\n      add\n        /* \"#utility.yul\":2776:2841   */\n      tag_51\n      jump\t// in\n    tag_91:\n        /* \"#utility.yul\":2866:2895   */\n      tag_92\n        /* \"#utility.yul\":2888:2894   */\n      dup2\n        /* \"#utility.yul\":2866:2895   */\n      tag_52\n      jump\t// in\n    tag_92:\n        /* \"#utility.yul\":2861:2864   */\n      dup5\n        /* \"#utility.yul\":2857:2896   */\n      add\n        /* \"#utility.yul\":2850:2896   */\n      swap2\n      pop\n        /* \"#utility.yul\":2617:2902   */\n      pop\n        /* \"#utility.yul\":2525:2902   */\n      swap3\n      swap2\n      pop\n      pop\n      jump\t// out\n        /* \"#utility.yul\":2908:3221   */\n    tag_24:\n        /* \"#utility.yul\":3021:3025   */\n      0x00\n        /* \"#utility.yul\":3059:3061   */\n      0x20\n        /* \"#utility.yul\":3048:3057   */\n      dup3\n        /* \"#utility.yul\":3044:3062   */\n      add\n        /* \"#utility.yul\":3036:3062   */\n      swap1\n      pop\n        /* \"#utility.yul\":3108:3117   */\n      dup2\n        /* \"#utility.yul\":3102:3106   */\n      dup2\n        /* \"#utility.yul\":3098:3118   */\n      sub\n        /* \"#utility.yul\":3094:3095   */\n      0x00\n        /* \"#utility.yul\":3083:3092   */\n      dup4\n        /* \"#utility.yul\":3079:3096   */\n      add\n        /* \"#utility.yul\":3072:3119   */\n      mstore\n        /* \"#utility.yul\":3136:3214   */\n      tag_94\n        /* \"#utility.yul\":3209:3213   */\n      dup2\n        /* \"#utility.yul\":3200:3206   */\n      dup5\n        /* \"#utility.yul\":3136:3214   */\n      tag_56\n      jump\t// in\n    tag_94:\n        /* \"#utility.yul\":3128:3214   */\n      swap1\n      pop\n        /* \"#utility.yul\":2908:3221   */\n      swap3\n      swap2\n      pop\n      pop\n      jump\t// out\n        /* \"#utility.yul\":3227:3303   */\n    tag_57:\n        /* \"#utility.yul\":3263:3270   */\n      0x00\n        /* \"#utility.yul\":3292:3297   */\n      dup2\n        /* \"#utility.yul\":3281:3297   */\n      swap1\n      pop\n        /* \"#utility.yul\":3227:3303   */\n      swap2\n      swap1\n      pop\n      jump\t// out\n        /* \"#utility.yul\":3309:3424   */\n    tag_58:\n        /* \"#utility.yul\":3394:3417   */\n      tag_97\n        /* \"#utility.yul\":3411:3416   */\n      dup2\n        /* \"#utility.yul\":3394:3417   */\n      tag_57\n      jump\t// in\n    tag_97:\n        /* \"#utility.yul\":3389:3392   */\n      dup3\n        /* \"#utility.yul\":3382:3418   */\n      mstore\n        /* \"#utility.yul\":3309:3424   */\n      pop\n      pop\n      jump\t// out\n        /* \"#utility.yul\":3430:3648   */\n    tag_28:\n        /* \"#utility.yul\":3521:3525   */\n      0x00\n        /* \"#utility.yul\":3559:3561   */\n      0x20\n        /* \"#utility.yul\":3548:3557   */\n      dup3\n        /* \"#utility.yul\":3544:3562   */\n      add\n        /* \"#utility.yul\":3536:3562   */\n      swap1\n      pop\n        /* \"#utility.yul\":3572:3641   */\n      tag_99\n        /* \"#utility.yul\":3638:3639   */\n      0x00\n        /* \"#utility.yul\":3627:3636   */\n      dup4\n        /* \"#utility.yul\":3623:3640   */\n      add\n        /* \"#utility.yul\":3614:3620   */\n      dup5\n        /* \"#utility.yul\":3572:3641   */\n      tag_58\n      jump\t// in\n    tag_99:\n        /* \"#utility.yul\":3430:3648   */\n      swap3\n      swap2\n      pop\n      pop\n      jump\t// out\n        /* \"#utility.yul\":3654:3731   */\n    tag_59:\n        /* \"#utility.yul\":3691:3698   */\n      0x00\n        /* \"#utility.yul\":3720:3725   */\n      dup2\n        /* \"#utility.yul\":3709:3725   */\n      swap1\n      pop\n        /* \"#utility.yul\":3654:3731   */\n      swap2\n      swap1\n      pop\n      jump\t// out\n        /* \"#utility.yul\":3737:3855   */\n    tag_60:\n        /* \"#utility.yul\":3824:3848   */\n      tag_102\n        /* \"#utility.yul\":3842:3847   */\n      dup2\n        /* \"#utility.yul\":3824:3848   */\n      tag_59\n      jump\t// in\n    tag_102:\n        /* \"#utility.yul\":3819:3822   */\n      dup3\n        /* \"#utility.yul\":3812:3849   */\n      mstore\n        /* \"#utility.yul\":3737:3855   */\n      pop\n      pop\n      jump\t// out\n        /* \"#utility.yul\":3861:4083   */\n    tag_32:\n        /* \"#utility.yul\":3954:3958   */\n      0x00\n        /* \"#utility.yul\":3992:3994   */\n      0x20\n        /* \"#utility.yul\":3981:3990   */\n      dup3\n        /* \"#utility.yul\":3977:3995   */\n      add\n        /* \"#utility.yul\":3969:3995   */\n      swap1\n      pop\n        /* \"#utility.yul\":4005:4076   */\n      tag_104\n        /* \"#utility.yul\":4073:4074   */\n      0x00\n        /* \"#utility.yul\":4062:4071   */\n      dup4\n        /* \"#utility.yul\":4058:4075   */\n      add\n        /* \"#utility.yul\":4049:4055   */\n      dup5\n        /* \"#utility.yul\":4005:4076   */\n      tag_60\n      jump\t// in\n    tag_104:\n        /* \"#utility.yul\":3861:4083   */\n      swap3\n      swap2\n      pop\n      pop\n      jump\t// out\n        /* \"#utility.yul\":4089:4269   */\n    tag_61:\n        /* \"#utility.yul\":4137:4214   */\n      0x4e487b7100000000000000000000000000000000000000000000000000000000\n        /* \"#utility.yul\":4134:4135   */\n      0x00\n        /* \"#utility.yul\":4127:4215   */\n      mstore\n        /* \"#utility.yul\":4234:4238   */\n      0x22\n        /* \"#utility.yul\":4231:4232   */\n      0x04\n        /* \"#utility.yul\":4224:4239   */\n      mstore\n        /* \"#utility.yul\":4258:4262   */\n      0x24\n        /* \"#utility.yul\":4255:4256   */\n      0x00\n        /* \"#utility.yul\":4248:4263   */\n      revert\n        /* \"#utility.yul\":4275:4595   */\n    tag_34:\n        /* \"#utility.yul\":4319:4325   */\n      0x00\n        /* \"#utility.yul\":4356:4357   */\n      0x02\n        /* \"#utility.yul\":4350:4354   */\n      dup3\n        /* \"#utility.yul\":4346:4358   */\n      div\n        /* \"#utility.yul\":4336:4358   */\n      swap1\n      pop\n        /* \"#utility.yul\":4403:4404   */\n      0x01\n        /* \"#utility.yul\":4397:4401   */\n      dup3\n        /* \"#utility.yul\":4393:4405   */\n      and\n        /* \"#utility.yul\":4424:4442   */\n      dup1\n        /* \"#utility.yul\":4414:4495   */\n      tag_107\n      jumpi\n        /* \"#utility.yul\":4480:4484   */\n      0x7f\n        /* \"#utility.yul\":4472:4478   */\n      dup3\n        /* \"#utility.yul\":4468:4485   */\n      and\n        /* \"#utility.yul\":4458:4485   */\n      swap2\n      pop\n        /* \"#utility.yul\":4414:4495   */\n    tag_107:\n        /* \"#utility.yul\":4542:4544   */\n      0x20\n        /* \"#utility.yul\":4534:4540   */\n      dup3\n        /* \"#utility.yul\":4531:4545   */\n      lt\n        /* \"#utility.yul\":4511:4529   */\n      dup2\n        /* \"#utility.yul\":4508:4546   */\n      sub\n        /* \"#utility.yul\":4505:4589   */\n      tag_108\n      jumpi\n        /* \"#utility.yul\":4561:4579   */\n      tag_109\n      tag_61\n      jump\t// in\n    tag_109:\n        /* \"#utility.yul\":4505:4589   */\n    tag_108:\n        /* \"#utility.yul\":4326:4595   */\n      pop\n        /* \"#utility.yul\":4275:4595   */\n      swap2\n      swap1\n      pop\n      jump\t// out\n\n    auxdata: 0xa26469706673582212208d383adbd79394e9c103aad0a274f70389bc757285ff2a77c05f4bbf894234d764736f6c63430008190033\n}\n",
				"bytecode": {
					"linkReferences": {},
					"object": "60806040527ffffffffffffffffffffffffffffffffffffffffffffffffffffffffffffffffc5f556004600155735b38da6a701c568545dcfcb03fcb875f56beddc460025f6101000a81548173ffffffffffffffffffffffffffffffffffffffff021916908373ffffffffffffffffffffffffffffffffffffffff1602179055506040518060400160405280600b81526020017f42616c6120427275636b73000000000000000000000000000000000000000000815250600390816100c4919061036e565b506040518060400160405280600b81526020017f42616c6120427275636b73000000000000000000000000000000000000000000815250600490816101099190610495565b505f60055f6101000a81548160ff02191690831515021790555034801561012e575f80fd5b50610564565b5f81519050919050565b7f4e487b71000000000000000000000000000000000000000000000000000000005f52604160045260245ffd5b7f4e487b71000000000000000000000000000000000000000000000000000000005f52602260045260245ffd5b5f60028204905060018216806101af57607f821691505b6020821081036101c2576101c161016b565b5b50919050565b5f819050815f5260205f209050919050565b5f6020601f8301049050919050565b5f82821b905092915050565b5f600883026102247fffffffffffffffffffffffffffffffffffffffffffffffffffffffffffffffff826101e9565b61022e86836101e9565b95508019841693508086168417925050509392505050565b5f819050919050565b5f819050919050565b5f61027261026d61026884610246565b61024f565b610246565b9050919050565b5f819050919050565b61028b83610258565b61029f61029782610279565b8484546101f5565b825550505050565b5f90565b6102b36102a7565b6102be818484610282565b505050565b5b818110156102e1576102d65f826102ab565b6001810190506102c4565b5050565b601f821115610326576102f7816101c8565b610300846101da565b8101602085101561030f578190505b61032361031b856101da565b8301826102c3565b50505b505050565b5f82821c905092915050565b5f6103465f198460080261032b565b1980831691505092915050565b5f61035e8383610337565b9150826002028217905092915050565b61037782610134565b67ffffffffffffffff8111156103905761038f61013e565b5b61039a8254610198565b6103a58282856102e5565b5f60209050601f8311600181146103d6575f84156103c4578287015190505b6103ce8582610353565b865550610435565b601f1984166103e4866101c8565b5f5b8281101561040b578489015182556001820191506020850194506020810190506103e6565b868310156104285784890151610424601f891682610337565b8355505b6001600288020188555050505b505050505050565b5f819050815f5260205f209050919050565b601f821115610490576104618161043d565b61046a846101da565b81016020851015610479578190505b61048d610485856101da565b8301826102c3565b50505b505050565b61049e82610134565b67ffffffffffffffff8111156104b7576104b661013e565b5b6104c18254610198565b6104cc82828561044f565b5f60209050601f8311600181146104fd575f84156104eb578287015190505b6104f58582610353565b86555061055c565b601f19841661050b8661043d565b5f5b828110156105325784890151825560018201915060208501945060208101905061050d565b8683101561054f578489015161054b601f891682610337565b8355505b6001600288020188555050505b505050505050565b6104f4806105715f395ff3fe608060405234801561000f575f80fd5b5060043610610060575f3560e01c8063200d2ed214610064578063a2c5e50714610082578063a4311e32146100a0578063b8cdbd22146100be578063dcb49716146100dc578063ee4384a7146100fa575b5f80fd5b61006c610118565b604051610079919061028c565b60405180910390f35b61008a61012a565b60405161009791906102e4565b60405180910390f35b6100a861014f565b6040516100b5919061036d565b60405180910390f35b6100c66101db565b6040516100d391906103df565b60405180910390f35b6100e4610267565b6040516100f19190610417565b60405180910390f35b61010261026c565b60405161010f9190610448565b60405180910390f35b60055f9054906101000a900460ff1681565b60025f9054906101000a900473ffffffffffffffffffffffffffffffffffffffff1681565b6004805461015c9061048e565b80601f01602080910402602001604051908101604052809291908181526020018280546101889061048e565b80156101d35780601f106101aa576101008083540402835291602001916101d3565b820191905f5260205f20905b8154815290600101906020018083116101b657829003601f168201915b505050505081565b600380546101e89061048e565b80601f01602080910402602001604051908101604052809291908181526020018280546102149061048e565b801561025f5780601f106102365761010080835404028352916020019161025f565b820191905f5260205f20905b81548152906001019060200180831161024257829003601f168201915b505050505081565b5f5481565b60015481565b5f8115159050919050565b61028681610272565b82525050565b5f60208201905061029f5f83018461027d565b92915050565b5f73ffffffffffffffffffffffffffffffffffffffff82169050919050565b5f6102ce826102a5565b9050919050565b6102de816102c4565b82525050565b5f6020820190506102f75f8301846102d5565b92915050565b5f81519050919050565b5f82825260208201905092915050565b8281835e5f83830152505050565b5f601f19601f8301169050919050565b5f61033f826102fd565b6103498185610307565b9350610359818560208601610317565b61036281610325565b840191505092915050565b5f6020820190508181035f8301526103858184610335565b905092915050565b5f81519050919050565b5f82825260208201905092915050565b5f6103b18261038d565b6103bb8185610397565b93506103cb818560208601610317565b6103d481610325565b840191505092915050565b5f6020820190508181035f8301526103f781846103a7565b905092915050565b5f819050919050565b610411816103ff565b82525050565b5f60208201905061042a5f830184610408565b92915050565b5f819050919050565b61044281610430565b82525050565b5f60208201905061045b5f830184610439565b92915050565b7f4e487b71000000000000000000000000000000000000000000000000000000005f52602260045260245ffd5b5f60028204905060018216806104a557607f821691505b6020821081036104b8576104b7610461565b5b5091905056fea26469706673582212208d383adbd79394e9c103aad0a274f70389bc757285ff2a77c05f4bbf894234d764736f6c63430008190033",
					"opcodes": "PUSH1 0x80 PUSH1 0x40 MSTORE PUSH32 0xFFFFFFFFFFFFFFFFFFFFFFFFFFFFFFFFFFFFFFFFFFFFFFFFFFFFFFFFFFFFFFFC PUSH0 SSTORE PUSH1 0x4 PUSH1 0x1 SSTORE PUSH20 0x5B38DA6A701C568545DCFCB03FCB875F56BEDDC4 PUSH1 0x2 PUSH0 PUSH2 0x100 EXP DUP2 SLOAD DUP2 PUSH20 0xFFFFFFFFFFFFFFFFFFFFFFFFFFFFFFFFFFFFFFFF MUL NOT AND SWAP1 DUP4 PUSH20 0xFFFFFFFFFFFFFFFFFFFFFFFFFFFFFFFFFFFFFFFF AND MUL OR SWAP1 SSTORE POP PUSH1 0x40 MLOAD DUP1 PUSH1 0x40 ADD PUSH1 0x40 MSTORE DUP1 PUSH1 0xB DUP2 MSTORE PUSH1 0x20 ADD PUSH32 0x42616C6120427275636B73000000000000000000000000000000000000000000 DUP2 MSTORE POP PUSH1 0x3 SWAP1 DUP2 PUSH2 0xC4 SWAP2 SWAP1 PUSH2 0x36E JUMP JUMPDEST POP PUSH1 0x40 MLOAD DUP1 PUSH1 0x40 ADD PUSH1 0x40 MSTORE DUP1 PUSH1 0xB DUP2 MSTORE PUSH1 0x20 ADD PUSH32 0x42616C6120427275636B73000000000000000000000000000000000000000000 DUP2 MSTORE POP PUSH1 0x4 SWAP1 DUP2 PUSH2 0x109 SWAP2 SWAP1 PUSH2 0x495 JUMP JUMPDEST POP PUSH0 PUSH1 0x5 PUSH0 PUSH2 0x100 EXP DUP2 SLOAD DUP2 PUSH1 0xFF MUL NOT AND SWAP1 DUP4 ISZERO ISZERO MUL OR SWAP1 SSTORE POP CALLVALUE DUP1 ISZERO PUSH2 0x12E JUMPI PUSH0 DUP1 REVERT JUMPDEST POP PUSH2 0x564 JUMP JUMPDEST PUSH0 DUP2 MLOAD SWAP1 POP SWAP2 SWAP1 POP JUMP JUMPDEST PUSH32 0x4E487B7100000000000000000000000000000000000000000000000000000000 PUSH0 MSTORE PUSH1 0x41 PUSH1 0x4 MSTORE PUSH1 0x24 PUSH0 REVERT JUMPDEST PUSH32 0x4E487B7100000000000000000000000000000000000000000000000000000000 PUSH0 MSTORE PUSH1 0x22 PUSH1 0x4 MSTORE PUSH1 0x24 PUSH0 REVERT JUMPDEST PUSH0 PUSH1 0x2 DUP3 DIV SWAP1 POP PUSH1 0x1 DUP3 AND DUP1 PUSH2 0x1AF JUMPI PUSH1 0x7F DUP3 AND SWAP2 POP JUMPDEST PUSH1 0x20 DUP3 LT DUP2 SUB PUSH2 0x1C2 JUMPI PUSH2 0x1C1 PUSH2 0x16B JUMP JUMPDEST JUMPDEST POP SWAP2 SWAP1 POP JUMP JUMPDEST PUSH0 DUP2 SWAP1 POP DUP2 PUSH0 MSTORE PUSH1 0x20 PUSH0 KECCAK256 SWAP1 POP SWAP2 SWAP1 POP JUMP JUMPDEST PUSH0 PUSH1 0x20 PUSH1 0x1F DUP4 ADD DIV SWAP1 POP SWAP2 SWAP1 POP JUMP JUMPDEST PUSH0 DUP3 DUP3 SHL SWAP1 POP SWAP3 SWAP2 POP POP JUMP JUMPDEST PUSH0 PUSH1 0x8 DUP4 MUL PUSH2 0x224 PUSH32 0xFFFFFFFFFFFFFFFFFFFFFFFFFFFFFFFFFFFFFFFFFFFFFFFFFFFFFFFFFFFFFFFF DUP3 PUSH2 0x1E9 JUMP JUMPDEST PUSH2 0x22E DUP7 DUP4 PUSH2 0x1E9 JUMP JUMPDEST SWAP6 POP DUP1 NOT DUP5 AND SWAP4 POP DUP1 DUP7 AND DUP5 OR SWAP3 POP POP POP SWAP4 SWAP3 POP POP POP JUMP JUMPDEST PUSH0 DUP2 SWAP1 POP SWAP2 SWAP1 POP JUMP JUMPDEST PUSH0 DUP2 SWAP1 POP SWAP2 SWAP1 POP JUMP JUMPDEST PUSH0 PUSH2 0x272 PUSH2 0x26D PUSH2 0x268 DUP5 PUSH2 0x246 JUMP JUMPDEST PUSH2 0x24F JUMP JUMPDEST PUSH2 0x246 JUMP JUMPDEST SWAP1 POP SWAP2 SWAP1 POP JUMP JUMPDEST PUSH0 DUP2 SWAP1 POP SWAP2 SWAP1 POP JUMP JUMPDEST PUSH2 0x28B DUP4 PUSH2 0x258 JUMP JUMPDEST PUSH2 0x29F PUSH2 0x297 DUP3 PUSH2 0x279 JUMP JUMPDEST DUP5 DUP5 SLOAD PUSH2 0x1F5 JUMP JUMPDEST DUP3 SSTORE POP POP POP POP JUMP JUMPDEST PUSH0 SWAP1 JUMP JUMPDEST PUSH2 0x2B3 PUSH2 0x2A7 JUMP JUMPDEST PUSH2 0x2BE DUP2 DUP5 DUP5 PUSH2 0x282 JUMP JUMPDEST POP POP POP JUMP JUMPDEST JUMPDEST DUP2 DUP2 LT ISZERO PUSH2 0x2E1 JUMPI PUSH2 0x2D6 PUSH0 DUP3 PUSH2 0x2AB JUMP JUMPDEST PUSH1 0x1 DUP2 ADD SWAP1 POP PUSH2 0x2C4 JUMP JUMPDEST POP POP JUMP JUMPDEST PUSH1 0x1F DUP3 GT ISZERO PUSH2 0x326 JUMPI PUSH2 0x2F7 DUP2 PUSH2 0x1C8 JUMP JUMPDEST PUSH2 0x300 DUP5 PUSH2 0x1DA JUMP JUMPDEST DUP2 ADD PUSH1 0x20 DUP6 LT ISZERO PUSH2 0x30F JUMPI DUP2 SWAP1 POP JUMPDEST PUSH2 0x323 PUSH2 0x31B DUP6 PUSH2 0x1DA JUMP JUMPDEST DUP4 ADD DUP3 PUSH2 0x2C3 JUMP JUMPDEST POP POP JUMPDEST POP POP POP JUMP JUMPDEST PUSH0 DUP3 DUP3 SHR SWAP1 POP SWAP3 SWAP2 POP POP JUMP JUMPDEST PUSH0 PUSH2 0x346 PUSH0 NOT DUP5 PUSH1 0x8 MUL PUSH2 0x32B JUMP JUMPDEST NOT DUP1 DUP4 AND SWAP2 POP POP SWAP3 SWAP2 POP POP JUMP JUMPDEST PUSH0 PUSH2 0x35E DUP4 DUP4 PUSH2 0x337 JUMP JUMPDEST SWAP2 POP DUP3 PUSH1 0x2 MUL DUP3 OR SWAP1 POP SWAP3 SWAP2 POP POP JUMP JUMPDEST PUSH2 0x377 DUP3 PUSH2 0x134 JUMP JUMPDEST PUSH8 0xFFFFFFFFFFFFFFFF DUP2 GT ISZERO PUSH2 0x390 JUMPI PUSH2 0x38F PUSH2 0x13E JUMP JUMPDEST JUMPDEST PUSH2 0x39A DUP3 SLOAD PUSH2 0x198 JUMP JUMPDEST PUSH2 0x3A5 DUP3 DUP3 DUP6 PUSH2 0x2E5 JUMP JUMPDEST PUSH0 PUSH1 0x20 SWAP1 POP PUSH1 0x1F DUP4 GT PUSH1 0x1 DUP2 EQ PUSH2 0x3D6 JUMPI PUSH0 DUP5 ISZERO PUSH2 0x3C4 JUMPI DUP3 DUP8 ADD MLOAD SWAP1 POP JUMPDEST PUSH2 0x3CE DUP6 DUP3 PUSH2 0x353 JUMP JUMPDEST DUP7 SSTORE POP PUSH2 0x435 JUMP JUMPDEST PUSH1 0x1F NOT DUP5 AND PUSH2 0x3E4 DUP7 PUSH2 0x1C8 JUMP JUMPDEST PUSH0 JUMPDEST DUP3 DUP2 LT ISZERO PUSH2 0x40B JUMPI DUP5 DUP10 ADD MLOAD DUP3 SSTORE PUSH1 0x1 DUP3 ADD SWAP2 POP PUSH1 0x20 DUP6 ADD SWAP5 POP PUSH1 0x20 DUP2 ADD SWAP1 POP PUSH2 0x3E6 JUMP JUMPDEST DUP7 DUP4 LT ISZERO PUSH2 0x428 JUMPI DUP5 DUP10 ADD MLOAD PUSH2 0x424 PUSH1 0x1F DUP10 AND DUP3 PUSH2 0x337 JUMP JUMPDEST DUP4 SSTORE POP JUMPDEST PUSH1 0x1 PUSH1 0x2 DUP9 MUL ADD DUP9 SSTORE POP POP POP JUMPDEST POP POP POP POP POP POP JUMP JUMPDEST PUSH0 DUP2 SWAP1 POP DUP2 PUSH0 MSTORE PUSH1 0x20 PUSH0 KECCAK256 SWAP1 POP SWAP2 SWAP1 POP JUMP JUMPDEST PUSH1 0x1F DUP3 GT ISZERO PUSH2 0x490 JUMPI PUSH2 0x461 DUP2 PUSH2 0x43D JUMP JUMPDEST PUSH2 0x46A DUP5 PUSH2 0x1DA JUMP JUMPDEST DUP2 ADD PUSH1 0x20 DUP6 LT ISZERO PUSH2 0x479 JUMPI DUP2 SWAP1 POP JUMPDEST PUSH2 0x48D PUSH2 0x485 DUP6 PUSH2 0x1DA JUMP JUMPDEST DUP4 ADD DUP3 PUSH2 0x2C3 JUMP JUMPDEST POP POP JUMPDEST POP POP POP JUMP JUMPDEST PUSH2 0x49E DUP3 PUSH2 0x134 JUMP JUMPDEST PUSH8 0xFFFFFFFFFFFFFFFF DUP2 GT ISZERO PUSH2 0x4B7 JUMPI PUSH2 0x4B6 PUSH2 0x13E JUMP JUMPDEST JUMPDEST PUSH2 0x4C1 DUP3 SLOAD PUSH2 0x198 JUMP JUMPDEST PUSH2 0x4CC DUP3 DUP3 DUP6 PUSH2 0x44F JUMP JUMPDEST PUSH0 PUSH1 0x20 SWAP1 POP PUSH1 0x1F DUP4 GT PUSH1 0x1 DUP2 EQ PUSH2 0x4FD JUMPI PUSH0 DUP5 ISZERO PUSH2 0x4EB JUMPI DUP3 DUP8 ADD MLOAD SWAP1 POP JUMPDEST PUSH2 0x4F5 DUP6 DUP3 PUSH2 0x353 JUMP JUMPDEST DUP7 SSTORE POP PUSH2 0x55C JUMP JUMPDEST PUSH1 0x1F NOT DUP5 AND PUSH2 0x50B DUP7 PUSH2 0x43D JUMP JUMPDEST PUSH0 JUMPDEST DUP3 DUP2 LT ISZERO PUSH2 0x532 JUMPI DUP5 DUP10 ADD MLOAD DUP3 SSTORE PUSH1 0x1 DUP3 ADD SWAP2 POP PUSH1 0x20 DUP6 ADD SWAP5 POP PUSH1 0x20 DUP2 ADD SWAP1 POP PUSH2 0x50D JUMP JUMPDEST DUP7 DUP4 LT ISZERO PUSH2 0x54F JUMPI DUP5 DUP10 ADD MLOAD PUSH2 0x54B PUSH1 0x1F DUP10 AND DUP3 PUSH2 0x337 JUMP JUMPDEST DUP4 SSTORE POP JUMPDEST PUSH1 0x1 PUSH1 0x2 DUP9 MUL ADD DUP9 SSTORE POP POP POP JUMPDEST POP POP POP POP POP POP JUMP JUMPDEST PUSH2 0x4F4 DUP1 PUSH2 0x571 PUSH0 CODECOPY PUSH0 RETURN INVALID PUSH1 0x80 PUSH1 0x40 MSTORE CALLVALUE DUP1 ISZERO PUSH2 0xF JUMPI PUSH0 DUP1 REVERT JUMPDEST POP PUSH1 0x4 CALLDATASIZE LT PUSH2 0x60 JUMPI PUSH0 CALLDATALOAD PUSH1 0xE0 SHR DUP1 PUSH4 0x200D2ED2 EQ PUSH2 0x64 JUMPI DUP1 PUSH4 0xA2C5E507 EQ PUSH2 0x82 JUMPI DUP1 PUSH4 0xA4311E32 EQ PUSH2 0xA0 JUMPI DUP1 PUSH4 0xB8CDBD22 EQ PUSH2 0xBE JUMPI DUP1 PUSH4 0xDCB49716 EQ PUSH2 0xDC JUMPI DUP1 PUSH4 0xEE4384A7 EQ PUSH2 0xFA JUMPI JUMPDEST PUSH0 DUP1 REVERT JUMPDEST PUSH2 0x6C PUSH2 0x118 JUMP JUMPDEST PUSH1 0x40 MLOAD PUSH2 0x79 SWAP2 SWAP1 PUSH2 0x28C JUMP JUMPDEST PUSH1 0x40 MLOAD DUP1 SWAP2 SUB SWAP1 RETURN JUMPDEST PUSH2 0x8A PUSH2 0x12A JUMP JUMPDEST PUSH1 0x40 MLOAD PUSH2 0x97 SWAP2 SWAP1 PUSH2 0x2E4 JUMP JUMPDEST PUSH1 0x40 MLOAD DUP1 SWAP2 SUB SWAP1 RETURN JUMPDEST PUSH2 0xA8 PUSH2 0x14F JUMP JUMPDEST PUSH1 0x40 MLOAD PUSH2 0xB5 SWAP2 SWAP1 PUSH2 0x36D JUMP JUMPDEST PUSH1 0x40 MLOAD DUP1 SWAP2 SUB SWAP1 RETURN JUMPDEST PUSH2 0xC6 PUSH2 0x1DB JUMP JUMPDEST PUSH1 0x40 MLOAD PUSH2 0xD3 SWAP2 SWAP1 PUSH2 0x3DF JUMP JUMPDEST PUSH1 0x40 MLOAD DUP1 SWAP2 SUB SWAP1 RETURN JUMPDEST PUSH2 0xE4 PUSH2 0x267 JUMP JUMPDEST PUSH1 0x40 MLOAD PUSH2 0xF1 SWAP2 SWAP1 PUSH2 0x417 JUMP JUMPDEST PUSH1 0x40 MLOAD DUP1 SWAP2 SUB SWAP1 RETURN JUMPDEST PUSH2 0x102 PUSH2 0x26C JUMP JUMPDEST PUSH1 0x40 MLOAD PUSH2 0x10F SWAP2 SWAP1 PUSH2 0x448 JUMP JUMPDEST PUSH1 0x40 MLOAD DUP1 SWAP2 SUB SWAP1 RETURN JUMPDEST PUSH1 0x5 PUSH0 SWAP1 SLOAD SWAP1 PUSH2 0x100 EXP SWAP1 DIV PUSH1 0xFF AND DUP2 JUMP JUMPDEST PUSH1 0x2 PUSH0 SWAP1 SLOAD SWAP1 PUSH2 0x100 EXP SWAP1 DIV PUSH20 0xFFFFFFFFFFFFFFFFFFFFFFFFFFFFFFFFFFFFFFFF AND DUP2 JUMP JUMPDEST PUSH1 0x4 DUP1 SLOAD PUSH2 0x15C SWAP1 PUSH2 0x48E JUMP JUMPDEST DUP1 PUSH1 0x1F ADD PUSH1 0x20 DUP1 SWAP2 DIV MUL PUSH1 0x20 ADD PUSH1 0x40 MLOAD SWAP1 DUP2 ADD PUSH1 0x40 MSTORE DUP1 SWAP3 SWAP2 SWAP1 DUP2 DUP2 MSTORE PUSH1 0x20 ADD DUP3 DUP1 SLOAD PUSH2 0x188 SWAP1 PUSH2 0x48E JUMP JUMPDEST DUP1 ISZERO PUSH2 0x1D3 JUMPI DUP1 PUSH1 0x1F LT PUSH2 0x1AA JUMPI PUSH2 0x100 DUP1 DUP4 SLOAD DIV MUL DUP4 MSTORE SWAP2 PUSH1 0x20 ADD SWAP2 PUSH2 0x1D3 JUMP JUMPDEST DUP3 ADD SWAP2 SWAP1 PUSH0 MSTORE PUSH1 0x20 PUSH0 KECCAK256 SWAP1 JUMPDEST DUP2 SLOAD DUP2 MSTORE SWAP1 PUSH1 0x1 ADD SWAP1 PUSH1 0x20 ADD DUP1 DUP4 GT PUSH2 0x1B6 JUMPI DUP3 SWAP1 SUB PUSH1 0x1F AND DUP3 ADD SWAP2 JUMPDEST POP POP POP POP POP DUP2 JUMP JUMPDEST PUSH1 0x3 DUP1 SLOAD PUSH2 0x1E8 SWAP1 PUSH2 0x48E JUMP JUMPDEST DUP1 PUSH1 0x1F ADD PUSH1 0x20 DUP1 SWAP2 DIV MUL PUSH1 0x20 ADD PUSH1 0x40 MLOAD SWAP1 DUP2 ADD PUSH1 0x40 MSTORE DUP1 SWAP3 SWAP2 SWAP1 DUP2 DUP2 MSTORE PUSH1 0x20 ADD DUP3 DUP1 SLOAD PUSH2 0x214 SWAP1 PUSH2 0x48E JUMP JUMPDEST DUP1 ISZERO PUSH2 0x25F JUMPI DUP1 PUSH1 0x1F LT PUSH2 0x236 JUMPI PUSH2 0x100 DUP1 DUP4 SLOAD DIV MUL DUP4 MSTORE SWAP2 PUSH1 0x20 ADD SWAP2 PUSH2 0x25F JUMP JUMPDEST DUP3 ADD SWAP2 SWAP1 PUSH0 MSTORE PUSH1 0x20 PUSH0 KECCAK256 SWAP1 JUMPDEST DUP2 SLOAD DUP2 MSTORE SWAP1 PUSH1 0x1 ADD SWAP1 PUSH1 0x20 ADD DUP1 DUP4 GT PUSH2 0x242 JUMPI DUP3 SWAP1 SUB PUSH1 0x1F AND DUP3 ADD SWAP2 JUMPDEST POP POP POP POP POP DUP2 JUMP JUMPDEST PUSH0 SLOAD DUP2 JUMP JUMPDEST PUSH1 0x1 SLOAD DUP2 JUMP JUMPDEST PUSH0 DUP2 ISZERO ISZERO SWAP1 POP SWAP2 SWAP1 POP JUMP JUMPDEST PUSH2 0x286 DUP2 PUSH2 0x272 JUMP JUMPDEST DUP3 MSTORE POP POP JUMP JUMPDEST PUSH0 PUSH1 0x20 DUP3 ADD SWAP1 POP PUSH2 0x29F PUSH0 DUP4 ADD DUP5 PUSH2 0x27D JUMP JUMPDEST SWAP3 SWAP2 POP POP JUMP JUMPDEST PUSH0 PUSH20 0xFFFFFFFFFFFFFFFFFFFFFFFFFFFFFFFFFFFFFFFF DUP3 AND SWAP1 POP SWAP2 SWAP1 POP JUMP JUMPDEST PUSH0 PUSH2 0x2CE DUP3 PUSH2 0x2A5 JUMP JUMPDEST SWAP1 POP SWAP2 SWAP1 POP JUMP JUMPDEST PUSH2 0x2DE DUP2 PUSH2 0x2C4 JUMP JUMPDEST DUP3 MSTORE POP POP JUMP JUMPDEST PUSH0 PUSH1 0x20 DUP3 ADD SWAP1 POP PUSH2 0x2F7 PUSH0 DUP4 ADD DUP5 PUSH2 0x2D5 JUMP JUMPDEST SWAP3 SWAP2 POP POP JUMP JUMPDEST PUSH0 DUP2 MLOAD SWAP1 POP SWAP2 SWAP1 POP JUMP JUMPDEST PUSH0 DUP3 DUP3 MSTORE PUSH1 0x20 DUP3 ADD SWAP1 POP SWAP3 SWAP2 POP POP JUMP JUMPDEST DUP3 DUP2 DUP4 MCOPY PUSH0 DUP4 DUP4 ADD MSTORE POP POP POP JUMP JUMPDEST PUSH0 PUSH1 0x1F NOT PUSH1 0x1F DUP4 ADD AND SWAP1 POP SWAP2 SWAP1 POP JUMP JUMPDEST PUSH0 PUSH2 0x33F DUP3 PUSH2 0x2FD JUMP JUMPDEST PUSH2 0x349 DUP2 DUP6 PUSH2 0x307 JUMP JUMPDEST SWAP4 POP PUSH2 0x359 DUP2 DUP6 PUSH1 0x20 DUP7 ADD PUSH2 0x317 JUMP JUMPDEST PUSH2 0x362 DUP2 PUSH2 0x325 JUMP JUMPDEST DUP5 ADD SWAP2 POP POP SWAP3 SWAP2 POP POP JUMP JUMPDEST PUSH0 PUSH1 0x20 DUP3 ADD SWAP1 POP DUP2 DUP2 SUB PUSH0 DUP4 ADD MSTORE PUSH2 0x385 DUP2 DUP5 PUSH2 0x335 JUMP JUMPDEST SWAP1 POP SWAP3 SWAP2 POP POP JUMP JUMPDEST PUSH0 DUP2 MLOAD SWAP1 POP SWAP2 SWAP1 POP JUMP JUMPDEST PUSH0 DUP3 DUP3 MSTORE PUSH1 0x20 DUP3 ADD SWAP1 POP SWAP3 SWAP2 POP POP JUMP JUMPDEST PUSH0 PUSH2 0x3B1 DUP3 PUSH2 0x38D JUMP JUMPDEST PUSH2 0x3BB DUP2 DUP6 PUSH2 0x397 JUMP JUMPDEST SWAP4 POP PUSH2 0x3CB DUP2 DUP6 PUSH1 0x20 DUP7 ADD PUSH2 0x317 JUMP JUMPDEST PUSH2 0x3D4 DUP2 PUSH2 0x325 JUMP JUMPDEST DUP5 ADD SWAP2 POP POP SWAP3 SWAP2 POP POP JUMP JUMPDEST PUSH0 PUSH1 0x20 DUP3 ADD SWAP1 POP DUP2 DUP2 SUB PUSH0 DUP4 ADD MSTORE PUSH2 0x3F7 DUP2 DUP5 PUSH2 0x3A7 JUMP JUMPDEST SWAP1 POP SWAP3 SWAP2 POP POP JUMP JUMPDEST PUSH0 DUP2 SWAP1 POP SWAP2 SWAP1 POP JUMP JUMPDEST PUSH2 0x411 DUP2 PUSH2 0x3FF JUMP JUMPDEST DUP3 MSTORE POP POP JUMP JUMPDEST PUSH0 PUSH1 0x20 DUP3 ADD SWAP1 POP PUSH2 0x42A PUSH0 DUP4 ADD DUP5 PUSH2 0x408 JUMP JUMPDEST SWAP3 SWAP2 POP POP JUMP JUMPDEST PUSH0 DUP2 SWAP1 POP SWAP2 SWAP1 POP JUMP JUMPDEST PUSH2 0x442 DUP2 PUSH2 0x430 JUMP JUMPDEST DUP3 MSTORE POP POP JUMP JUMPDEST PUSH0 PUSH1 0x20 DUP3 ADD SWAP1 POP PUSH2 0x45B PUSH0 DUP4 ADD DUP5 PUSH2 0x439 JUMP JUMPDEST SWAP3 SWAP2 POP POP JUMP JUMPDEST PUSH32 0x4E487B7100000000000000000000000000000000000000000000000000000000 PUSH0 MSTORE PUSH1 0x22 PUSH1 0x4 MSTORE PUSH1 0x24 PUSH0 REVERT JUMPDEST PUSH0 PUSH1 0x2 DUP3 DIV SWAP1 POP PUSH1 0x1 DUP3 AND DUP1 PUSH2 0x4A5 JUMPI PUSH1 0x7F DUP3 AND SWAP2 POP JUMPDEST PUSH1 0x20 DUP3 LT DUP2 SUB PUSH2 0x4B8 JUMPI PUSH2 0x4B7 PUSH2 0x461 JUMP JUMPDEST JUMPDEST POP SWAP2 SWAP1 POP JUMP INVALID LOG2 PUSH5 0x6970667358 0x22 SLT KECCAK256 DUP14 CODESIZE GASPRICE 0xDB 0xD7 SWAP4 SWAP5 0xE9 0xC1 SUB 0xAA 0xD0 LOG2 PUSH21 0xF70389BC757285FF2A77C05F4BBF894234D764736F PUSH13 0x63430008190033000000000000 "
				},
				"gasEstimates": {
					"creation": {
						"codeDepositCost": "253600",
						"executionCost": "infinite",
						"totalCost": "infinite"
					},
					"external": {
						"integerVar()": "2490",
						"myhome()": "2508",
						"myname()": "infinite",
						"mynameinbytes()": "infinite",
						"status()": "2444",
						"unsignedintegervar()": "2513"
					}
				},
				"methodIdentifiers": {
					"integerVar()": "dcb49716",
					"myhome()": "a2c5e507",
					"myname()": "b8cdbd22",
					"mynameinbytes()": "a4311e32",
					"status()": "200d2ed2",
					"unsignedintegervar()": "ee4384a7"
				}
			},
			"storageLayout": {
				"storage": [
					{
						"astId": 5,
						"contract": "Contracts/Practise.sol:practise",
						"label": "integerVar",
						"offset": 0,
						"slot": "0",
						"type": "t_int256"
					},
					{
						"astId": 8,
						"contract": "Contracts/Practise.sol:practise",
						"label": "unsignedintegervar",
						"offset": 0,
						"slot": "1",
						"type": "t_uint256"
					},
					{
						"astId": 11,
						"contract": "Contracts/Practise.sol:practise",
						"label": "myhome",
						"offset": 0,
						"slot": "2",
						"type": "t_address"
					},
					{
						"astId": 14,
						"contract": "Contracts/Practise.sol:practise",
						"label": "myname",
						"offset": 0,
						"slot": "3",
						"type": "t_string_storage"
					},
					{
						"astId": 17,
						"contract": "Contracts/Practise.sol:practise",
						"label": "mynameinbytes",
						"offset": 0,
						"slot": "4",
						"type": "t_bytes_storage"
					},
					{
						"astId": 20,
						"contract": "Contracts/Practise.sol:practise",
						"label": "status",
						"offset": 0,
						"slot": "5",
						"type": "t_bool"
					}
				],
				"types": {
					"t_address": {
						"encoding": "inplace",
						"label": "address",
						"numberOfBytes": "20"
					},
					"t_bool": {
						"encoding": "inplace",
						"label": "bool",
						"numberOfBytes": "1"
					},
					"t_bytes_storage": {
						"encoding": "bytes",
						"label": "bytes",
						"numberOfBytes": "32"
					},
					"t_int256": {
						"encoding": "inplace",
						"label": "int256",
						"numberOfBytes": "32"
					},
					"t_string_storage": {
						"encoding": "bytes",
						"label": "string",
						"numberOfBytes": "32"
					},
					"t_uint256": {
						"encoding": "inplace",
						"label": "uint256",
						"numberOfBytes": "32"
					}
				}
			},
			"userdoc": {
				"kind": "user",
				"methods": {},
				"version": 1
			}
		}
	}
}