{
	"Contracts/Todostruct.sol": {
		"practise": {
			"abi": [
				{
					"inputs": [
						{
							"internalType": "string",
							"name": "_work",
							"type": "string"
						},
						{
							"internalType": "bool",
							"name": "_status",
							"type": "bool"
						}
					],
					"name": "addWork",
					"outputs": [],
					"stateMutability": "nonpayable",
					"type": "function"
				},
				{
					"inputs": [],
					"name": "getWork",
					"outputs": [
						{
							"internalType": "bool",
							"name": "",
							"type": "bool"
						}
					],
					"stateMutability": "view",
					"type": "function"
				}
			],
			"devdoc": {
				"kind": "dev",
				"methods": {},
				"version": 1
			},
			"evm": {
				"assembly": "    /* \"Contracts/Todostruct.sol\":57:360  contract practise{... */\n  mstore(0x40, 0x80)\n  callvalue\n  dup1\n  iszero\n  tag_1\n  jumpi\n  0x00\n  dup1\n  revert\ntag_1:\n  pop\n  dataSize(sub_0)\n  dup1\n  dataOffset(sub_0)\n  0x00\n  codecopy\n  0x00\n  return\nstop\n\nsub_0: assembly {\n        /* \"Contracts/Todostruct.sol\":57:360  contract practise{... */\n      mstore(0x40, 0x80)\n      callvalue\n      dup1\n      iszero\n      tag_1\n      jumpi\n      0x00\n      dup1\n      revert\n    tag_1:\n      pop\n      jumpi(tag_2, lt(calldatasize, 0x04))\n      shr(0xe0, calldataload(0x00))\n      dup1\n      0x1c26d5cb\n      eq\n      tag_3\n      jumpi\n      dup1\n      0xb5ba2926\n      eq\n      tag_4\n      jumpi\n    tag_2:\n      0x00\n      dup1\n      revert\n        /* \"Contracts/Todostruct.sol\":280:358  function getWork()public view returns(bool){... */\n    tag_3:\n      tag_5\n      tag_6\n      jump\t// in\n    tag_5:\n      mload(0x40)\n      tag_7\n      swap2\n      swap1\n      tag_8\n      jump\t// in\n    tag_7:\n      mload(0x40)\n      dup1\n      swap2\n      sub\n      swap1\n      return\n        /* \"Contracts/Todostruct.sol\":161:275  function addWork(string memory _work,bool _status)public{... */\n    tag_4:\n      tag_9\n      0x04\n      dup1\n      calldatasize\n      sub\n      dup2\n      add\n      swap1\n      tag_10\n      swap2\n      swap1\n      tag_11\n      jump\t// in\n    tag_10:\n      tag_12\n      jump\t// in\n    tag_9:\n      stop\n        /* \"Contracts/Todostruct.sol\":280:358  function getWork()public view returns(bool){... */\n    tag_6:\n        /* \"Contracts/Todostruct.sol\":318:322  bool */\n      0x00\n        /* \"Contracts/Todostruct.sol\":340:344  todo */\n      dup1\n        /* \"Contracts/Todostruct.sol\":340:351  todo.status */\n      0x01\n      add\n      0x00\n      swap1\n      sload\n      swap1\n      0x0100\n      exp\n      swap1\n      div\n      0xff\n      and\n        /* \"Contracts/Todostruct.sol\":333:351  return todo.status */\n      swap1\n      pop\n        /* \"Contracts/Todostruct.sol\":280:358  function getWork()public view returns(bool){... */\n      swap1\n      jump\t// out\n        /* \"Contracts/Todostruct.sol\":161:275  function addWork(string memory _work,bool _status)public{... */\n    tag_12:\n        /* \"Contracts/Todostruct.sol\":234:268  Todo({work:_work, status:_status}) */\n      mload(0x40)\n      dup1\n      0x40\n      add\n      0x40\n      mstore\n      dup1\n        /* \"Contracts/Todostruct.sol\":245:250  _work */\n      dup4\n        /* \"Contracts/Todostruct.sol\":234:268  Todo({work:_work, status:_status}) */\n      dup2\n      mstore\n      0x20\n      add\n        /* \"Contracts/Todostruct.sol\":259:266  _status */\n      dup3\n        /* \"Contracts/Todostruct.sol\":234:268  Todo({work:_work, status:_status}) */\n      iszero\n      iszero\n      dup2\n      mstore\n      pop\n        /* \"Contracts/Todostruct.sol\":227:231  todo */\n      0x00\n        /* \"Contracts/Todostruct.sol\":227:268  todo = Todo({work:_work, status:_status}) */\n      dup1\n      dup3\n      add\n      mload\n      dup2\n      0x00\n      add\n      swap1\n      dup2\n      tag_15\n      swap2\n      swap1\n      tag_16\n      jump\t// in\n    tag_15:\n      pop\n      0x20\n      dup3\n      add\n      mload\n      dup2\n      0x01\n      add\n      exp(0x0100, 0x00)\n      dup2\n      sload\n      dup2\n      0xff\n      mul\n      not\n      and\n      swap1\n      dup4\n      iszero\n      iszero\n      mul\n      or\n      swap1\n      sstore\n      pop\n      swap1\n      pop\n      pop\n        /* \"Contracts/Todostruct.sol\":161:275  function addWork(string memory _work,bool _status)public{... */\n      pop\n      pop\n      jump\t// out\n        /* \"#utility.yul\":7:97   */\n    tag_17:\n        /* \"#utility.yul\":41:48   */\n      0x00\n        /* \"#utility.yul\":84:89   */\n      dup2\n        /* \"#utility.yul\":77:90   */\n      iszero\n        /* \"#utility.yul\":70:91   */\n      iszero\n        /* \"#utility.yul\":59:91   */\n      swap1\n      pop\n        /* \"#utility.yul\":7:97   */\n      swap2\n      swap1\n      pop\n      jump\t// out\n        /* \"#utility.yul\":103:212   */\n    tag_18:\n        /* \"#utility.yul\":184:205   */\n      tag_56\n        /* \"#utility.yul\":199:204   */\n      dup2\n        /* \"#utility.yul\":184:205   */\n      tag_17\n      jump\t// in\n    tag_56:\n        /* \"#utility.yul\":179:182   */\n      dup3\n        /* \"#utility.yul\":172:206   */\n      mstore\n        /* \"#utility.yul\":103:212   */\n      pop\n      pop\n      jump\t// out\n        /* \"#utility.yul\":218:428   */\n    tag_8:\n        /* \"#utility.yul\":305:309   */\n      0x00\n        /* \"#utility.yul\":343:345   */\n      0x20\n        /* \"#utility.yul\":332:341   */\n      dup3\n        /* \"#utility.yul\":328:346   */\n      add\n        /* \"#utility.yul\":320:346   */\n      swap1\n      pop\n        /* \"#utility.yul\":356:421   */\n      tag_58\n        /* \"#utility.yul\":418:419   */\n      0x00\n        /* \"#utility.yul\":407:416   */\n      dup4\n        /* \"#utility.yul\":403:420   */\n      add\n        /* \"#utility.yul\":394:400   */\n      dup5\n        /* \"#utility.yul\":356:421   */\n      tag_18\n      jump\t// in\n    tag_58:\n        /* \"#utility.yul\":218:428   */\n      swap3\n      swap2\n      pop\n      pop\n      jump\t// out\n        /* \"#utility.yul\":434:509   */\n    tag_19:\n        /* \"#utility.yul\":467:473   */\n      0x00\n        /* \"#utility.yul\":500:502   */\n      0x40\n        /* \"#utility.yul\":494:503   */\n      mload\n        /* \"#utility.yul\":484:503   */\n      swap1\n      pop\n        /* \"#utility.yul\":434:509   */\n      swap1\n      jump\t// out\n        /* \"#utility.yul\":515:632   */\n    tag_20:\n        /* \"#utility.yul\":624:625   */\n      0x00\n        /* \"#utility.yul\":621:622   */\n      dup1\n        /* \"#utility.yul\":614:626   */\n      revert\n        /* \"#utility.yul\":638:755   */\n    tag_21:\n        /* \"#utility.yul\":747:748   */\n      0x00\n        /* \"#utility.yul\":744:745   */\n      dup1\n        /* \"#utility.yul\":737:749   */\n      revert\n        /* \"#utility.yul\":761:878   */\n    tag_22:\n        /* \"#utility.yul\":870:871   */\n      0x00\n        /* \"#utility.yul\":867:868   */\n      dup1\n        /* \"#utility.yul\":860:872   */\n      revert\n        /* \"#utility.yul\":884:1001   */\n    tag_23:\n        /* \"#utility.yul\":993:994   */\n      0x00\n        /* \"#utility.yul\":990:991   */\n      dup1\n        /* \"#utility.yul\":983:995   */\n      revert\n        /* \"#utility.yul\":1007:1109   */\n    tag_24:\n        /* \"#utility.yul\":1048:1054   */\n      0x00\n        /* \"#utility.yul\":1099:1101   */\n      0x1f\n        /* \"#utility.yul\":1095:1102   */\n      not\n        /* \"#utility.yul\":1090:1092   */\n      0x1f\n        /* \"#utility.yul\":1083:1088   */\n      dup4\n        /* \"#utility.yul\":1079:1093   */\n      add\n        /* \"#utility.yul\":1075:1103   */\n      and\n        /* \"#utility.yul\":1065:1103   */\n      swap1\n      pop\n        /* \"#utility.yul\":1007:1109   */\n      swap2\n      swap1\n      pop\n      jump\t// out\n        /* \"#utility.yul\":1115:1295   */\n    tag_25:\n        /* \"#utility.yul\":1163:1240   */\n      0x4e487b7100000000000000000000000000000000000000000000000000000000\n        /* \"#utility.yul\":1160:1161   */\n      0x00\n        /* \"#utility.yul\":1153:1241   */\n      mstore\n        /* \"#utility.yul\":1260:1264   */\n      0x41\n        /* \"#utility.yul\":1257:1258   */\n      0x04\n        /* \"#utility.yul\":1250:1265   */\n      mstore\n        /* \"#utility.yul\":1284:1288   */\n      0x24\n        /* \"#utility.yul\":1281:1282   */\n      0x00\n        /* \"#utility.yul\":1274:1289   */\n      revert\n        /* \"#utility.yul\":1301:1582   */\n    tag_26:\n        /* \"#utility.yul\":1384:1411   */\n      tag_67\n        /* \"#utility.yul\":1406:1410   */\n      dup3\n        /* \"#utility.yul\":1384:1411   */\n      tag_24\n      jump\t// in\n    tag_67:\n        /* \"#utility.yul\":1376:1382   */\n      dup2\n        /* \"#utility.yul\":1372:1412   */\n      add\n        /* \"#utility.yul\":1514:1520   */\n      dup2\n        /* \"#utility.yul\":1502:1512   */\n      dup2\n        /* \"#utility.yul\":1499:1521   */\n      lt\n        /* \"#utility.yul\":1478:1496   */\n      0xffffffffffffffff\n        /* \"#utility.yul\":1466:1476   */\n      dup3\n        /* \"#utility.yul\":1463:1497   */\n      gt\n        /* \"#utility.yul\":1460:1522   */\n      or\n        /* \"#utility.yul\":1457:1545   */\n      iszero\n      tag_68\n      jumpi\n        /* \"#utility.yul\":1525:1543   */\n      tag_69\n      tag_25\n      jump\t// in\n    tag_69:\n        /* \"#utility.yul\":1457:1545   */\n    tag_68:\n        /* \"#utility.yul\":1565:1575   */\n      dup1\n        /* \"#utility.yul\":1561:1563   */\n      0x40\n        /* \"#utility.yul\":1554:1576   */\n      mstore\n        /* \"#utility.yul\":1344:1582   */\n      pop\n        /* \"#utility.yul\":1301:1582   */\n      pop\n      pop\n      jump\t// out\n        /* \"#utility.yul\":1588:1717   */\n    tag_27:\n        /* \"#utility.yul\":1622:1628   */\n      0x00\n        /* \"#utility.yul\":1649:1669   */\n      tag_71\n      tag_19\n      jump\t// in\n    tag_71:\n        /* \"#utility.yul\":1639:1669   */\n      swap1\n      pop\n        /* \"#utility.yul\":1678:1711   */\n      tag_72\n        /* \"#utility.yul\":1706:1710   */\n      dup3\n        /* \"#utility.yul\":1698:1704   */\n      dup3\n        /* \"#utility.yul\":1678:1711   */\n      tag_26\n      jump\t// in\n    tag_72:\n        /* \"#utility.yul\":1588:1717   */\n      swap2\n      swap1\n      pop\n      jump\t// out\n        /* \"#utility.yul\":1723:2031   */\n    tag_28:\n        /* \"#utility.yul\":1785:1789   */\n      0x00\n        /* \"#utility.yul\":1875:1893   */\n      0xffffffffffffffff\n        /* \"#utility.yul\":1867:1873   */\n      dup3\n        /* \"#utility.yul\":1864:1894   */\n      gt\n        /* \"#utility.yul\":1861:1917   */\n      iszero\n      tag_74\n      jumpi\n        /* \"#utility.yul\":1897:1915   */\n      tag_75\n      tag_25\n      jump\t// in\n    tag_75:\n        /* \"#utility.yul\":1861:1917   */\n    tag_74:\n        /* \"#utility.yul\":1935:1964   */\n      tag_76\n        /* \"#utility.yul\":1957:1963   */\n      dup3\n        /* \"#utility.yul\":1935:1964   */\n      tag_24\n      jump\t// in\n    tag_76:\n        /* \"#utility.yul\":1927:1964   */\n      swap1\n      pop\n        /* \"#utility.yul\":2019:2023   */\n      0x20\n        /* \"#utility.yul\":2013:2017   */\n      dup2\n        /* \"#utility.yul\":2009:2024   */\n      add\n        /* \"#utility.yul\":2001:2024   */\n      swap1\n      pop\n        /* \"#utility.yul\":1723:2031   */\n      swap2\n      swap1\n      pop\n      jump\t// out\n        /* \"#utility.yul\":2037:2185   */\n    tag_29:\n        /* \"#utility.yul\":2135:2141   */\n      dup3\n        /* \"#utility.yul\":2130:2133   */\n      dup2\n        /* \"#utility.yul\":2125:2128   */\n      dup4\n        /* \"#utility.yul\":2112:2142   */\n      calldatacopy\n        /* \"#utility.yul\":2176:2177   */\n      0x00\n        /* \"#utility.yul\":2167:2173   */\n      dup4\n        /* \"#utility.yul\":2162:2165   */\n      dup4\n        /* \"#utility.yul\":2158:2174   */\n      add\n        /* \"#utility.yul\":2151:2178   */\n      mstore\n        /* \"#utility.yul\":2037:2185   */\n      pop\n      pop\n      pop\n      jump\t// out\n        /* \"#utility.yul\":2191:2616   */\n    tag_30:\n        /* \"#utility.yul\":2269:2274   */\n      0x00\n        /* \"#utility.yul\":2294:2360   */\n      tag_79\n        /* \"#utility.yul\":2310:2359   */\n      tag_80\n        /* \"#utility.yul\":2352:2358   */\n      dup5\n        /* \"#utility.yul\":2310:2359   */\n      tag_28\n      jump\t// in\n    tag_80:\n        /* \"#utility.yul\":2294:2360   */\n      tag_27\n      jump\t// in\n    tag_79:\n        /* \"#utility.yul\":2285:2360   */\n      swap1\n      pop\n        /* \"#utility.yul\":2383:2389   */\n      dup3\n        /* \"#utility.yul\":2376:2381   */\n      dup2\n        /* \"#utility.yul\":2369:2390   */\n      mstore\n        /* \"#utility.yul\":2421:2425   */\n      0x20\n        /* \"#utility.yul\":2414:2419   */\n      dup2\n        /* \"#utility.yul\":2410:2426   */\n      add\n        /* \"#utility.yul\":2459:2462   */\n      dup5\n        /* \"#utility.yul\":2450:2456   */\n      dup5\n        /* \"#utility.yul\":2445:2448   */\n      dup5\n        /* \"#utility.yul\":2441:2457   */\n      add\n        /* \"#utility.yul\":2438:2463   */\n      gt\n        /* \"#utility.yul\":2435:2547   */\n      iszero\n      tag_81\n      jumpi\n        /* \"#utility.yul\":2466:2545   */\n      tag_82\n      tag_23\n      jump\t// in\n    tag_82:\n        /* \"#utility.yul\":2435:2547   */\n    tag_81:\n        /* \"#utility.yul\":2556:2610   */\n      tag_83\n        /* \"#utility.yul\":2603:2609   */\n      dup5\n        /* \"#utility.yul\":2598:2601   */\n      dup3\n        /* \"#utility.yul\":2593:2596   */\n      dup6\n        /* \"#utility.yul\":2556:2610   */\n      tag_29\n      jump\t// in\n    tag_83:\n        /* \"#utility.yul\":2275:2616   */\n      pop\n        /* \"#utility.yul\":2191:2616   */\n      swap4\n      swap3\n      pop\n      pop\n      pop\n      jump\t// out\n        /* \"#utility.yul\":2636:2976   */\n    tag_31:\n        /* \"#utility.yul\":2692:2697   */\n      0x00\n        /* \"#utility.yul\":2741:2744   */\n      dup3\n        /* \"#utility.yul\":2734:2738   */\n      0x1f\n        /* \"#utility.yul\":2726:2732   */\n      dup4\n        /* \"#utility.yul\":2722:2739   */\n      add\n        /* \"#utility.yul\":2718:2745   */\n      slt\n        /* \"#utility.yul\":2708:2830   */\n      tag_85\n      jumpi\n        /* \"#utility.yul\":2749:2828   */\n      tag_86\n      tag_22\n      jump\t// in\n    tag_86:\n        /* \"#utility.yul\":2708:2830   */\n    tag_85:\n        /* \"#utility.yul\":2866:2872   */\n      dup2\n        /* \"#utility.yul\":2853:2873   */\n      calldataload\n        /* \"#utility.yul\":2891:2970   */\n      tag_87\n        /* \"#utility.yul\":2966:2969   */\n      dup5\n        /* \"#utility.yul\":2958:2964   */\n      dup3\n        /* \"#utility.yul\":2951:2955   */\n      0x20\n        /* \"#utility.yul\":2943:2949   */\n      dup7\n        /* \"#utility.yul\":2939:2956   */\n      add\n        /* \"#utility.yul\":2891:2970   */\n      tag_30\n      jump\t// in\n    tag_87:\n        /* \"#utility.yul\":2882:2970   */\n      swap2\n      pop\n        /* \"#utility.yul\":2698:2976   */\n      pop\n        /* \"#utility.yul\":2636:2976   */\n      swap3\n      swap2\n      pop\n      pop\n      jump\t// out\n        /* \"#utility.yul\":2982:3098   */\n    tag_32:\n        /* \"#utility.yul\":3052:3073   */\n      tag_89\n        /* \"#utility.yul\":3067:3072   */\n      dup2\n        /* \"#utility.yul\":3052:3073   */\n      tag_17\n      jump\t// in\n    tag_89:\n        /* \"#utility.yul\":3045:3050   */\n      dup2\n        /* \"#utility.yul\":3042:3074   */\n      eq\n        /* \"#utility.yul\":3032:3092   */\n      tag_90\n      jumpi\n        /* \"#utility.yul\":3088:3089   */\n      0x00\n        /* \"#utility.yul\":3085:3086   */\n      dup1\n        /* \"#utility.yul\":3078:3090   */\n      revert\n        /* \"#utility.yul\":3032:3092   */\n    tag_90:\n        /* \"#utility.yul\":2982:3098   */\n      pop\n      jump\t// out\n        /* \"#utility.yul\":3104:3237   */\n    tag_33:\n        /* \"#utility.yul\":3147:3152   */\n      0x00\n        /* \"#utility.yul\":3185:3191   */\n      dup2\n        /* \"#utility.yul\":3172:3192   */\n      calldataload\n        /* \"#utility.yul\":3163:3192   */\n      swap1\n      pop\n        /* \"#utility.yul\":3201:3231   */\n      tag_92\n        /* \"#utility.yul\":3225:3230   */\n      dup2\n        /* \"#utility.yul\":3201:3231   */\n      tag_32\n      jump\t// in\n    tag_92:\n        /* \"#utility.yul\":3104:3237   */\n      swap3\n      swap2\n      pop\n      pop\n      jump\t// out\n        /* \"#utility.yul\":3243:3891   */\n    tag_11:\n        /* \"#utility.yul\":3318:3324   */\n      0x00\n        /* \"#utility.yul\":3326:3332   */\n      dup1\n        /* \"#utility.yul\":3375:3377   */\n      0x40\n        /* \"#utility.yul\":3363:3372   */\n      dup4\n        /* \"#utility.yul\":3354:3361   */\n      dup6\n        /* \"#utility.yul\":3350:3373   */\n      sub\n        /* \"#utility.yul\":3346:3378   */\n      slt\n        /* \"#utility.yul\":3343:3462   */\n      iszero\n      tag_94\n      jumpi\n        /* \"#utility.yul\":3381:3460   */\n      tag_95\n      tag_20\n      jump\t// in\n    tag_95:\n        /* \"#utility.yul\":3343:3462   */\n    tag_94:\n        /* \"#utility.yul\":3529:3530   */\n      0x00\n        /* \"#utility.yul\":3518:3527   */\n      dup4\n        /* \"#utility.yul\":3514:3531   */\n      add\n        /* \"#utility.yul\":3501:3532   */\n      calldataload\n        /* \"#utility.yul\":3559:3577   */\n      0xffffffffffffffff\n        /* \"#utility.yul\":3551:3557   */\n      dup2\n        /* \"#utility.yul\":3548:3578   */\n      gt\n        /* \"#utility.yul\":3545:3662   */\n      iszero\n      tag_96\n      jumpi\n        /* \"#utility.yul\":3581:3660   */\n      tag_97\n      tag_21\n      jump\t// in\n    tag_97:\n        /* \"#utility.yul\":3545:3662   */\n    tag_96:\n        /* \"#utility.yul\":3686:3749   */\n      tag_98\n        /* \"#utility.yul\":3741:3748   */\n      dup6\n        /* \"#utility.yul\":3732:3738   */\n      dup3\n        /* \"#utility.yul\":3721:3730   */\n      dup7\n        /* \"#utility.yul\":3717:3739   */\n      add\n        /* \"#utility.yul\":3686:3749   */\n      tag_31\n      jump\t// in\n    tag_98:\n        /* \"#utility.yul\":3676:3749   */\n      swap3\n      pop\n        /* \"#utility.yul\":3472:3759   */\n      pop\n        /* \"#utility.yul\":3798:3800   */\n      0x20\n        /* \"#utility.yul\":3824:3874   */\n      tag_99\n        /* \"#utility.yul\":3866:3873   */\n      dup6\n        /* \"#utility.yul\":3857:3863   */\n      dup3\n        /* \"#utility.yul\":3846:3855   */\n      dup7\n        /* \"#utility.yul\":3842:3864   */\n      add\n        /* \"#utility.yul\":3824:3874   */\n      tag_33\n      jump\t// in\n    tag_99:\n        /* \"#utility.yul\":3814:3874   */\n      swap2\n      pop\n        /* \"#utility.yul\":3769:3884   */\n      pop\n        /* \"#utility.yul\":3243:3891   */\n      swap3\n      pop\n      swap3\n      swap1\n      pop\n      jump\t// out\n        /* \"#utility.yul\":3897:3996   */\n    tag_34:\n        /* \"#utility.yul\":3949:3955   */\n      0x00\n        /* \"#utility.yul\":3983:3988   */\n      dup2\n        /* \"#utility.yul\":3977:3989   */\n      mload\n        /* \"#utility.yul\":3967:3989   */\n      swap1\n      pop\n        /* \"#utility.yul\":3897:3996   */\n      swap2\n      swap1\n      pop\n      jump\t// out\n        /* \"#utility.yul\":4002:4182   */\n    tag_35:\n        /* \"#utility.yul\":4050:4127   */\n      0x4e487b7100000000000000000000000000000000000000000000000000000000\n        /* \"#utility.yul\":4047:4048   */\n      0x00\n        /* \"#utility.yul\":4040:4128   */\n      mstore\n        /* \"#utility.yul\":4147:4151   */\n      0x22\n        /* \"#utility.yul\":4144:4145   */\n      0x04\n        /* \"#utility.yul\":4137:4152   */\n      mstore\n        /* \"#utility.yul\":4171:4175   */\n      0x24\n        /* \"#utility.yul\":4168:4169   */\n      0x00\n        /* \"#utility.yul\":4161:4176   */\n      revert\n        /* \"#utility.yul\":4188:4508   */\n    tag_36:\n        /* \"#utility.yul\":4232:4238   */\n      0x00\n        /* \"#utility.yul\":4269:4270   */\n      0x02\n        /* \"#utility.yul\":4263:4267   */\n      dup3\n        /* \"#utility.yul\":4259:4271   */\n      div\n        /* \"#utility.yul\":4249:4271   */\n      swap1\n      pop\n        /* \"#utility.yul\":4316:4317   */\n      0x01\n        /* \"#utility.yul\":4310:4314   */\n      dup3\n        /* \"#utility.yul\":4306:4318   */\n      and\n        /* \"#utility.yul\":4337:4355   */\n      dup1\n        /* \"#utility.yul\":4327:4408   */\n      tag_103\n      jumpi\n        /* \"#utility.yul\":4393:4397   */\n      0x7f\n        /* \"#utility.yul\":4385:4391   */\n      dup3\n        /* \"#utility.yul\":4381:4398   */\n      and\n        /* \"#utility.yul\":4371:4398   */\n      swap2\n      pop\n        /* \"#utility.yul\":4327:4408   */\n    tag_103:\n        /* \"#utility.yul\":4455:4457   */\n      0x20\n        /* \"#utility.yul\":4447:4453   */\n      dup3\n        /* \"#utility.yul\":4444:4458   */\n      lt\n        /* \"#utility.yul\":4424:4442   */\n      dup2\n        /* \"#utility.yul\":4421:4459   */\n      sub\n        /* \"#utility.yul\":4418:4502   */\n      tag_104\n      jumpi\n        /* \"#utility.yul\":4474:4492   */\n      tag_105\n      tag_35\n      jump\t// in\n    tag_105:\n        /* \"#utility.yul\":4418:4502   */\n    tag_104:\n        /* \"#utility.yul\":4239:4508   */\n      pop\n        /* \"#utility.yul\":4188:4508   */\n      swap2\n      swap1\n      pop\n      jump\t// out\n        /* \"#utility.yul\":4514:4655   */\n    tag_37:\n        /* \"#utility.yul\":4563:4567   */\n      0x00\n        /* \"#utility.yul\":4586:4589   */\n      dup2\n        /* \"#utility.yul\":4578:4589   */\n      swap1\n      pop\n        /* \"#utility.yul\":4609:4612   */\n      dup2\n        /* \"#utility.yul\":4606:4607   */\n      0x00\n        /* \"#utility.yul\":4599:4613   */\n      mstore\n        /* \"#utility.yul\":4643:4647   */\n      0x20\n        /* \"#utility.yul\":4640:4641   */\n      0x00\n        /* \"#utility.yul\":4630:4648   */\n      keccak256\n        /* \"#utility.yul\":4622:4648   */\n      swap1\n      pop\n        /* \"#utility.yul\":4514:4655   */\n      swap2\n      swap1\n      pop\n      jump\t// out\n        /* \"#utility.yul\":4661:4754   */\n    tag_38:\n        /* \"#utility.yul\":4698:4704   */\n      0x00\n        /* \"#utility.yul\":4745:4747   */\n      0x20\n        /* \"#utility.yul\":4740:4742   */\n      0x1f\n        /* \"#utility.yul\":4733:4738   */\n      dup4\n        /* \"#utility.yul\":4729:4743   */\n      add\n        /* \"#utility.yul\":4725:4748   */\n      div\n        /* \"#utility.yul\":4715:4748   */\n      swap1\n      pop\n        /* \"#utility.yul\":4661:4754   */\n      swap2\n      swap1\n      pop\n      jump\t// out\n        /* \"#utility.yul\":4760:4867   */\n    tag_39:\n        /* \"#utility.yul\":4804:4812   */\n      0x00\n        /* \"#utility.yul\":4854:4859   */\n      dup3\n        /* \"#utility.yul\":4848:4852   */\n      dup3\n        /* \"#utility.yul\":4844:4860   */\n      shl\n        /* \"#utility.yul\":4823:4860   */\n      swap1\n      pop\n        /* \"#utility.yul\":4760:4867   */\n      swap3\n      swap2\n      pop\n      pop\n      jump\t// out\n        /* \"#utility.yul\":4873:5266   */\n    tag_40:\n        /* \"#utility.yul\":4942:4948   */\n      0x00\n        /* \"#utility.yul\":4992:4993   */\n      0x08\n        /* \"#utility.yul\":4980:4990   */\n      dup4\n        /* \"#utility.yul\":4976:4994   */\n      mul\n        /* \"#utility.yul\":5015:5112   */\n      tag_110\n        /* \"#utility.yul\":5045:5111   */\n      0xffffffffffffffffffffffffffffffffffffffffffffffffffffffffffffffff\n        /* \"#utility.yul\":5034:5043   */\n      dup3\n        /* \"#utility.yul\":5015:5112   */\n      tag_39\n      jump\t// in\n    tag_110:\n        /* \"#utility.yul\":5133:5172   */\n      tag_111\n        /* \"#utility.yul\":5163:5171   */\n      dup7\n        /* \"#utility.yul\":5152:5161   */\n      dup4\n        /* \"#utility.yul\":5133:5172   */\n      tag_39\n      jump\t// in\n    tag_111:\n        /* \"#utility.yul\":5121:5172   */\n      swap6\n      pop\n        /* \"#utility.yul\":5205:5209   */\n      dup1\n        /* \"#utility.yul\":5201:5210   */\n      not\n        /* \"#utility.yul\":5194:5199   */\n      dup5\n        /* \"#utility.yul\":5190:5211   */\n      and\n        /* \"#utility.yul\":5181:5211   */\n      swap4\n      pop\n        /* \"#utility.yul\":5254:5258   */\n      dup1\n        /* \"#utility.yul\":5244:5252   */\n      dup7\n        /* \"#utility.yul\":5240:5259   */\n      and\n        /* \"#utility.yul\":5233:5238   */\n      dup5\n        /* \"#utility.yul\":5230:5260   */\n      or\n        /* \"#utility.yul\":5220:5260   */\n      swap3\n      pop\n        /* \"#utility.yul\":4949:5266   */\n      pop\n      pop\n        /* \"#utility.yul\":4873:5266   */\n      swap4\n      swap3\n      pop\n      pop\n      pop\n      jump\t// out\n        /* \"#utility.yul\":5272:5349   */\n    tag_41:\n        /* \"#utility.yul\":5309:5316   */\n      0x00\n        /* \"#utility.yul\":5338:5343   */\n      dup2\n        /* \"#utility.yul\":5327:5343   */\n      swap1\n      pop\n        /* \"#utility.yul\":5272:5349   */\n      swap2\n      swap1\n      pop\n      jump\t// out\n        /* \"#utility.yul\":5355:5415   */\n    tag_42:\n        /* \"#utility.yul\":5383:5386   */\n      0x00\n        /* \"#utility.yul\":5404:5409   */\n      dup2\n        /* \"#utility.yul\":5397:5409   */\n      swap1\n      pop\n        /* \"#utility.yul\":5355:5415   */\n      swap2\n      swap1\n      pop\n      jump\t// out\n        /* \"#utility.yul\":5421:5563   */\n    tag_43:\n        /* \"#utility.yul\":5471:5480   */\n      0x00\n        /* \"#utility.yul\":5504:5557   */\n      tag_115\n        /* \"#utility.yul\":5522:5556   */\n      tag_116\n        /* \"#utility.yul\":5531:5555   */\n      tag_117\n        /* \"#utility.yul\":5549:5554   */\n      dup5\n        /* \"#utility.yul\":5531:5555   */\n      tag_41\n      jump\t// in\n    tag_117:\n        /* \"#utility.yul\":5522:5556   */\n      tag_42\n      jump\t// in\n    tag_116:\n        /* \"#utility.yul\":5504:5557   */\n      tag_41\n      jump\t// in\n    tag_115:\n        /* \"#utility.yul\":5491:5557   */\n      swap1\n      pop\n        /* \"#utility.yul\":5421:5563   */\n      swap2\n      swap1\n      pop\n      jump\t// out\n        /* \"#utility.yul\":5569:5644   */\n    tag_44:\n        /* \"#utility.yul\":5612:5615   */\n      0x00\n        /* \"#utility.yul\":5633:5638   */\n      dup2\n        /* \"#utility.yul\":5626:5638   */\n      swap1\n      pop\n        /* \"#utility.yul\":5569:5644   */\n      swap2\n      swap1\n      pop\n      jump\t// out\n        /* \"#utility.yul\":5650:5919   */\n    tag_45:\n        /* \"#utility.yul\":5760:5799   */\n      tag_120\n        /* \"#utility.yul\":5791:5798   */\n      dup4\n        /* \"#utility.yul\":5760:5799   */\n      tag_43\n      jump\t// in\n    tag_120:\n        /* \"#utility.yul\":5821:5912   */\n      tag_121\n        /* \"#utility.yul\":5870:5911   */\n      tag_122\n        /* \"#utility.yul\":5894:5910   */\n      dup3\n        /* \"#utility.yul\":5870:5911   */\n      tag_44\n      jump\t// in\n    tag_122:\n        /* \"#utility.yul\":5862:5868   */\n      dup5\n        /* \"#utility.yul\":5855:5859   */\n      dup5\n        /* \"#utility.yul\":5849:5860   */\n      sload\n        /* \"#utility.yul\":5821:5912   */\n      tag_40\n      jump\t// in\n    tag_121:\n        /* \"#utility.yul\":5815:5819   */\n      dup3\n        /* \"#utility.yul\":5808:5913   */\n      sstore\n        /* \"#utility.yul\":5726:5919   */\n      pop\n        /* \"#utility.yul\":5650:5919   */\n      pop\n      pop\n      pop\n      jump\t// out\n        /* \"#utility.yul\":5925:5998   */\n    tag_46:\n        /* \"#utility.yul\":5970:5973   */\n      0x00\n        /* \"#utility.yul\":5925:5998   */\n      swap1\n      jump\t// out\n        /* \"#utility.yul\":6004:6193   */\n    tag_47:\n        /* \"#utility.yul\":6081:6113   */\n      tag_125\n      tag_46\n      jump\t// in\n    tag_125:\n        /* \"#utility.yul\":6122:6187   */\n      tag_126\n        /* \"#utility.yul\":6180:6186   */\n      dup2\n        /* \"#utility.yul\":6172:6178   */\n      dup5\n        /* \"#utility.yul\":6166:6170   */\n      dup5\n        /* \"#utility.yul\":6122:6187   */\n      tag_45\n      jump\t// in\n    tag_126:\n        /* \"#utility.yul\":6057:6193   */\n      pop\n        /* \"#utility.yul\":6004:6193   */\n      pop\n      pop\n      jump\t// out\n        /* \"#utility.yul\":6199:6385   */\n    tag_48:\n        /* \"#utility.yul\":6259:6379   */\n    tag_128:\n        /* \"#utility.yul\":6276:6279   */\n      dup2\n        /* \"#utility.yul\":6269:6274   */\n      dup2\n        /* \"#utility.yul\":6266:6280   */\n      lt\n        /* \"#utility.yul\":6259:6379   */\n      iszero\n      tag_130\n      jumpi\n        /* \"#utility.yul\":6330:6369   */\n      tag_131\n        /* \"#utility.yul\":6367:6368   */\n      0x00\n        /* \"#utility.yul\":6360:6365   */\n      dup3\n        /* \"#utility.yul\":6330:6369   */\n      tag_47\n      jump\t// in\n    tag_131:\n        /* \"#utility.yul\":6303:6304   */\n      0x01\n        /* \"#utility.yul\":6296:6301   */\n      dup2\n        /* \"#utility.yul\":6292:6305   */\n      add\n        /* \"#utility.yul\":6283:6305   */\n      swap1\n      pop\n        /* \"#utility.yul\":6259:6379   */\n      jump(tag_128)\n    tag_130:\n        /* \"#utility.yul\":6199:6385   */\n      pop\n      pop\n      jump\t// out\n        /* \"#utility.yul\":6391:6934   */\n    tag_49:\n        /* \"#utility.yul\":6492:6494   */\n      0x1f\n        /* \"#utility.yul\":6487:6490   */\n      dup3\n        /* \"#utility.yul\":6484:6495   */\n      gt\n        /* \"#utility.yul\":6481:6927   */\n      iszero\n      tag_133\n      jumpi\n        /* \"#utility.yul\":6526:6564   */\n      tag_134\n        /* \"#utility.yul\":6558:6563   */\n      dup2\n        /* \"#utility.yul\":6526:6564   */\n      tag_37\n      jump\t// in\n    tag_134:\n        /* \"#utility.yul\":6610:6639   */\n      tag_135\n        /* \"#utility.yul\":6628:6638   */\n      dup5\n        /* \"#utility.yul\":6610:6639   */\n      tag_38\n      jump\t// in\n    tag_135:\n        /* \"#utility.yul\":6600:6608   */\n      dup2\n        /* \"#utility.yul\":6596:6640   */\n      add\n        /* \"#utility.yul\":6793:6795   */\n      0x20\n        /* \"#utility.yul\":6781:6791   */\n      dup6\n        /* \"#utility.yul\":6778:6796   */\n      lt\n        /* \"#utility.yul\":6775:6824   */\n      iszero\n      tag_136\n      jumpi\n        /* \"#utility.yul\":6814:6822   */\n      dup2\n        /* \"#utility.yul\":6799:6822   */\n      swap1\n      pop\n        /* \"#utility.yul\":6775:6824   */\n    tag_136:\n        /* \"#utility.yul\":6837:6917   */\n      tag_137\n        /* \"#utility.yul\":6893:6915   */\n      tag_138\n        /* \"#utility.yul\":6911:6914   */\n      dup6\n        /* \"#utility.yul\":6893:6915   */\n      tag_38\n      jump\t// in\n    tag_138:\n        /* \"#utility.yul\":6883:6891   */\n      dup4\n        /* \"#utility.yul\":6879:6916   */\n      add\n        /* \"#utility.yul\":6866:6877   */\n      dup3\n        /* \"#utility.yul\":6837:6917   */\n      tag_48\n      jump\t// in\n    tag_137:\n        /* \"#utility.yul\":6496:6927   */\n      pop\n      pop\n        /* \"#utility.yul\":6481:6927   */\n    tag_133:\n        /* \"#utility.yul\":6391:6934   */\n      pop\n      pop\n      pop\n      jump\t// out\n        /* \"#utility.yul\":6940:7057   */\n    tag_50:\n        /* \"#utility.yul\":6994:7002   */\n      0x00\n        /* \"#utility.yul\":7044:7049   */\n      dup3\n        /* \"#utility.yul\":7038:7042   */\n      dup3\n        /* \"#utility.yul\":7034:7050   */\n      shr\n        /* \"#utility.yul\":7013:7050   */\n      swap1\n      pop\n        /* \"#utility.yul\":6940:7057   */\n      swap3\n      swap2\n      pop\n      pop\n      jump\t// out\n        /* \"#utility.yul\":7063:7232   */\n    tag_51:\n        /* \"#utility.yul\":7107:7113   */\n      0x00\n        /* \"#utility.yul\":7140:7191   */\n      tag_141\n        /* \"#utility.yul\":7188:7189   */\n      0x00\n        /* \"#utility.yul\":7184:7190   */\n      not\n        /* \"#utility.yul\":7176:7181   */\n      dup5\n        /* \"#utility.yul\":7173:7174   */\n      0x08\n        /* \"#utility.yul\":7169:7182   */\n      mul\n        /* \"#utility.yul\":7140:7191   */\n      tag_50\n      jump\t// in\n    tag_141:\n        /* \"#utility.yul\":7136:7192   */\n      not\n        /* \"#utility.yul\":7221:7225   */\n      dup1\n        /* \"#utility.yul\":7215:7219   */\n      dup4\n        /* \"#utility.yul\":7211:7226   */\n      and\n        /* \"#utility.yul\":7201:7226   */\n      swap2\n      pop\n        /* \"#utility.yul\":7114:7232   */\n      pop\n        /* \"#utility.yul\":7063:7232   */\n      swap3\n      swap2\n      pop\n      pop\n      jump\t// out\n        /* \"#utility.yul\":7237:7532   */\n    tag_52:\n        /* \"#utility.yul\":7313:7317   */\n      0x00\n        /* \"#utility.yul\":7459:7488   */\n      tag_143\n        /* \"#utility.yul\":7484:7487   */\n      dup4\n        /* \"#utility.yul\":7478:7482   */\n      dup4\n        /* \"#utility.yul\":7459:7488   */\n      tag_51\n      jump\t// in\n    tag_143:\n        /* \"#utility.yul\":7451:7488   */\n      swap2\n      pop\n        /* \"#utility.yul\":7521:7524   */\n      dup3\n        /* \"#utility.yul\":7518:7519   */\n      0x02\n        /* \"#utility.yul\":7514:7525   */\n      mul\n        /* \"#utility.yul\":7508:7512   */\n      dup3\n        /* \"#utility.yul\":7505:7526   */\n      or\n        /* \"#utility.yul\":7497:7526   */\n      swap1\n      pop\n        /* \"#utility.yul\":7237:7532   */\n      swap3\n      swap2\n      pop\n      pop\n      jump\t// out\n        /* \"#utility.yul\":7537:8932   */\n    tag_16:\n        /* \"#utility.yul\":7654:7691   */\n      tag_145\n        /* \"#utility.yul\":7687:7690   */\n      dup3\n        /* \"#utility.yul\":7654:7691   */\n      tag_34\n      jump\t// in\n    tag_145:\n        /* \"#utility.yul\":7756:7774   */\n      0xffffffffffffffff\n        /* \"#utility.yul\":7748:7754   */\n      dup2\n        /* \"#utility.yul\":7745:7775   */\n      gt\n        /* \"#utility.yul\":7742:7798   */\n      iszero\n      tag_146\n      jumpi\n        /* \"#utility.yul\":7778:7796   */\n      tag_147\n      tag_25\n      jump\t// in\n    tag_147:\n        /* \"#utility.yul\":7742:7798   */\n    tag_146:\n        /* \"#utility.yul\":7822:7860   */\n      tag_148\n        /* \"#utility.yul\":7854:7858   */\n      dup3\n        /* \"#utility.yul\":7848:7859   */\n      sload\n        /* \"#utility.yul\":7822:7860   */\n      tag_36\n      jump\t// in\n    tag_148:\n        /* \"#utility.yul\":7907:7974   */\n      tag_149\n        /* \"#utility.yul\":7967:7973   */\n      dup3\n        /* \"#utility.yul\":7959:7965   */\n      dup3\n        /* \"#utility.yul\":7953:7957   */\n      dup6\n        /* \"#utility.yul\":7907:7974   */\n      tag_49\n      jump\t// in\n    tag_149:\n        /* \"#utility.yul\":8001:8002   */\n      0x00\n        /* \"#utility.yul\":8025:8029   */\n      0x20\n        /* \"#utility.yul\":8012:8029   */\n      swap1\n      pop\n        /* \"#utility.yul\":8057:8059   */\n      0x1f\n        /* \"#utility.yul\":8049:8055   */\n      dup4\n        /* \"#utility.yul\":8046:8060   */\n      gt\n        /* \"#utility.yul\":8074:8075   */\n      0x01\n        /* \"#utility.yul\":8069:8687   */\n      dup2\n      eq\n      tag_151\n      jumpi\n        /* \"#utility.yul\":8731:8732   */\n      0x00\n        /* \"#utility.yul\":8748:8754   */\n      dup5\n        /* \"#utility.yul\":8745:8822   */\n      iszero\n      tag_152\n      jumpi\n        /* \"#utility.yul\":8797:8806   */\n      dup3\n        /* \"#utility.yul\":8792:8795   */\n      dup8\n        /* \"#utility.yul\":8788:8807   */\n      add\n        /* \"#utility.yul\":8782:8808   */\n      mload\n        /* \"#utility.yul\":8773:8808   */\n      swap1\n      pop\n        /* \"#utility.yul\":8745:8822   */\n    tag_152:\n        /* \"#utility.yul\":8848:8915   */\n      tag_153\n        /* \"#utility.yul\":8908:8914   */\n      dup6\n        /* \"#utility.yul\":8901:8906   */\n      dup3\n        /* \"#utility.yul\":8848:8915   */\n      tag_52\n      jump\t// in\n    tag_153:\n        /* \"#utility.yul\":8842:8846   */\n      dup7\n        /* \"#utility.yul\":8835:8916   */\n      sstore\n        /* \"#utility.yul\":8704:8926   */\n      pop\n        /* \"#utility.yul\":8039:8926   */\n      jump(tag_150)\n        /* \"#utility.yul\":8069:8687   */\n    tag_151:\n        /* \"#utility.yul\":8121:8125   */\n      0x1f\n        /* \"#utility.yul\":8117:8126   */\n      not\n        /* \"#utility.yul\":8109:8115   */\n      dup5\n        /* \"#utility.yul\":8105:8127   */\n      and\n        /* \"#utility.yul\":8155:8192   */\n      tag_154\n        /* \"#utility.yul\":8187:8191   */\n      dup7\n        /* \"#utility.yul\":8155:8192   */\n      tag_37\n      jump\t// in\n    tag_154:\n        /* \"#utility.yul\":8214:8215   */\n      0x00\n        /* \"#utility.yul\":8228:8436   */\n    tag_155:\n        /* \"#utility.yul\":8242:8249   */\n      dup3\n        /* \"#utility.yul\":8239:8240   */\n      dup2\n        /* \"#utility.yul\":8236:8250   */\n      lt\n        /* \"#utility.yul\":8228:8436   */\n      iszero\n      tag_157\n      jumpi\n        /* \"#utility.yul\":8321:8330   */\n      dup5\n        /* \"#utility.yul\":8316:8319   */\n      dup10\n        /* \"#utility.yul\":8312:8331   */\n      add\n        /* \"#utility.yul\":8306:8332   */\n      mload\n        /* \"#utility.yul\":8298:8304   */\n      dup3\n        /* \"#utility.yul\":8291:8333   */\n      sstore\n        /* \"#utility.yul\":8372:8373   */\n      0x01\n        /* \"#utility.yul\":8364:8370   */\n      dup3\n        /* \"#utility.yul\":8360:8374   */\n      add\n        /* \"#utility.yul\":8350:8374   */\n      swap2\n      pop\n        /* \"#utility.yul\":8419:8421   */\n      0x20\n        /* \"#utility.yul\":8408:8417   */\n      dup6\n        /* \"#utility.yul\":8404:8422   */\n      add\n        /* \"#utility.yul\":8391:8422   */\n      swap5\n      pop\n        /* \"#utility.yul\":8265:8269   */\n      0x20\n        /* \"#utility.yul\":8262:8263   */\n      dup2\n        /* \"#utility.yul\":8258:8270   */\n      add\n        /* \"#utility.yul\":8253:8270   */\n      swap1\n      pop\n        /* \"#utility.yul\":8228:8436   */\n      jump(tag_155)\n    tag_157:\n        /* \"#utility.yul\":8464:8470   */\n      dup7\n        /* \"#utility.yul\":8455:8462   */\n      dup4\n        /* \"#utility.yul\":8452:8471   */\n      lt\n        /* \"#utility.yul\":8449:8628   */\n      iszero\n      tag_158\n      jumpi\n        /* \"#utility.yul\":8522:8531   */\n      dup5\n        /* \"#utility.yul\":8517:8520   */\n      dup10\n        /* \"#utility.yul\":8513:8532   */\n      add\n        /* \"#utility.yul\":8507:8533   */\n      mload\n        /* \"#utility.yul\":8565:8613   */\n      tag_159\n        /* \"#utility.yul\":8607:8611   */\n      0x1f\n        /* \"#utility.yul\":8599:8605   */\n      dup10\n        /* \"#utility.yul\":8595:8612   */\n      and\n        /* \"#utility.yul\":8584:8593   */\n      dup3\n        /* \"#utility.yul\":8565:8613   */\n      tag_51\n      jump\t// in\n    tag_159:\n        /* \"#utility.yul\":8557:8563   */\n      dup4\n        /* \"#utility.yul\":8550:8614   */\n      sstore\n        /* \"#utility.yul\":8472:8628   */\n      pop\n        /* \"#utility.yul\":8449:8628   */\n    tag_158:\n        /* \"#utility.yul\":8674:8675   */\n      0x01\n        /* \"#utility.yul\":8670:8671   */\n      0x02\n        /* \"#utility.yul\":8662:8668   */\n      dup9\n        /* \"#utility.yul\":8658:8672   */\n      mul\n        /* \"#utility.yul\":8654:8676   */\n      add\n        /* \"#utility.yul\":8648:8652   */\n      dup9\n        /* \"#utility.yul\":8641:8677   */\n      sstore\n        /* \"#utility.yul\":8076:8687   */\n      pop\n      pop\n      pop\n        /* \"#utility.yul\":8039:8926   */\n    tag_150:\n      pop\n        /* \"#utility.yul\":7629:8932   */\n      pop\n      pop\n      pop\n        /* \"#utility.yul\":7537:8932   */\n      pop\n      pop\n      jump\t// out\n\n    auxdata: 0xa26469706673582212203af8d9ad5328e35d3f3b93acbc7814d288b1ba1344fcf89a7cc33ce5e6da7f2664736f6c63430008190033\n}\n",
				"bytecode": {
					"linkReferences": {},
					"object": "6080604052348015600e575f80fd5b506105f18061001c5f395ff3fe608060405234801561000f575f80fd5b5060043610610034575f3560e01c80631c26d5cb14610038578063b5ba292614610056575b5f80fd5b610040610072565b60405161004d91906100f5565b60405180910390f35b610070600480360381019061006b9190610285565b610089565b005b5f806001015f9054906101000a900460ff16905090565b60405180604001604052808381526020018215158152505f80820151815f0190816100b491906104ec565b506020820151816001015f6101000a81548160ff0219169083151502179055509050505050565b5f8115159050919050565b6100ef816100db565b82525050565b5f6020820190506101085f8301846100e6565b92915050565b5f604051905090565b5f80fd5b5f80fd5b5f80fd5b5f80fd5b5f601f19601f8301169050919050565b7f4e487b71000000000000000000000000000000000000000000000000000000005f52604160045260245ffd5b61016d82610127565b810181811067ffffffffffffffff8211171561018c5761018b610137565b5b80604052505050565b5f61019e61010e565b90506101aa8282610164565b919050565b5f67ffffffffffffffff8211156101c9576101c8610137565b5b6101d282610127565b9050602081019050919050565b828183375f83830152505050565b5f6101ff6101fa846101af565b610195565b90508281526020810184848401111561021b5761021a610123565b5b6102268482856101df565b509392505050565b5f82601f8301126102425761024161011f565b5b81356102528482602086016101ed565b91505092915050565b610264816100db565b811461026e575f80fd5b50565b5f8135905061027f8161025b565b92915050565b5f806040838503121561029b5761029a610117565b5b5f83013567ffffffffffffffff8111156102b8576102b761011b565b5b6102c48582860161022e565b92505060206102d585828601610271565b9150509250929050565b5f81519050919050565b7f4e487b71000000000000000000000000000000000000000000000000000000005f52602260045260245ffd5b5f600282049050600182168061032d57607f821691505b6020821081036103405761033f6102e9565b5b50919050565b5f819050815f5260205f209050919050565b5f6020601f8301049050919050565b5f82821b905092915050565b5f600883026103a27fffffffffffffffffffffffffffffffffffffffffffffffffffffffffffffffff82610367565b6103ac8683610367565b95508019841693508086168417925050509392505050565b5f819050919050565b5f819050919050565b5f6103f06103eb6103e6846103c4565b6103cd565b6103c4565b9050919050565b5f819050919050565b610409836103d6565b61041d610415826103f7565b848454610373565b825550505050565b5f90565b610431610425565b61043c818484610400565b505050565b5b8181101561045f576104545f82610429565b600181019050610442565b5050565b601f8211156104a45761047581610346565b61047e84610358565b8101602085101561048d578190505b6104a161049985610358565b830182610441565b50505b505050565b5f82821c905092915050565b5f6104c45f19846008026104a9565b1980831691505092915050565b5f6104dc83836104b5565b9150826002028217905092915050565b6104f5826102df565b67ffffffffffffffff81111561050e5761050d610137565b5b6105188254610316565b610523828285610463565b5f60209050601f831160018114610554575f8415610542578287015190505b61054c85826104d1565b8655506105b3565b601f19841661056286610346565b5f5b8281101561058957848901518255600182019150602085019450602081019050610564565b868310156105a657848901516105a2601f8916826104b5565b8355505b6001600288020188555050505b50505050505056fea26469706673582212203af8d9ad5328e35d3f3b93acbc7814d288b1ba1344fcf89a7cc33ce5e6da7f2664736f6c63430008190033",
					"opcodes": "PUSH1 0x80 PUSH1 0x40 MSTORE CALLVALUE DUP1 ISZERO PUSH1 0xE JUMPI PUSH0 DUP1 REVERT JUMPDEST POP PUSH2 0x5F1 DUP1 PUSH2 0x1C PUSH0 CODECOPY PUSH0 RETURN INVALID PUSH1 0x80 PUSH1 0x40 MSTORE CALLVALUE DUP1 ISZERO PUSH2 0xF JUMPI PUSH0 DUP1 REVERT JUMPDEST POP PUSH1 0x4 CALLDATASIZE LT PUSH2 0x34 JUMPI PUSH0 CALLDATALOAD PUSH1 0xE0 SHR DUP1 PUSH4 0x1C26D5CB EQ PUSH2 0x38 JUMPI DUP1 PUSH4 0xB5BA2926 EQ PUSH2 0x56 JUMPI JUMPDEST PUSH0 DUP1 REVERT JUMPDEST PUSH2 0x40 PUSH2 0x72 JUMP JUMPDEST PUSH1 0x40 MLOAD PUSH2 0x4D SWAP2 SWAP1 PUSH2 0xF5 JUMP JUMPDEST PUSH1 0x40 MLOAD DUP1 SWAP2 SUB SWAP1 RETURN JUMPDEST PUSH2 0x70 PUSH1 0x4 DUP1 CALLDATASIZE SUB DUP2 ADD SWAP1 PUSH2 0x6B SWAP2 SWAP1 PUSH2 0x285 JUMP JUMPDEST PUSH2 0x89 JUMP JUMPDEST STOP JUMPDEST PUSH0 DUP1 PUSH1 0x1 ADD PUSH0 SWAP1 SLOAD SWAP1 PUSH2 0x100 EXP SWAP1 DIV PUSH1 0xFF AND SWAP1 POP SWAP1 JUMP JUMPDEST PUSH1 0x40 MLOAD DUP1 PUSH1 0x40 ADD PUSH1 0x40 MSTORE DUP1 DUP4 DUP2 MSTORE PUSH1 0x20 ADD DUP3 ISZERO ISZERO DUP2 MSTORE POP PUSH0 DUP1 DUP3 ADD MLOAD DUP2 PUSH0 ADD SWAP1 DUP2 PUSH2 0xB4 SWAP2 SWAP1 PUSH2 0x4EC JUMP JUMPDEST POP PUSH1 0x20 DUP3 ADD MLOAD DUP2 PUSH1 0x1 ADD PUSH0 PUSH2 0x100 EXP DUP2 SLOAD DUP2 PUSH1 0xFF MUL NOT AND SWAP1 DUP4 ISZERO ISZERO MUL OR SWAP1 SSTORE POP SWAP1 POP POP POP POP JUMP JUMPDEST PUSH0 DUP2 ISZERO ISZERO SWAP1 POP SWAP2 SWAP1 POP JUMP JUMPDEST PUSH2 0xEF DUP2 PUSH2 0xDB JUMP JUMPDEST DUP3 MSTORE POP POP JUMP JUMPDEST PUSH0 PUSH1 0x20 DUP3 ADD SWAP1 POP PUSH2 0x108 PUSH0 DUP4 ADD DUP5 PUSH2 0xE6 JUMP JUMPDEST SWAP3 SWAP2 POP POP JUMP JUMPDEST PUSH0 PUSH1 0x40 MLOAD SWAP1 POP SWAP1 JUMP JUMPDEST PUSH0 DUP1 REVERT JUMPDEST PUSH0 DUP1 REVERT JUMPDEST PUSH0 DUP1 REVERT JUMPDEST PUSH0 DUP1 REVERT JUMPDEST PUSH0 PUSH1 0x1F NOT PUSH1 0x1F DUP4 ADD AND SWAP1 POP SWAP2 SWAP1 POP JUMP JUMPDEST PUSH32 0x4E487B7100000000000000000000000000000000000000000000000000000000 PUSH0 MSTORE PUSH1 0x41 PUSH1 0x4 MSTORE PUSH1 0x24 PUSH0 REVERT JUMPDEST PUSH2 0x16D DUP3 PUSH2 0x127 JUMP JUMPDEST DUP2 ADD DUP2 DUP2 LT PUSH8 0xFFFFFFFFFFFFFFFF DUP3 GT OR ISZERO PUSH2 0x18C JUMPI PUSH2 0x18B PUSH2 0x137 JUMP JUMPDEST JUMPDEST DUP1 PUSH1 0x40 MSTORE POP POP POP JUMP JUMPDEST PUSH0 PUSH2 0x19E PUSH2 0x10E JUMP JUMPDEST SWAP1 POP PUSH2 0x1AA DUP3 DUP3 PUSH2 0x164 JUMP JUMPDEST SWAP2 SWAP1 POP JUMP JUMPDEST PUSH0 PUSH8 0xFFFFFFFFFFFFFFFF DUP3 GT ISZERO PUSH2 0x1C9 JUMPI PUSH2 0x1C8 PUSH2 0x137 JUMP JUMPDEST JUMPDEST PUSH2 0x1D2 DUP3 PUSH2 0x127 JUMP JUMPDEST SWAP1 POP PUSH1 0x20 DUP2 ADD SWAP1 POP SWAP2 SWAP1 POP JUMP JUMPDEST DUP3 DUP2 DUP4 CALLDATACOPY PUSH0 DUP4 DUP4 ADD MSTORE POP POP POP JUMP JUMPDEST PUSH0 PUSH2 0x1FF PUSH2 0x1FA DUP5 PUSH2 0x1AF JUMP JUMPDEST PUSH2 0x195 JUMP JUMPDEST SWAP1 POP DUP3 DUP2 MSTORE PUSH1 0x20 DUP2 ADD DUP5 DUP5 DUP5 ADD GT ISZERO PUSH2 0x21B JUMPI PUSH2 0x21A PUSH2 0x123 JUMP JUMPDEST JUMPDEST PUSH2 0x226 DUP5 DUP3 DUP6 PUSH2 0x1DF JUMP JUMPDEST POP SWAP4 SWAP3 POP POP POP JUMP JUMPDEST PUSH0 DUP3 PUSH1 0x1F DUP4 ADD SLT PUSH2 0x242 JUMPI PUSH2 0x241 PUSH2 0x11F JUMP JUMPDEST JUMPDEST DUP2 CALLDATALOAD PUSH2 0x252 DUP5 DUP3 PUSH1 0x20 DUP7 ADD PUSH2 0x1ED JUMP JUMPDEST SWAP2 POP POP SWAP3 SWAP2 POP POP JUMP JUMPDEST PUSH2 0x264 DUP2 PUSH2 0xDB JUMP JUMPDEST DUP2 EQ PUSH2 0x26E JUMPI PUSH0 DUP1 REVERT JUMPDEST POP JUMP JUMPDEST PUSH0 DUP2 CALLDATALOAD SWAP1 POP PUSH2 0x27F DUP2 PUSH2 0x25B JUMP JUMPDEST SWAP3 SWAP2 POP POP JUMP JUMPDEST PUSH0 DUP1 PUSH1 0x40 DUP4 DUP6 SUB SLT ISZERO PUSH2 0x29B JUMPI PUSH2 0x29A PUSH2 0x117 JUMP JUMPDEST JUMPDEST PUSH0 DUP4 ADD CALLDATALOAD PUSH8 0xFFFFFFFFFFFFFFFF DUP2 GT ISZERO PUSH2 0x2B8 JUMPI PUSH2 0x2B7 PUSH2 0x11B JUMP JUMPDEST JUMPDEST PUSH2 0x2C4 DUP6 DUP3 DUP7 ADD PUSH2 0x22E JUMP JUMPDEST SWAP3 POP POP PUSH1 0x20 PUSH2 0x2D5 DUP6 DUP3 DUP7 ADD PUSH2 0x271 JUMP JUMPDEST SWAP2 POP POP SWAP3 POP SWAP3 SWAP1 POP JUMP JUMPDEST PUSH0 DUP2 MLOAD SWAP1 POP SWAP2 SWAP1 POP JUMP JUMPDEST PUSH32 0x4E487B7100000000000000000000000000000000000000000000000000000000 PUSH0 MSTORE PUSH1 0x22 PUSH1 0x4 MSTORE PUSH1 0x24 PUSH0 REVERT JUMPDEST PUSH0 PUSH1 0x2 DUP3 DIV SWAP1 POP PUSH1 0x1 DUP3 AND DUP1 PUSH2 0x32D JUMPI PUSH1 0x7F DUP3 AND SWAP2 POP JUMPDEST PUSH1 0x20 DUP3 LT DUP2 SUB PUSH2 0x340 JUMPI PUSH2 0x33F PUSH2 0x2E9 JUMP JUMPDEST JUMPDEST POP SWAP2 SWAP1 POP JUMP JUMPDEST PUSH0 DUP2 SWAP1 POP DUP2 PUSH0 MSTORE PUSH1 0x20 PUSH0 KECCAK256 SWAP1 POP SWAP2 SWAP1 POP JUMP JUMPDEST PUSH0 PUSH1 0x20 PUSH1 0x1F DUP4 ADD DIV SWAP1 POP SWAP2 SWAP1 POP JUMP JUMPDEST PUSH0 DUP3 DUP3 SHL SWAP1 POP SWAP3 SWAP2 POP POP JUMP JUMPDEST PUSH0 PUSH1 0x8 DUP4 MUL PUSH2 0x3A2 PUSH32 0xFFFFFFFFFFFFFFFFFFFFFFFFFFFFFFFFFFFFFFFFFFFFFFFFFFFFFFFFFFFFFFFF DUP3 PUSH2 0x367 JUMP JUMPDEST PUSH2 0x3AC DUP7 DUP4 PUSH2 0x367 JUMP JUMPDEST SWAP6 POP DUP1 NOT DUP5 AND SWAP4 POP DUP1 DUP7 AND DUP5 OR SWAP3 POP POP POP SWAP4 SWAP3 POP POP POP JUMP JUMPDEST PUSH0 DUP2 SWAP1 POP SWAP2 SWAP1 POP JUMP JUMPDEST PUSH0 DUP2 SWAP1 POP SWAP2 SWAP1 POP JUMP JUMPDEST PUSH0 PUSH2 0x3F0 PUSH2 0x3EB PUSH2 0x3E6 DUP5 PUSH2 0x3C4 JUMP JUMPDEST PUSH2 0x3CD JUMP JUMPDEST PUSH2 0x3C4 JUMP JUMPDEST SWAP1 POP SWAP2 SWAP1 POP JUMP JUMPDEST PUSH0 DUP2 SWAP1 POP SWAP2 SWAP1 POP JUMP JUMPDEST PUSH2 0x409 DUP4 PUSH2 0x3D6 JUMP JUMPDEST PUSH2 0x41D PUSH2 0x415 DUP3 PUSH2 0x3F7 JUMP JUMPDEST DUP5 DUP5 SLOAD PUSH2 0x373 JUMP JUMPDEST DUP3 SSTORE POP POP POP POP JUMP JUMPDEST PUSH0 SWAP1 JUMP JUMPDEST PUSH2 0x431 PUSH2 0x425 JUMP JUMPDEST PUSH2 0x43C DUP2 DUP5 DUP5 PUSH2 0x400 JUMP JUMPDEST POP POP POP JUMP JUMPDEST JUMPDEST DUP2 DUP2 LT ISZERO PUSH2 0x45F JUMPI PUSH2 0x454 PUSH0 DUP3 PUSH2 0x429 JUMP JUMPDEST PUSH1 0x1 DUP2 ADD SWAP1 POP PUSH2 0x442 JUMP JUMPDEST POP POP JUMP JUMPDEST PUSH1 0x1F DUP3 GT ISZERO PUSH2 0x4A4 JUMPI PUSH2 0x475 DUP2 PUSH2 0x346 JUMP JUMPDEST PUSH2 0x47E DUP5 PUSH2 0x358 JUMP JUMPDEST DUP2 ADD PUSH1 0x20 DUP6 LT ISZERO PUSH2 0x48D JUMPI DUP2 SWAP1 POP JUMPDEST PUSH2 0x4A1 PUSH2 0x499 DUP6 PUSH2 0x358 JUMP JUMPDEST DUP4 ADD DUP3 PUSH2 0x441 JUMP JUMPDEST POP POP JUMPDEST POP POP POP JUMP JUMPDEST PUSH0 DUP3 DUP3 SHR SWAP1 POP SWAP3 SWAP2 POP POP JUMP JUMPDEST PUSH0 PUSH2 0x4C4 PUSH0 NOT DUP5 PUSH1 0x8 MUL PUSH2 0x4A9 JUMP JUMPDEST NOT DUP1 DUP4 AND SWAP2 POP POP SWAP3 SWAP2 POP POP JUMP JUMPDEST PUSH0 PUSH2 0x4DC DUP4 DUP4 PUSH2 0x4B5 JUMP JUMPDEST SWAP2 POP DUP3 PUSH1 0x2 MUL DUP3 OR SWAP1 POP SWAP3 SWAP2 POP POP JUMP JUMPDEST PUSH2 0x4F5 DUP3 PUSH2 0x2DF JUMP JUMPDEST PUSH8 0xFFFFFFFFFFFFFFFF DUP2 GT ISZERO PUSH2 0x50E JUMPI PUSH2 0x50D PUSH2 0x137 JUMP JUMPDEST JUMPDEST PUSH2 0x518 DUP3 SLOAD PUSH2 0x316 JUMP JUMPDEST PUSH2 0x523 DUP3 DUP3 DUP6 PUSH2 0x463 JUMP JUMPDEST PUSH0 PUSH1 0x20 SWAP1 POP PUSH1 0x1F DUP4 GT PUSH1 0x1 DUP2 EQ PUSH2 0x554 JUMPI PUSH0 DUP5 ISZERO PUSH2 0x542 JUMPI DUP3 DUP8 ADD MLOAD SWAP1 POP JUMPDEST PUSH2 0x54C DUP6 DUP3 PUSH2 0x4D1 JUMP JUMPDEST DUP7 SSTORE POP PUSH2 0x5B3 JUMP JUMPDEST PUSH1 0x1F NOT DUP5 AND PUSH2 0x562 DUP7 PUSH2 0x346 JUMP JUMPDEST PUSH0 JUMPDEST DUP3 DUP2 LT ISZERO PUSH2 0x589 JUMPI DUP5 DUP10 ADD MLOAD DUP3 SSTORE PUSH1 0x1 DUP3 ADD SWAP2 POP PUSH1 0x20 DUP6 ADD SWAP5 POP PUSH1 0x20 DUP2 ADD SWAP1 POP PUSH2 0x564 JUMP JUMPDEST DUP7 DUP4 LT ISZERO PUSH2 0x5A6 JUMPI DUP5 DUP10 ADD MLOAD PUSH2 0x5A2 PUSH1 0x1F DUP10 AND DUP3 PUSH2 0x4B5 JUMP JUMPDEST DUP4 SSTORE POP JUMPDEST PUSH1 0x1 PUSH1 0x2 DUP9 MUL ADD DUP9 SSTORE POP POP POP JUMPDEST POP POP POP POP POP POP JUMP INVALID LOG2 PUSH5 0x6970667358 0x22 SLT KECCAK256 GASPRICE 0xF8 0xD9 0xAD MSTORE8 0x28 0xE3 TSTORE EXTCODEHASH EXTCODESIZE SWAP4 0xAC 0xBC PUSH25 0x14D288B1BA1344FCF89A7CC33CE5E6DA7F2664736F6C634300 ADDMOD NOT STOP CALLER "
				},
				"gasEstimates": {
					"creation": {
						"codeDepositCost": "304200",
						"executionCost": "341",
						"totalCost": "304541"
					},
					"external": {
						"addWork(string,bool)": "infinite",
						"getWork()": "2457"
					}
				},
				"methodIdentifiers": {
					"addWork(string,bool)": "b5ba2926",
					"getWork()": "1c26d5cb"
				}
			},
			"storageLayout": {
				"storage": [
					{
						"astId": 9,
						"contract": "Contracts/Todostruct.sol:practise",
						"label": "todo",
						"offset": 0,
						"slot": "0",
						"type": "t_struct(Todo)6_storage"
					}
				],
				"types": {
					"t_bool": {
						"encoding": "inplace",
						"label": "bool",
						"numberOfBytes": "1"
					},
					"t_string_storage": {
						"encoding": "bytes",
						"label": "string",
						"numberOfBytes": "32"
					},
					"t_struct(Todo)6_storage": {
						"encoding": "inplace",
						"label": "struct practise.Todo",
						"members": [
							{
								"astId": 3,
								"contract": "Contracts/Todostruct.sol:practise",
								"label": "work",
								"offset": 0,
								"slot": "0",
								"type": "t_string_storage"
							},
							{
								"astId": 5,
								"contract": "Contracts/Todostruct.sol:practise",
								"label": "status",
								"offset": 0,
								"slot": "1",
								"type": "t_bool"
							}
						],
						"numberOfBytes": "64"
					}
				}
			},
			"userdoc": {
				"kind": "user",
				"methods": {},
				"version": 1
			}
		}
	}
}