{
	"Contracts/OOPS/Inheritance.sol": {
		"contract3": {
			"abi": [
				{
					"inputs": [],
					"name": "c1function",
					"outputs": [
						{
							"internalType": "string",
							"name": "",
							"type": "string"
						}
					],
					"stateMutability": "pure",
					"type": "function"
				},
				{
					"inputs": [],
					"name": "c2function",
					"outputs": [
						{
							"internalType": "string",
							"name": "",
							"type": "string"
						}
					],
					"stateMutability": "pure",
					"type": "function"
				},
				{
					"inputs": [],
					"name": "c3function",
					"outputs": [
						{
							"internalType": "string",
							"name": "",
							"type": "string"
						}
					],
					"stateMutability": "pure",
					"type": "function"
				}
			],
			"devdoc": {
				"kind": "dev",
				"methods": {},
				"version": 1
			},
			"evm": {
				"assembly": "    /* \"Contracts/OOPS/Inheritance.sol\":387:801  contract contract3 is contract2{... */\n  mstore(0x40, 0x80)\n  callvalue\n  dup1\n  iszero\n  tag_1\n  jumpi\n  0x00\n  dup1\n  revert\ntag_1:\n  pop\n  dataSize(sub_0)\n  dup1\n  dataOffset(sub_0)\n  0x00\n  codecopy\n  0x00\n  return\nstop\n\nsub_0: assembly {\n        /* \"Contracts/OOPS/Inheritance.sol\":387:801  contract contract3 is contract2{... */\n      mstore(0x40, 0x80)\n      callvalue\n      dup1\n      iszero\n      tag_1\n      jumpi\n      0x00\n      dup1\n      revert\n    tag_1:\n      pop\n      jumpi(tag_2, lt(calldatasize, 0x04))\n      shr(0xe0, calldataload(0x00))\n      dup1\n      0x64dc8874\n      eq\n      tag_3\n      jumpi\n      dup1\n      0x66ae5282\n      eq\n      tag_4\n      jumpi\n      dup1\n      0x9e7a2a9c\n      eq\n      tag_5\n      jumpi\n    tag_2:\n      0x00\n      dup1\n      revert\n        /* \"Contracts/OOPS/Inheritance.sol\":424:799  function c3function() public pure returns(string memory){... */\n    tag_3:\n      tag_6\n      tag_7\n      jump\t// in\n    tag_6:\n      mload(0x40)\n      tag_8\n      swap2\n      swap1\n      tag_9\n      jump\t// in\n    tag_8:\n      mload(0x40)\n      dup1\n      swap2\n      sub\n      swap1\n      return\n        /* \"Contracts/OOPS/Inheritance.sol\":82:211  function c1function() public pure returns(string memory){... */\n    tag_4:\n      tag_10\n      tag_11\n      jump\t// in\n    tag_10:\n      mload(0x40)\n      tag_12\n      swap2\n      swap1\n      tag_9\n      jump\t// in\n    tag_12:\n      mload(0x40)\n      dup1\n      swap2\n      sub\n      swap1\n      return\n        /* \"Contracts/OOPS/Inheritance.sol\":252:383  function c2function() public pure returns(string memory){... */\n    tag_5:\n      tag_13\n      tag_14\n      jump\t// in\n    tag_13:\n      mload(0x40)\n      tag_15\n      swap2\n      swap1\n      tag_9\n      jump\t// in\n    tag_15:\n      mload(0x40)\n      dup1\n      swap2\n      sub\n      swap1\n      return\n        /* \"Contracts/OOPS/Inheritance.sol\":424:799  function c3function() public pure returns(string memory){... */\n    tag_7:\n        /* \"Contracts/OOPS/Inheritance.sol\":466:479  string memory */\n      0x60\n        /* \"Contracts/OOPS/Inheritance.sol\":529:551  string memory c1output */\n      0x00\n        /* \"Contracts/OOPS/Inheritance.sol\":554:566  c1function() */\n      tag_17\n        /* \"Contracts/OOPS/Inheritance.sol\":554:564  c1function */\n      tag_11\n        /* \"Contracts/OOPS/Inheritance.sol\":554:566  c1function() */\n      jump\t// in\n    tag_17:\n        /* \"Contracts/OOPS/Inheritance.sol\":529:566  string memory c1output = c1function() */\n      swap1\n      pop\n        /* \"Contracts/OOPS/Inheritance.sol\":598:620  string memory c2output */\n      0x00\n        /* \"Contracts/OOPS/Inheritance.sol\":623:635  c2function() */\n      tag_18\n        /* \"Contracts/OOPS/Inheritance.sol\":623:633  c2function */\n      tag_14\n        /* \"Contracts/OOPS/Inheritance.sol\":623:635  c2function() */\n      jump\t// in\n    tag_18:\n        /* \"Contracts/OOPS/Inheritance.sol\":598:635  string memory c2output = c2function() */\n      swap1\n      pop\n        /* \"Contracts/OOPS/Inheritance.sol\":742:750  c1output */\n      dup2\n        /* \"Contracts/OOPS/Inheritance.sol\":754:762  c2output */\n      dup2\n        /* \"Contracts/OOPS/Inheritance.sol\":725:781  abi.encodePacked(c1output,\"\",c2output, \"I am Contract3\") */\n      add(0x20, mload(0x40))\n      tag_19\n      swap3\n      swap2\n      swap1\n      tag_20\n      jump\t// in\n    tag_19:\n      mload(0x40)\n      0x20\n      dup2\n      dup4\n      sub\n      sub\n      dup2\n      mstore\n      swap1\n      0x40\n      mstore\n        /* \"Contracts/OOPS/Inheritance.sol\":710:782  return string (abi.encodePacked(c1output,\"\",c2output, \"I am Contract3\")) */\n      swap3\n      pop\n      pop\n      pop\n        /* \"Contracts/OOPS/Inheritance.sol\":424:799  function c3function() public pure returns(string memory){... */\n      swap1\n      jump\t// out\n        /* \"Contracts/OOPS/Inheritance.sol\":82:211  function c1function() public pure returns(string memory){... */\n    tag_11:\n        /* \"Contracts/OOPS/Inheritance.sol\":124:137  string memory */\n      0x60\n        /* \"Contracts/OOPS/Inheritance.sol\":148:165  string memory str */\n      0x00\n        /* \"Contracts/OOPS/Inheritance.sol\":148:184  string memory str = \"Iam Contract 1\" */\n      mload(0x40)\n      dup1\n      0x40\n      add\n      0x40\n      mstore\n      dup1\n      0x0e\n      dup2\n      mstore\n      0x20\n      add\n      0x49616d20436f6e74726163742031000000000000000000000000000000000000\n      dup2\n      mstore\n      pop\n      swap1\n      pop\n        /* \"Contracts/OOPS/Inheritance.sol\":201:204  str */\n      dup1\n        /* \"Contracts/OOPS/Inheritance.sol\":194:204  return str */\n      swap2\n      pop\n      pop\n        /* \"Contracts/OOPS/Inheritance.sol\":82:211  function c1function() public pure returns(string memory){... */\n      swap1\n      jump\t// out\n        /* \"Contracts/OOPS/Inheritance.sol\":252:383  function c2function() public pure returns(string memory){... */\n    tag_14:\n        /* \"Contracts/OOPS/Inheritance.sol\":294:307  string memory */\n      0x60\n        /* \"Contracts/OOPS/Inheritance.sol\":318:335  string memory str */\n      0x00\n        /* \"Contracts/OOPS/Inheritance.sol\":318:355  string memory str = \"I am Contract 2\" */\n      mload(0x40)\n      dup1\n      0x40\n      add\n      0x40\n      mstore\n      dup1\n      0x0f\n      dup2\n      mstore\n      0x20\n      add\n      0x4920616d20436f6e747261637420320000000000000000000000000000000000\n      dup2\n      mstore\n      pop\n      swap1\n      pop\n        /* \"Contracts/OOPS/Inheritance.sol\":372:375  str */\n      dup1\n        /* \"Contracts/OOPS/Inheritance.sol\":365:375  return str */\n      swap2\n      pop\n      pop\n        /* \"Contracts/OOPS/Inheritance.sol\":252:383  function c2function() public pure returns(string memory){... */\n      swap1\n      jump\t// out\n        /* \"#utility.yul\":7:106   */\n    tag_23:\n        /* \"#utility.yul\":59:65   */\n      0x00\n        /* \"#utility.yul\":93:98   */\n      dup2\n        /* \"#utility.yul\":87:99   */\n      mload\n        /* \"#utility.yul\":77:99   */\n      swap1\n      pop\n        /* \"#utility.yul\":7:106   */\n      swap2\n      swap1\n      pop\n      jump\t// out\n        /* \"#utility.yul\":112:281   */\n    tag_24:\n        /* \"#utility.yul\":196:207   */\n      0x00\n        /* \"#utility.yul\":230:236   */\n      dup3\n        /* \"#utility.yul\":225:228   */\n      dup3\n        /* \"#utility.yul\":218:237   */\n      mstore\n        /* \"#utility.yul\":270:274   */\n      0x20\n        /* \"#utility.yul\":265:268   */\n      dup3\n        /* \"#utility.yul\":261:275   */\n      add\n        /* \"#utility.yul\":246:275   */\n      swap1\n      pop\n        /* \"#utility.yul\":112:281   */\n      swap3\n      swap2\n      pop\n      pop\n      jump\t// out\n        /* \"#utility.yul\":287:426   */\n    tag_25:\n        /* \"#utility.yul\":376:382   */\n      dup3\n        /* \"#utility.yul\":371:374   */\n      dup2\n        /* \"#utility.yul\":366:369   */\n      dup4\n        /* \"#utility.yul\":360:383   */\n      mcopy\n        /* \"#utility.yul\":417:418   */\n      0x00\n        /* \"#utility.yul\":408:414   */\n      dup4\n        /* \"#utility.yul\":403:406   */\n      dup4\n        /* \"#utility.yul\":399:415   */\n      add\n        /* \"#utility.yul\":392:419   */\n      mstore\n        /* \"#utility.yul\":287:426   */\n      pop\n      pop\n      pop\n      jump\t// out\n        /* \"#utility.yul\":432:534   */\n    tag_26:\n        /* \"#utility.yul\":473:479   */\n      0x00\n        /* \"#utility.yul\":524:526   */\n      0x1f\n        /* \"#utility.yul\":520:527   */\n      not\n        /* \"#utility.yul\":515:517   */\n      0x1f\n        /* \"#utility.yul\":508:513   */\n      dup4\n        /* \"#utility.yul\":504:518   */\n      add\n        /* \"#utility.yul\":500:528   */\n      and\n        /* \"#utility.yul\":490:528   */\n      swap1\n      pop\n        /* \"#utility.yul\":432:534   */\n      swap2\n      swap1\n      pop\n      jump\t// out\n        /* \"#utility.yul\":540:917   */\n    tag_27:\n        /* \"#utility.yul\":628:631   */\n      0x00\n        /* \"#utility.yul\":656:695   */\n      tag_40\n        /* \"#utility.yul\":689:694   */\n      dup3\n        /* \"#utility.yul\":656:695   */\n      tag_23\n      jump\t// in\n    tag_40:\n        /* \"#utility.yul\":711:782   */\n      tag_41\n        /* \"#utility.yul\":775:781   */\n      dup2\n        /* \"#utility.yul\":770:773   */\n      dup6\n        /* \"#utility.yul\":711:782   */\n      tag_24\n      jump\t// in\n    tag_41:\n        /* \"#utility.yul\":704:782   */\n      swap4\n      pop\n        /* \"#utility.yul\":791:856   */\n      tag_42\n        /* \"#utility.yul\":849:855   */\n      dup2\n        /* \"#utility.yul\":844:847   */\n      dup6\n        /* \"#utility.yul\":837:841   */\n      0x20\n        /* \"#utility.yul\":830:835   */\n      dup7\n        /* \"#utility.yul\":826:842   */\n      add\n        /* \"#utility.yul\":791:856   */\n      tag_25\n      jump\t// in\n    tag_42:\n        /* \"#utility.yul\":881:910   */\n      tag_43\n        /* \"#utility.yul\":903:909   */\n      dup2\n        /* \"#utility.yul\":881:910   */\n      tag_26\n      jump\t// in\n    tag_43:\n        /* \"#utility.yul\":876:879   */\n      dup5\n        /* \"#utility.yul\":872:911   */\n      add\n        /* \"#utility.yul\":865:911   */\n      swap2\n      pop\n        /* \"#utility.yul\":632:917   */\n      pop\n        /* \"#utility.yul\":540:917   */\n      swap3\n      swap2\n      pop\n      pop\n      jump\t// out\n        /* \"#utility.yul\":923:1236   */\n    tag_9:\n        /* \"#utility.yul\":1036:1040   */\n      0x00\n        /* \"#utility.yul\":1074:1076   */\n      0x20\n        /* \"#utility.yul\":1063:1072   */\n      dup3\n        /* \"#utility.yul\":1059:1077   */\n      add\n        /* \"#utility.yul\":1051:1077   */\n      swap1\n      pop\n        /* \"#utility.yul\":1123:1132   */\n      dup2\n        /* \"#utility.yul\":1117:1121   */\n      dup2\n        /* \"#utility.yul\":1113:1133   */\n      sub\n        /* \"#utility.yul\":1109:1110   */\n      0x00\n        /* \"#utility.yul\":1098:1107   */\n      dup4\n        /* \"#utility.yul\":1094:1111   */\n      add\n        /* \"#utility.yul\":1087:1134   */\n      mstore\n        /* \"#utility.yul\":1151:1229   */\n      tag_45\n        /* \"#utility.yul\":1224:1228   */\n      dup2\n        /* \"#utility.yul\":1215:1221   */\n      dup5\n        /* \"#utility.yul\":1151:1229   */\n      tag_27\n      jump\t// in\n    tag_45:\n        /* \"#utility.yul\":1143:1229   */\n      swap1\n      pop\n        /* \"#utility.yul\":923:1236   */\n      swap3\n      swap2\n      pop\n      pop\n      jump\t// out\n        /* \"#utility.yul\":1242:1390   */\n    tag_28:\n        /* \"#utility.yul\":1344:1355   */\n      0x00\n        /* \"#utility.yul\":1381:1384   */\n      dup2\n        /* \"#utility.yul\":1366:1384   */\n      swap1\n      pop\n        /* \"#utility.yul\":1242:1390   */\n      swap3\n      swap2\n      pop\n      pop\n      jump\t// out\n        /* \"#utility.yul\":1396:1786   */\n    tag_29:\n        /* \"#utility.yul\":1502:1505   */\n      0x00\n        /* \"#utility.yul\":1530:1569   */\n      tag_48\n        /* \"#utility.yul\":1563:1568   */\n      dup3\n        /* \"#utility.yul\":1530:1569   */\n      tag_23\n      jump\t// in\n    tag_48:\n        /* \"#utility.yul\":1585:1674   */\n      tag_49\n        /* \"#utility.yul\":1667:1673   */\n      dup2\n        /* \"#utility.yul\":1662:1665   */\n      dup6\n        /* \"#utility.yul\":1585:1674   */\n      tag_28\n      jump\t// in\n    tag_49:\n        /* \"#utility.yul\":1578:1674   */\n      swap4\n      pop\n        /* \"#utility.yul\":1683:1748   */\n      tag_50\n        /* \"#utility.yul\":1741:1747   */\n      dup2\n        /* \"#utility.yul\":1736:1739   */\n      dup6\n        /* \"#utility.yul\":1729:1733   */\n      0x20\n        /* \"#utility.yul\":1722:1727   */\n      dup7\n        /* \"#utility.yul\":1718:1734   */\n      add\n        /* \"#utility.yul\":1683:1748   */\n      tag_25\n      jump\t// in\n    tag_50:\n        /* \"#utility.yul\":1773:1779   */\n      dup1\n        /* \"#utility.yul\":1768:1771   */\n      dup5\n        /* \"#utility.yul\":1764:1780   */\n      add\n        /* \"#utility.yul\":1757:1780   */\n      swap2\n      pop\n        /* \"#utility.yul\":1506:1786   */\n      pop\n        /* \"#utility.yul\":1396:1786   */\n      swap3\n      swap2\n      pop\n      pop\n      jump\t// out\n        /* \"#utility.yul\":1792:1906   */\n    tag_30:\n      pop\n      jump\t// out\n        /* \"#utility.yul\":1912:2312   */\n    tag_31:\n        /* \"#utility.yul\":2072:2075   */\n      0x00\n        /* \"#utility.yul\":2093:2177   */\n      tag_53\n        /* \"#utility.yul\":2175:2176   */\n      0x00\n        /* \"#utility.yul\":2170:2173   */\n      dup4\n        /* \"#utility.yul\":2093:2177   */\n      tag_28\n      jump\t// in\n    tag_53:\n        /* \"#utility.yul\":2086:2177   */\n      swap2\n      pop\n        /* \"#utility.yul\":2186:2279   */\n      tag_54\n        /* \"#utility.yul\":2275:2278   */\n      dup3\n        /* \"#utility.yul\":2186:2279   */\n      tag_30\n      jump\t// in\n    tag_54:\n        /* \"#utility.yul\":2304:2305   */\n      0x00\n        /* \"#utility.yul\":2299:2302   */\n      dup3\n        /* \"#utility.yul\":2295:2306   */\n      add\n        /* \"#utility.yul\":2288:2306   */\n      swap1\n      pop\n        /* \"#utility.yul\":1912:2312   */\n      swap2\n      swap1\n      pop\n      jump\t// out\n        /* \"#utility.yul\":2318:2482   */\n    tag_32:\n        /* \"#utility.yul\":2458:2474   */\n      0x4920616d20436f6e747261637433000000000000000000000000000000000000\n        /* \"#utility.yul\":2454:2455   */\n      0x00\n        /* \"#utility.yul\":2446:2452   */\n      dup3\n        /* \"#utility.yul\":2442:2456   */\n      add\n        /* \"#utility.yul\":2435:2475   */\n      mstore\n        /* \"#utility.yul\":2318:2482   */\n      pop\n      jump\t// out\n        /* \"#utility.yul\":2488:2890   */\n    tag_33:\n        /* \"#utility.yul\":2648:2651   */\n      0x00\n        /* \"#utility.yul\":2669:2754   */\n      tag_57\n        /* \"#utility.yul\":2751:2753   */\n      0x0e\n        /* \"#utility.yul\":2746:2749   */\n      dup4\n        /* \"#utility.yul\":2669:2754   */\n      tag_28\n      jump\t// in\n    tag_57:\n        /* \"#utility.yul\":2662:2754   */\n      swap2\n      pop\n        /* \"#utility.yul\":2763:2856   */\n      tag_58\n        /* \"#utility.yul\":2852:2855   */\n      dup3\n        /* \"#utility.yul\":2763:2856   */\n      tag_32\n      jump\t// in\n    tag_58:\n        /* \"#utility.yul\":2881:2883   */\n      0x0e\n        /* \"#utility.yul\":2876:2879   */\n      dup3\n        /* \"#utility.yul\":2872:2884   */\n      add\n        /* \"#utility.yul\":2865:2884   */\n      swap1\n      pop\n        /* \"#utility.yul\":2488:2890   */\n      swap2\n      swap1\n      pop\n      jump\t// out\n        /* \"#utility.yul\":2896:3863   */\n    tag_20:\n        /* \"#utility.yul\":3278:3281   */\n      0x00\n        /* \"#utility.yul\":3300:3395   */\n      tag_60\n        /* \"#utility.yul\":3391:3394   */\n      dup3\n        /* \"#utility.yul\":3382:3388   */\n      dup6\n        /* \"#utility.yul\":3300:3395   */\n      tag_29\n      jump\t// in\n    tag_60:\n        /* \"#utility.yul\":3293:3395   */\n      swap2\n      pop\n        /* \"#utility.yul\":3412:3560   */\n      tag_61\n        /* \"#utility.yul\":3556:3559   */\n      dup3\n        /* \"#utility.yul\":3412:3560   */\n      tag_31\n      jump\t// in\n    tag_61:\n        /* \"#utility.yul\":3405:3560   */\n      swap2\n      pop\n        /* \"#utility.yul\":3577:3672   */\n      tag_62\n        /* \"#utility.yul\":3668:3671   */\n      dup3\n        /* \"#utility.yul\":3659:3665   */\n      dup5\n        /* \"#utility.yul\":3577:3672   */\n      tag_29\n      jump\t// in\n    tag_62:\n        /* \"#utility.yul\":3570:3672   */\n      swap2\n      pop\n        /* \"#utility.yul\":3689:3837   */\n      tag_63\n        /* \"#utility.yul\":3833:3836   */\n      dup3\n        /* \"#utility.yul\":3689:3837   */\n      tag_33\n      jump\t// in\n    tag_63:\n        /* \"#utility.yul\":3682:3837   */\n      swap2\n      pop\n        /* \"#utility.yul\":3854:3857   */\n      dup2\n        /* \"#utility.yul\":3847:3857   */\n      swap1\n      pop\n        /* \"#utility.yul\":2896:3863   */\n      swap4\n      swap3\n      pop\n      pop\n      pop\n      jump\t// out\n\n    auxdata: 0xa26469706673582212207cffb30ec93fc318cdf1416b54d7529ee89c6fc7174e523653089e28674a870b64736f6c63430008190033\n}\n",
				"bytecode": {
					"linkReferences": {},
					"object": "6080604052348015600e575f80fd5b506103088061001c5f395ff3fe608060405234801561000f575f80fd5b506004361061003f575f3560e01c806364dc88741461004357806366ae5282146100615780639e7a2a9c1461007f575b5f80fd5b61004b61009d565b60405161005891906101d2565b60405180910390f35b6100696100de565b60405161007691906101d2565b60405180910390f35b610087610120565b60405161009491906101d2565b60405180910390f35b60605f6100a86100de565b90505f6100b3610120565b905081816040516020016100c8929190610299565b6040516020818303038152906040529250505090565b60605f6040518060400160405280600e81526020017f49616d20436f6e7472616374203100000000000000000000000000000000000081525090508091505090565b60605f6040518060400160405280600f81526020017f4920616d20436f6e74726163742032000000000000000000000000000000000081525090508091505090565b5f81519050919050565b5f82825260208201905092915050565b8281835e5f83830152505050565b5f601f19601f8301169050919050565b5f6101a482610162565b6101ae818561016c565b93506101be81856020860161017c565b6101c78161018a565b840191505092915050565b5f6020820190508181035f8301526101ea818461019a565b905092915050565b5f81905092915050565b5f61020682610162565b61021081856101f2565b935061022081856020860161017c565b80840191505092915050565b50565b5f61023a5f836101f2565b91506102458261022c565b5f82019050919050565b7f4920616d20436f6e7472616374330000000000000000000000000000000000005f82015250565b5f610283600e836101f2565b915061028e8261024f565b600e82019050919050565b5f6102a482856101fc565b91506102af8261022f565b91506102bb82846101fc565b91506102c682610277565b9150819050939250505056fea26469706673582212207cffb30ec93fc318cdf1416b54d7529ee89c6fc7174e523653089e28674a870b64736f6c63430008190033",
					"opcodes": "PUSH1 0x80 PUSH1 0x40 MSTORE CALLVALUE DUP1 ISZERO PUSH1 0xE JUMPI PUSH0 DUP1 REVERT JUMPDEST POP PUSH2 0x308 DUP1 PUSH2 0x1C PUSH0 CODECOPY PUSH0 RETURN INVALID PUSH1 0x80 PUSH1 0x40 MSTORE CALLVALUE DUP1 ISZERO PUSH2 0xF JUMPI PUSH0 DUP1 REVERT JUMPDEST POP PUSH1 0x4 CALLDATASIZE LT PUSH2 0x3F JUMPI PUSH0 CALLDATALOAD PUSH1 0xE0 SHR DUP1 PUSH4 0x64DC8874 EQ PUSH2 0x43 JUMPI DUP1 PUSH4 0x66AE5282 EQ PUSH2 0x61 JUMPI DUP1 PUSH4 0x9E7A2A9C EQ PUSH2 0x7F JUMPI JUMPDEST PUSH0 DUP1 REVERT JUMPDEST PUSH2 0x4B PUSH2 0x9D JUMP JUMPDEST PUSH1 0x40 MLOAD PUSH2 0x58 SWAP2 SWAP1 PUSH2 0x1D2 JUMP JUMPDEST PUSH1 0x40 MLOAD DUP1 SWAP2 SUB SWAP1 RETURN JUMPDEST PUSH2 0x69 PUSH2 0xDE JUMP JUMPDEST PUSH1 0x40 MLOAD PUSH2 0x76 SWAP2 SWAP1 PUSH2 0x1D2 JUMP JUMPDEST PUSH1 0x40 MLOAD DUP1 SWAP2 SUB SWAP1 RETURN JUMPDEST PUSH2 0x87 PUSH2 0x120 JUMP JUMPDEST PUSH1 0x40 MLOAD PUSH2 0x94 SWAP2 SWAP1 PUSH2 0x1D2 JUMP JUMPDEST PUSH1 0x40 MLOAD DUP1 SWAP2 SUB SWAP1 RETURN JUMPDEST PUSH1 0x60 PUSH0 PUSH2 0xA8 PUSH2 0xDE JUMP JUMPDEST SWAP1 POP PUSH0 PUSH2 0xB3 PUSH2 0x120 JUMP JUMPDEST SWAP1 POP DUP2 DUP2 PUSH1 0x40 MLOAD PUSH1 0x20 ADD PUSH2 0xC8 SWAP3 SWAP2 SWAP1 PUSH2 0x299 JUMP JUMPDEST PUSH1 0x40 MLOAD PUSH1 0x20 DUP2 DUP4 SUB SUB DUP2 MSTORE SWAP1 PUSH1 0x40 MSTORE SWAP3 POP POP POP SWAP1 JUMP JUMPDEST PUSH1 0x60 PUSH0 PUSH1 0x40 MLOAD DUP1 PUSH1 0x40 ADD PUSH1 0x40 MSTORE DUP1 PUSH1 0xE DUP2 MSTORE PUSH1 0x20 ADD PUSH32 0x49616D20436F6E74726163742031000000000000000000000000000000000000 DUP2 MSTORE POP SWAP1 POP DUP1 SWAP2 POP POP SWAP1 JUMP JUMPDEST PUSH1 0x60 PUSH0 PUSH1 0x40 MLOAD DUP1 PUSH1 0x40 ADD PUSH1 0x40 MSTORE DUP1 PUSH1 0xF DUP2 MSTORE PUSH1 0x20 ADD PUSH32 0x4920616D20436F6E747261637420320000000000000000000000000000000000 DUP2 MSTORE POP SWAP1 POP DUP1 SWAP2 POP POP SWAP1 JUMP JUMPDEST PUSH0 DUP2 MLOAD SWAP1 POP SWAP2 SWAP1 POP JUMP JUMPDEST PUSH0 DUP3 DUP3 MSTORE PUSH1 0x20 DUP3 ADD SWAP1 POP SWAP3 SWAP2 POP POP JUMP JUMPDEST DUP3 DUP2 DUP4 MCOPY PUSH0 DUP4 DUP4 ADD MSTORE POP POP POP JUMP JUMPDEST PUSH0 PUSH1 0x1F NOT PUSH1 0x1F DUP4 ADD AND SWAP1 POP SWAP2 SWAP1 POP JUMP JUMPDEST PUSH0 PUSH2 0x1A4 DUP3 PUSH2 0x162 JUMP JUMPDEST PUSH2 0x1AE DUP2 DUP6 PUSH2 0x16C JUMP JUMPDEST SWAP4 POP PUSH2 0x1BE DUP2 DUP6 PUSH1 0x20 DUP7 ADD PUSH2 0x17C JUMP JUMPDEST PUSH2 0x1C7 DUP2 PUSH2 0x18A JUMP JUMPDEST DUP5 ADD SWAP2 POP POP SWAP3 SWAP2 POP POP JUMP JUMPDEST PUSH0 PUSH1 0x20 DUP3 ADD SWAP1 POP DUP2 DUP2 SUB PUSH0 DUP4 ADD MSTORE PUSH2 0x1EA DUP2 DUP5 PUSH2 0x19A JUMP JUMPDEST SWAP1 POP SWAP3 SWAP2 POP POP JUMP JUMPDEST PUSH0 DUP2 SWAP1 POP SWAP3 SWAP2 POP POP JUMP JUMPDEST PUSH0 PUSH2 0x206 DUP3 PUSH2 0x162 JUMP JUMPDEST PUSH2 0x210 DUP2 DUP6 PUSH2 0x1F2 JUMP JUMPDEST SWAP4 POP PUSH2 0x220 DUP2 DUP6 PUSH1 0x20 DUP7 ADD PUSH2 0x17C JUMP JUMPDEST DUP1 DUP5 ADD SWAP2 POP POP SWAP3 SWAP2 POP POP JUMP JUMPDEST POP JUMP JUMPDEST PUSH0 PUSH2 0x23A PUSH0 DUP4 PUSH2 0x1F2 JUMP JUMPDEST SWAP2 POP PUSH2 0x245 DUP3 PUSH2 0x22C JUMP JUMPDEST PUSH0 DUP3 ADD SWAP1 POP SWAP2 SWAP1 POP JUMP JUMPDEST PUSH32 0x4920616D20436F6E747261637433000000000000000000000000000000000000 PUSH0 DUP3 ADD MSTORE POP JUMP JUMPDEST PUSH0 PUSH2 0x283 PUSH1 0xE DUP4 PUSH2 0x1F2 JUMP JUMPDEST SWAP2 POP PUSH2 0x28E DUP3 PUSH2 0x24F JUMP JUMPDEST PUSH1 0xE DUP3 ADD SWAP1 POP SWAP2 SWAP1 POP JUMP JUMPDEST PUSH0 PUSH2 0x2A4 DUP3 DUP6 PUSH2 0x1FC JUMP JUMPDEST SWAP2 POP PUSH2 0x2AF DUP3 PUSH2 0x22F JUMP JUMPDEST SWAP2 POP PUSH2 0x2BB DUP3 DUP5 PUSH2 0x1FC JUMP JUMPDEST SWAP2 POP PUSH2 0x2C6 DUP3 PUSH2 0x277 JUMP JUMPDEST SWAP2 POP DUP2 SWAP1 POP SWAP4 SWAP3 POP POP POP JUMP INVALID LOG2 PUSH5 0x6970667358 0x22 SLT KECCAK256 PUSH29 0xFFB30EC93FC318CDF1416B54D7529EE89C6FC7174E523653089E28674A DUP8 SIGNEXTEND PUSH5 0x736F6C6343 STOP ADDMOD NOT STOP CALLER "
				},
				"gasEstimates": {
					"creation": {
						"codeDepositCost": "155200",
						"executionCost": "200",
						"totalCost": "155400"
					},
					"external": {
						"c1function()": "infinite",
						"c2function()": "infinite",
						"c3function()": "infinite"
					}
				},
				"methodIdentifiers": {
					"c1function()": "66ae5282",
					"c2function()": "9e7a2a9c",
					"c3function()": "64dc8874"
				}
			},
			"storageLayout": {
				"storage": [],
				"types": null
			},
			"userdoc": {
				"kind": "user",
				"methods": {},
				"version": 1
			}
		}
	}
}