{
	"Contracts/operators/relational.sol": {
		"funda": {
			"abi": [
				{
					"inputs": [
						{
							"internalType": "uint256",
							"name": "a",
							"type": "uint256"
						},
						{
							"internalType": "uint256",
							"name": "b",
							"type": "uint256"
						}
					],
					"name": "Notequalto",
					"outputs": [
						{
							"internalType": "bool",
							"name": "",
							"type": "bool"
						}
					],
					"stateMutability": "pure",
					"type": "function"
				},
				{
					"inputs": [
						{
							"internalType": "uint256",
							"name": "a",
							"type": "uint256"
						},
						{
							"internalType": "uint256",
							"name": "b",
							"type": "uint256"
						}
					],
					"name": "equalto",
					"outputs": [
						{
							"internalType": "bool",
							"name": "",
							"type": "bool"
						}
					],
					"stateMutability": "pure",
					"type": "function"
				},
				{
					"inputs": [
						{
							"internalType": "uint256",
							"name": "a",
							"type": "uint256"
						},
						{
							"internalType": "uint256",
							"name": "b",
							"type": "uint256"
						}
					],
					"name": "greaterthan",
					"outputs": [
						{
							"internalType": "bool",
							"name": "",
							"type": "bool"
						}
					],
					"stateMutability": "pure",
					"type": "function"
				},
				{
					"inputs": [
						{
							"internalType": "uint256",
							"name": "a",
							"type": "uint256"
						},
						{
							"internalType": "uint256",
							"name": "b",
							"type": "uint256"
						}
					],
					"name": "greaterthanorequal",
					"outputs": [
						{
							"internalType": "bool",
							"name": "",
							"type": "bool"
						}
					],
					"stateMutability": "pure",
					"type": "function"
				},
				{
					"inputs": [
						{
							"internalType": "uint256",
							"name": "a",
							"type": "uint256"
						},
						{
							"internalType": "uint256",
							"name": "b",
							"type": "uint256"
						}
					],
					"name": "lesserthan",
					"outputs": [
						{
							"internalType": "bool",
							"name": "",
							"type": "bool"
						}
					],
					"stateMutability": "pure",
					"type": "function"
				},
				{
					"inputs": [
						{
							"internalType": "uint256",
							"name": "a",
							"type": "uint256"
						},
						{
							"internalType": "uint256",
							"name": "b",
							"type": "uint256"
						}
					],
					"name": "lesserthanorequal",
					"outputs": [
						{
							"internalType": "bool",
							"name": "",
							"type": "bool"
						}
					],
					"stateMutability": "pure",
					"type": "function"
				}
			],
			"devdoc": {
				"kind": "dev",
				"methods": {},
				"version": 1
			},
			"evm": {
				"assembly": "    /* \"Contracts/operators/relational.sol\":177:782  contract funda{... */\n  mstore(0x40, 0x80)\n  callvalue\n  dup1\n  iszero\n  tag_1\n  jumpi\n  0x00\n  dup1\n  revert\ntag_1:\n  pop\n  dataSize(sub_0)\n  dup1\n  dataOffset(sub_0)\n  0x00\n  codecopy\n  0x00\n  return\nstop\n\nsub_0: assembly {\n        /* \"Contracts/operators/relational.sol\":177:782  contract funda{... */\n      mstore(0x40, 0x80)\n      callvalue\n      dup1\n      iszero\n      tag_1\n      jumpi\n      0x00\n      dup1\n      revert\n    tag_1:\n      pop\n      jumpi(tag_2, lt(calldatasize, 0x04))\n      shr(0xe0, calldataload(0x00))\n      dup1\n      0x21eec3fb\n      eq\n      tag_3\n      jumpi\n      dup1\n      0x6c185829\n      eq\n      tag_4\n      jumpi\n      dup1\n      0xc6230240\n      eq\n      tag_5\n      jumpi\n      dup1\n      0xd52e0f1a\n      eq\n      tag_6\n      jumpi\n      dup1\n      0xe9b18436\n      eq\n      tag_7\n      jumpi\n      dup1\n      0xf415bab2\n      eq\n      tag_8\n      jumpi\n    tag_2:\n      0x00\n      dup1\n      revert\n        /* \"Contracts/operators/relational.sol\":198:285  function equalto(uint a , uint b) public pure returns(bool){... */\n    tag_3:\n      tag_9\n      0x04\n      dup1\n      calldatasize\n      sub\n      dup2\n      add\n      swap1\n      tag_10\n      swap2\n      swap1\n      tag_11\n      jump\t// in\n    tag_10:\n      tag_12\n      jump\t// in\n    tag_9:\n      mload(0x40)\n      tag_13\n      swap2\n      swap1\n      tag_14\n      jump\t// in\n    tag_13:\n      mload(0x40)\n      dup1\n      swap2\n      sub\n      swap1\n      return\n        /* \"Contracts/operators/relational.sol\":290:379  function Notequalto(uint a , uint b)public pure returns(bool){... */\n    tag_4:\n      tag_15\n      0x04\n      dup1\n      calldatasize\n      sub\n      dup2\n      add\n      swap1\n      tag_16\n      swap2\n      swap1\n      tag_11\n      jump\t// in\n    tag_16:\n      tag_17\n      jump\t// in\n    tag_15:\n      mload(0x40)\n      tag_18\n      swap2\n      swap1\n      tag_14\n      jump\t// in\n    tag_18:\n      mload(0x40)\n      dup1\n      swap2\n      sub\n      swap1\n      return\n        /* \"Contracts/operators/relational.sol\":576:676  function greaterthanorequal(uint a , uint b) public pure returns(bool){... */\n    tag_5:\n      tag_19\n      0x04\n      dup1\n      calldatasize\n      sub\n      dup2\n      add\n      swap1\n      tag_20\n      swap2\n      swap1\n      tag_11\n      jump\t// in\n    tag_20:\n      tag_21\n      jump\t// in\n    tag_19:\n      mload(0x40)\n      tag_22\n      swap2\n      swap1\n      tag_14\n      jump\t// in\n    tag_22:\n      mload(0x40)\n      dup1\n      swap2\n      sub\n      swap1\n      return\n        /* \"Contracts/operators/relational.sol\":682:780  function lesserthanorequal(uint a , uint b) public pure returns(bool){... */\n    tag_6:\n      tag_23\n      0x04\n      dup1\n      calldatasize\n      sub\n      dup2\n      add\n      swap1\n      tag_24\n      swap2\n      swap1\n      tag_11\n      jump\t// in\n    tag_24:\n      tag_25\n      jump\t// in\n    tag_23:\n      mload(0x40)\n      tag_26\n      swap2\n      swap1\n      tag_14\n      jump\t// in\n    tag_26:\n      mload(0x40)\n      dup1\n      swap2\n      sub\n      swap1\n      return\n        /* \"Contracts/operators/relational.sol\":480:571  function lesserthan(uint a , uint b) public pure returns(bool){... */\n    tag_7:\n      tag_27\n      0x04\n      dup1\n      calldatasize\n      sub\n      dup2\n      add\n      swap1\n      tag_28\n      swap2\n      swap1\n      tag_11\n      jump\t// in\n    tag_28:\n      tag_29\n      jump\t// in\n    tag_27:\n      mload(0x40)\n      tag_30\n      swap2\n      swap1\n      tag_14\n      jump\t// in\n    tag_30:\n      mload(0x40)\n      dup1\n      swap2\n      sub\n      swap1\n      return\n        /* \"Contracts/operators/relational.sol\":384:475  function greaterthan(uint a , uint b)public pure returns(bool){... */\n    tag_8:\n      tag_31\n      0x04\n      dup1\n      calldatasize\n      sub\n      dup2\n      add\n      swap1\n      tag_32\n      swap2\n      swap1\n      tag_11\n      jump\t// in\n    tag_32:\n      tag_33\n      jump\t// in\n    tag_31:\n      mload(0x40)\n      tag_34\n      swap2\n      swap1\n      tag_14\n      jump\t// in\n    tag_34:\n      mload(0x40)\n      dup1\n      swap2\n      sub\n      swap1\n      return\n        /* \"Contracts/operators/relational.sol\":198:285  function equalto(uint a , uint b) public pure returns(bool){... */\n    tag_12:\n        /* \"Contracts/operators/relational.sol\":252:256  bool */\n      0x00\n        /* \"Contracts/operators/relational.sol\":277:278  b */\n      dup2\n        /* \"Contracts/operators/relational.sol\":274:275  a */\n      dup4\n        /* \"Contracts/operators/relational.sol\":274:278  a==b */\n      eq\n        /* \"Contracts/operators/relational.sol\":267:278  return a==b */\n      swap1\n      pop\n        /* \"Contracts/operators/relational.sol\":198:285  function equalto(uint a , uint b) public pure returns(bool){... */\n      swap3\n      swap2\n      pop\n      pop\n      jump\t// out\n        /* \"Contracts/operators/relational.sol\":290:379  function Notequalto(uint a , uint b)public pure returns(bool){... */\n    tag_17:\n        /* \"Contracts/operators/relational.sol\":346:350  bool */\n      0x00\n        /* \"Contracts/operators/relational.sol\":371:372  b */\n      dup2\n        /* \"Contracts/operators/relational.sol\":368:369  a */\n      dup4\n        /* \"Contracts/operators/relational.sol\":368:372  a!=b */\n      eq\n      iszero\n        /* \"Contracts/operators/relational.sol\":361:372  return a!=b */\n      swap1\n      pop\n        /* \"Contracts/operators/relational.sol\":290:379  function Notequalto(uint a , uint b)public pure returns(bool){... */\n      swap3\n      swap2\n      pop\n      pop\n      jump\t// out\n        /* \"Contracts/operators/relational.sol\":576:676  function greaterthanorequal(uint a , uint b) public pure returns(bool){... */\n    tag_21:\n        /* \"Contracts/operators/relational.sol\":641:645  bool */\n      0x00\n        /* \"Contracts/operators/relational.sol\":668:669  b */\n      dup2\n        /* \"Contracts/operators/relational.sol\":663:664  a */\n      dup4\n        /* \"Contracts/operators/relational.sol\":663:669  a >= b */\n      lt\n      iszero\n        /* \"Contracts/operators/relational.sol\":656:669  return a >= b */\n      swap1\n      pop\n        /* \"Contracts/operators/relational.sol\":576:676  function greaterthanorequal(uint a , uint b) public pure returns(bool){... */\n      swap3\n      swap2\n      pop\n      pop\n      jump\t// out\n        /* \"Contracts/operators/relational.sol\":682:780  function lesserthanorequal(uint a , uint b) public pure returns(bool){... */\n    tag_25:\n        /* \"Contracts/operators/relational.sol\":746:750  bool */\n      0x00\n        /* \"Contracts/operators/relational.sol\":772:773  b */\n      dup2\n        /* \"Contracts/operators/relational.sol\":768:769  a */\n      dup4\n        /* \"Contracts/operators/relational.sol\":768:773  a <=b */\n      gt\n      iszero\n        /* \"Contracts/operators/relational.sol\":761:773  return a <=b */\n      swap1\n      pop\n        /* \"Contracts/operators/relational.sol\":682:780  function lesserthanorequal(uint a , uint b) public pure returns(bool){... */\n      swap3\n      swap2\n      pop\n      pop\n      jump\t// out\n        /* \"Contracts/operators/relational.sol\":480:571  function lesserthan(uint a , uint b) public pure returns(bool){... */\n    tag_29:\n        /* \"Contracts/operators/relational.sol\":537:541  bool */\n      0x00\n        /* \"Contracts/operators/relational.sol\":563:564  b */\n      dup2\n        /* \"Contracts/operators/relational.sol\":559:560  a */\n      dup4\n        /* \"Contracts/operators/relational.sol\":559:564  a < b */\n      lt\n        /* \"Contracts/operators/relational.sol\":552:564  return a < b */\n      swap1\n      pop\n        /* \"Contracts/operators/relational.sol\":480:571  function lesserthan(uint a , uint b) public pure returns(bool){... */\n      swap3\n      swap2\n      pop\n      pop\n      jump\t// out\n        /* \"Contracts/operators/relational.sol\":384:475  function greaterthan(uint a , uint b)public pure returns(bool){... */\n    tag_33:\n        /* \"Contracts/operators/relational.sol\":441:445  bool */\n      0x00\n        /* \"Contracts/operators/relational.sol\":467:468  b */\n      dup2\n        /* \"Contracts/operators/relational.sol\":463:464  a */\n      dup4\n        /* \"Contracts/operators/relational.sol\":463:468  a > b */\n      gt\n        /* \"Contracts/operators/relational.sol\":456:468  return a > b */\n      swap1\n      pop\n        /* \"Contracts/operators/relational.sol\":384:475  function greaterthan(uint a , uint b)public pure returns(bool){... */\n      swap3\n      swap2\n      pop\n      pop\n      jump\t// out\n        /* \"#utility.yul\":88:205   */\n    tag_42:\n        /* \"#utility.yul\":197:198   */\n      0x00\n        /* \"#utility.yul\":194:195   */\n      dup1\n        /* \"#utility.yul\":187:199   */\n      revert\n        /* \"#utility.yul\":334:411   */\n    tag_44:\n        /* \"#utility.yul\":371:378   */\n      0x00\n        /* \"#utility.yul\":400:405   */\n      dup2\n        /* \"#utility.yul\":389:405   */\n      swap1\n      pop\n        /* \"#utility.yul\":334:411   */\n      swap2\n      swap1\n      pop\n      jump\t// out\n        /* \"#utility.yul\":417:539   */\n    tag_45:\n        /* \"#utility.yul\":490:514   */\n      tag_55\n        /* \"#utility.yul\":508:513   */\n      dup2\n        /* \"#utility.yul\":490:514   */\n      tag_44\n      jump\t// in\n    tag_55:\n        /* \"#utility.yul\":483:488   */\n      dup2\n        /* \"#utility.yul\":480:515   */\n      eq\n        /* \"#utility.yul\":470:533   */\n      tag_56\n      jumpi\n        /* \"#utility.yul\":529:530   */\n      0x00\n        /* \"#utility.yul\":526:527   */\n      dup1\n        /* \"#utility.yul\":519:531   */\n      revert\n        /* \"#utility.yul\":470:533   */\n    tag_56:\n        /* \"#utility.yul\":417:539   */\n      pop\n      jump\t// out\n        /* \"#utility.yul\":545:684   */\n    tag_46:\n        /* \"#utility.yul\":591:596   */\n      0x00\n        /* \"#utility.yul\":629:635   */\n      dup2\n        /* \"#utility.yul\":616:636   */\n      calldataload\n        /* \"#utility.yul\":607:636   */\n      swap1\n      pop\n        /* \"#utility.yul\":645:678   */\n      tag_58\n        /* \"#utility.yul\":672:677   */\n      dup2\n        /* \"#utility.yul\":645:678   */\n      tag_45\n      jump\t// in\n    tag_58:\n        /* \"#utility.yul\":545:684   */\n      swap3\n      swap2\n      pop\n      pop\n      jump\t// out\n        /* \"#utility.yul\":690:1164   */\n    tag_11:\n        /* \"#utility.yul\":758:764   */\n      0x00\n        /* \"#utility.yul\":766:772   */\n      dup1\n        /* \"#utility.yul\":815:817   */\n      0x40\n        /* \"#utility.yul\":803:812   */\n      dup4\n        /* \"#utility.yul\":794:801   */\n      dup6\n        /* \"#utility.yul\":790:813   */\n      sub\n        /* \"#utility.yul\":786:818   */\n      slt\n        /* \"#utility.yul\":783:902   */\n      iszero\n      tag_60\n      jumpi\n        /* \"#utility.yul\":821:900   */\n      tag_61\n      tag_42\n      jump\t// in\n    tag_61:\n        /* \"#utility.yul\":783:902   */\n    tag_60:\n        /* \"#utility.yul\":941:942   */\n      0x00\n        /* \"#utility.yul\":966:1019   */\n      tag_62\n        /* \"#utility.yul\":1011:1018   */\n      dup6\n        /* \"#utility.yul\":1002:1008   */\n      dup3\n        /* \"#utility.yul\":991:1000   */\n      dup7\n        /* \"#utility.yul\":987:1009   */\n      add\n        /* \"#utility.yul\":966:1019   */\n      tag_46\n      jump\t// in\n    tag_62:\n        /* \"#utility.yul\":956:1019   */\n      swap3\n      pop\n        /* \"#utility.yul\":912:1029   */\n      pop\n        /* \"#utility.yul\":1068:1070   */\n      0x20\n        /* \"#utility.yul\":1094:1147   */\n      tag_63\n        /* \"#utility.yul\":1139:1146   */\n      dup6\n        /* \"#utility.yul\":1130:1136   */\n      dup3\n        /* \"#utility.yul\":1119:1128   */\n      dup7\n        /* \"#utility.yul\":1115:1137   */\n      add\n        /* \"#utility.yul\":1094:1147   */\n      tag_46\n      jump\t// in\n    tag_63:\n        /* \"#utility.yul\":1084:1147   */\n      swap2\n      pop\n        /* \"#utility.yul\":1039:1157   */\n      pop\n        /* \"#utility.yul\":690:1164   */\n      swap3\n      pop\n      swap3\n      swap1\n      pop\n      jump\t// out\n        /* \"#utility.yul\":1170:1260   */\n    tag_47:\n        /* \"#utility.yul\":1204:1211   */\n      0x00\n        /* \"#utility.yul\":1247:1252   */\n      dup2\n        /* \"#utility.yul\":1240:1253   */\n      iszero\n        /* \"#utility.yul\":1233:1254   */\n      iszero\n        /* \"#utility.yul\":1222:1254   */\n      swap1\n      pop\n        /* \"#utility.yul\":1170:1260   */\n      swap2\n      swap1\n      pop\n      jump\t// out\n        /* \"#utility.yul\":1266:1375   */\n    tag_48:\n        /* \"#utility.yul\":1347:1368   */\n      tag_66\n        /* \"#utility.yul\":1362:1367   */\n      dup2\n        /* \"#utility.yul\":1347:1368   */\n      tag_47\n      jump\t// in\n    tag_66:\n        /* \"#utility.yul\":1342:1345   */\n      dup3\n        /* \"#utility.yul\":1335:1369   */\n      mstore\n        /* \"#utility.yul\":1266:1375   */\n      pop\n      pop\n      jump\t// out\n        /* \"#utility.yul\":1381:1591   */\n    tag_14:\n        /* \"#utility.yul\":1468:1472   */\n      0x00\n        /* \"#utility.yul\":1506:1508   */\n      0x20\n        /* \"#utility.yul\":1495:1504   */\n      dup3\n        /* \"#utility.yul\":1491:1509   */\n      add\n        /* \"#utility.yul\":1483:1509   */\n      swap1\n      pop\n        /* \"#utility.yul\":1519:1584   */\n      tag_68\n        /* \"#utility.yul\":1581:1582   */\n      0x00\n        /* \"#utility.yul\":1570:1579   */\n      dup4\n        /* \"#utility.yul\":1566:1583   */\n      add\n        /* \"#utility.yul\":1557:1563   */\n      dup5\n        /* \"#utility.yul\":1519:1584   */\n      tag_48\n      jump\t// in\n    tag_68:\n        /* \"#utility.yul\":1381:1591   */\n      swap3\n      swap2\n      pop\n      pop\n      jump\t// out\n\n    auxdata: 0xa2646970667358221220e242454c7bff45080fc99e57858b6f27b062d0d86cb89b3b9c0411b34656e3b564736f6c63430008140033\n}\n",
				"bytecode": {
					"linkReferences": {},
					"object": "608060405234801561000f575f80fd5b506102ad8061001d5f395ff3fe608060405234801561000f575f80fd5b5060043610610060575f3560e01c806321eec3fb146100645780636c18582914610094578063c6230240146100c4578063d52e0f1a146100f4578063e9b1843614610124578063f415bab214610154575b5f80fd5b61007e60048036038101906100799190610206565b610184565b60405161008b919061025e565b60405180910390f35b6100ae60048036038101906100a99190610206565b610190565b6040516100bb919061025e565b60405180910390f35b6100de60048036038101906100d99190610206565b61019d565b6040516100eb919061025e565b60405180910390f35b61010e60048036038101906101099190610206565b6101aa565b60405161011b919061025e565b60405180910390f35b61013e60048036038101906101399190610206565b6101b7565b60405161014b919061025e565b60405180910390f35b61016e60048036038101906101699190610206565b6101c3565b60405161017b919061025e565b60405180910390f35b5f818314905092915050565b5f81831415905092915050565b5f81831015905092915050565b5f81831115905092915050565b5f818310905092915050565b5f818311905092915050565b5f80fd5b5f819050919050565b6101e5816101d3565b81146101ef575f80fd5b50565b5f81359050610200816101dc565b92915050565b5f806040838503121561021c5761021b6101cf565b5b5f610229858286016101f2565b925050602061023a858286016101f2565b9150509250929050565b5f8115159050919050565b61025881610244565b82525050565b5f6020820190506102715f83018461024f565b9291505056fea2646970667358221220e242454c7bff45080fc99e57858b6f27b062d0d86cb89b3b9c0411b34656e3b564736f6c63430008140033",
					"opcodes": "PUSH1 0x80 PUSH1 0x40 MSTORE CALLVALUE DUP1 ISZERO PUSH2 0xF JUMPI PUSH0 DUP1 REVERT JUMPDEST POP PUSH2 0x2AD DUP1 PUSH2 0x1D PUSH0 CODECOPY PUSH0 RETURN INVALID PUSH1 0x80 PUSH1 0x40 MSTORE CALLVALUE DUP1 ISZERO PUSH2 0xF JUMPI PUSH0 DUP1 REVERT JUMPDEST POP PUSH1 0x4 CALLDATASIZE LT PUSH2 0x60 JUMPI PUSH0 CALLDATALOAD PUSH1 0xE0 SHR DUP1 PUSH4 0x21EEC3FB EQ PUSH2 0x64 JUMPI DUP1 PUSH4 0x6C185829 EQ PUSH2 0x94 JUMPI DUP1 PUSH4 0xC6230240 EQ PUSH2 0xC4 JUMPI DUP1 PUSH4 0xD52E0F1A EQ PUSH2 0xF4 JUMPI DUP1 PUSH4 0xE9B18436 EQ PUSH2 0x124 JUMPI DUP1 PUSH4 0xF415BAB2 EQ PUSH2 0x154 JUMPI JUMPDEST PUSH0 DUP1 REVERT JUMPDEST PUSH2 0x7E PUSH1 0x4 DUP1 CALLDATASIZE SUB DUP2 ADD SWAP1 PUSH2 0x79 SWAP2 SWAP1 PUSH2 0x206 JUMP JUMPDEST PUSH2 0x184 JUMP JUMPDEST PUSH1 0x40 MLOAD PUSH2 0x8B SWAP2 SWAP1 PUSH2 0x25E JUMP JUMPDEST PUSH1 0x40 MLOAD DUP1 SWAP2 SUB SWAP1 RETURN JUMPDEST PUSH2 0xAE PUSH1 0x4 DUP1 CALLDATASIZE SUB DUP2 ADD SWAP1 PUSH2 0xA9 SWAP2 SWAP1 PUSH2 0x206 JUMP JUMPDEST PUSH2 0x190 JUMP JUMPDEST PUSH1 0x40 MLOAD PUSH2 0xBB SWAP2 SWAP1 PUSH2 0x25E JUMP JUMPDEST PUSH1 0x40 MLOAD DUP1 SWAP2 SUB SWAP1 RETURN JUMPDEST PUSH2 0xDE PUSH1 0x4 DUP1 CALLDATASIZE SUB DUP2 ADD SWAP1 PUSH2 0xD9 SWAP2 SWAP1 PUSH2 0x206 JUMP JUMPDEST PUSH2 0x19D JUMP JUMPDEST PUSH1 0x40 MLOAD PUSH2 0xEB SWAP2 SWAP1 PUSH2 0x25E JUMP JUMPDEST PUSH1 0x40 MLOAD DUP1 SWAP2 SUB SWAP1 RETURN JUMPDEST PUSH2 0x10E PUSH1 0x4 DUP1 CALLDATASIZE SUB DUP2 ADD SWAP1 PUSH2 0x109 SWAP2 SWAP1 PUSH2 0x206 JUMP JUMPDEST PUSH2 0x1AA JUMP JUMPDEST PUSH1 0x40 MLOAD PUSH2 0x11B SWAP2 SWAP1 PUSH2 0x25E JUMP JUMPDEST PUSH1 0x40 MLOAD DUP1 SWAP2 SUB SWAP1 RETURN JUMPDEST PUSH2 0x13E PUSH1 0x4 DUP1 CALLDATASIZE SUB DUP2 ADD SWAP1 PUSH2 0x139 SWAP2 SWAP1 PUSH2 0x206 JUMP JUMPDEST PUSH2 0x1B7 JUMP JUMPDEST PUSH1 0x40 MLOAD PUSH2 0x14B SWAP2 SWAP1 PUSH2 0x25E JUMP JUMPDEST PUSH1 0x40 MLOAD DUP1 SWAP2 SUB SWAP1 RETURN JUMPDEST PUSH2 0x16E PUSH1 0x4 DUP1 CALLDATASIZE SUB DUP2 ADD SWAP1 PUSH2 0x169 SWAP2 SWAP1 PUSH2 0x206 JUMP JUMPDEST PUSH2 0x1C3 JUMP JUMPDEST PUSH1 0x40 MLOAD PUSH2 0x17B SWAP2 SWAP1 PUSH2 0x25E JUMP JUMPDEST PUSH1 0x40 MLOAD DUP1 SWAP2 SUB SWAP1 RETURN JUMPDEST PUSH0 DUP2 DUP4 EQ SWAP1 POP SWAP3 SWAP2 POP POP JUMP JUMPDEST PUSH0 DUP2 DUP4 EQ ISZERO SWAP1 POP SWAP3 SWAP2 POP POP JUMP JUMPDEST PUSH0 DUP2 DUP4 LT ISZERO SWAP1 POP SWAP3 SWAP2 POP POP JUMP JUMPDEST PUSH0 DUP2 DUP4 GT ISZERO SWAP1 POP SWAP3 SWAP2 POP POP JUMP JUMPDEST PUSH0 DUP2 DUP4 LT SWAP1 POP SWAP3 SWAP2 POP POP JUMP JUMPDEST PUSH0 DUP2 DUP4 GT SWAP1 POP SWAP3 SWAP2 POP POP JUMP JUMPDEST PUSH0 DUP1 REVERT JUMPDEST PUSH0 DUP2 SWAP1 POP SWAP2 SWAP1 POP JUMP JUMPDEST PUSH2 0x1E5 DUP2 PUSH2 0x1D3 JUMP JUMPDEST DUP2 EQ PUSH2 0x1EF JUMPI PUSH0 DUP1 REVERT JUMPDEST POP JUMP JUMPDEST PUSH0 DUP2 CALLDATALOAD SWAP1 POP PUSH2 0x200 DUP2 PUSH2 0x1DC JUMP JUMPDEST SWAP3 SWAP2 POP POP JUMP JUMPDEST PUSH0 DUP1 PUSH1 0x40 DUP4 DUP6 SUB SLT ISZERO PUSH2 0x21C JUMPI PUSH2 0x21B PUSH2 0x1CF JUMP JUMPDEST JUMPDEST PUSH0 PUSH2 0x229 DUP6 DUP3 DUP7 ADD PUSH2 0x1F2 JUMP JUMPDEST SWAP3 POP POP PUSH1 0x20 PUSH2 0x23A DUP6 DUP3 DUP7 ADD PUSH2 0x1F2 JUMP JUMPDEST SWAP2 POP POP SWAP3 POP SWAP3 SWAP1 POP JUMP JUMPDEST PUSH0 DUP2 ISZERO ISZERO SWAP1 POP SWAP2 SWAP1 POP JUMP JUMPDEST PUSH2 0x258 DUP2 PUSH2 0x244 JUMP JUMPDEST DUP3 MSTORE POP POP JUMP JUMPDEST PUSH0 PUSH1 0x20 DUP3 ADD SWAP1 POP PUSH2 0x271 PUSH0 DUP4 ADD DUP5 PUSH2 0x24F JUMP JUMPDEST SWAP3 SWAP2 POP POP JUMP INVALID LOG2 PUSH5 0x6970667358 0x22 SLT KECCAK256 0xE2 TIMESTAMP GASLIMIT 0x4C PUSH28 0xFF45080FC99E57858B6F27B062D0D86CB89B3B9C0411B34656E3B564 PUSH20 0x6F6C634300081400330000000000000000000000 "
				},
				"gasEstimates": {
					"creation": {
						"codeDepositCost": "137000",
						"executionCost": "181",
						"totalCost": "137181"
					},
					"external": {
						"Notequalto(uint256,uint256)": "infinite",
						"equalto(uint256,uint256)": "infinite",
						"greaterthan(uint256,uint256)": "infinite",
						"greaterthanorequal(uint256,uint256)": "infinite",
						"lesserthan(uint256,uint256)": "infinite",
						"lesserthanorequal(uint256,uint256)": "infinite"
					}
				},
				"methodIdentifiers": {
					"Notequalto(uint256,uint256)": "6c185829",
					"equalto(uint256,uint256)": "21eec3fb",
					"greaterthan(uint256,uint256)": "f415bab2",
					"greaterthanorequal(uint256,uint256)": "c6230240",
					"lesserthan(uint256,uint256)": "e9b18436",
					"lesserthanorequal(uint256,uint256)": "d52e0f1a"
				}
			},
			"storageLayout": {
				"storage": [],
				"types": null
			},
			"userdoc": {
				"kind": "user",
				"methods": {},
				"version": 1
			}
		}
	}
}