{
	"Contracts/operators/assignment.sol": {
		"practise": {
			"abi": [
				{
					"inputs": [
						{
							"internalType": "uint256",
							"name": "a",
							"type": "uint256"
						}
					],
					"name": "addassignment",
					"outputs": [],
					"stateMutability": "nonpayable",
					"type": "function"
				},
				{
					"inputs": [
						{
							"internalType": "uint256",
							"name": "a",
							"type": "uint256"
						}
					],
					"name": "divassignment",
					"outputs": [],
					"stateMutability": "nonpayable",
					"type": "function"
				},
				{
					"inputs": [
						{
							"internalType": "uint256",
							"name": "a",
							"type": "uint256"
						}
					],
					"name": "modassignment",
					"outputs": [],
					"stateMutability": "nonpayable",
					"type": "function"
				},
				{
					"inputs": [
						{
							"internalType": "uint256",
							"name": "a",
							"type": "uint256"
						}
					],
					"name": "mulassignment",
					"outputs": [],
					"stateMutability": "nonpayable",
					"type": "function"
				},
				{
					"inputs": [],
					"name": "number",
					"outputs": [
						{
							"internalType": "uint256",
							"name": "",
							"type": "uint256"
						}
					],
					"stateMutability": "view",
					"type": "function"
				},
				{
					"inputs": [
						{
							"internalType": "uint256",
							"name": "a",
							"type": "uint256"
						}
					],
					"name": "simpleassignment",
					"outputs": [],
					"stateMutability": "nonpayable",
					"type": "function"
				},
				{
					"inputs": [
						{
							"internalType": "uint256",
							"name": "a",
							"type": "uint256"
						}
					],
					"name": "subassignment",
					"outputs": [],
					"stateMutability": "nonpayable",
					"type": "function"
				}
			],
			"devdoc": {
				"kind": "dev",
				"methods": {},
				"version": 1
			},
			"evm": {
				"assembly": "    /* \"Contracts/operators/assignment.sol\":57:813  contract practise{... */\n  mstore(0x40, 0x80)\n  callvalue\n  dup1\n  iszero\n  tag_1\n  jumpi\n  0x00\n  dup1\n  revert\ntag_1:\n  pop\n  dataSize(sub_0)\n  dup1\n  dataOffset(sub_0)\n  0x00\n  codecopy\n  0x00\n  return\nstop\n\nsub_0: assembly {\n        /* \"Contracts/operators/assignment.sol\":57:813  contract practise{... */\n      mstore(0x40, 0x80)\n      callvalue\n      dup1\n      iszero\n      tag_1\n      jumpi\n      0x00\n      dup1\n      revert\n    tag_1:\n      pop\n      jumpi(tag_2, lt(calldatasize, 0x04))\n      shr(0xe0, calldataload(0x00))\n      dup1\n      0x73023176\n      gt\n      tag_10\n      jumpi\n      dup1\n      0x73023176\n      eq\n      tag_6\n      jumpi\n      dup1\n      0x8381f58a\n      eq\n      tag_7\n      jumpi\n      dup1\n      0x886c6951\n      eq\n      tag_8\n      jumpi\n      dup1\n      0xb8d42692\n      eq\n      tag_9\n      jumpi\n      jump(tag_2)\n    tag_10:\n      dup1\n      0x05467b62\n      eq\n      tag_3\n      jumpi\n      dup1\n      0x2b1deb17\n      eq\n      tag_4\n      jumpi\n      dup1\n      0x6a89f3dd\n      eq\n      tag_5\n      jumpi\n    tag_2:\n      0x00\n      dup1\n      revert\n        /* \"Contracts/operators/assignment.sol\":431:522  function subassignment(uint a) public {... */\n    tag_3:\n      tag_11\n      0x04\n      dup1\n      calldatasize\n      sub\n      dup2\n      add\n      swap1\n      tag_12\n      swap2\n      swap1\n      tag_13\n      jump\t// in\n    tag_12:\n      tag_14\n      jump\t// in\n    tag_11:\n      stop\n        /* \"Contracts/operators/assignment.sol\":726:811  function modassignment(uint a) public {... */\n    tag_4:\n      tag_15\n      0x04\n      dup1\n      calldatasize\n      sub\n      dup2\n      add\n      swap1\n      tag_16\n      swap2\n      swap1\n      tag_13\n      jump\t// in\n    tag_16:\n      tag_17\n      jump\t// in\n    tag_15:\n      stop\n        /* \"Contracts/operators/assignment.sol\":629:721  function divassignment(uint a) public {... */\n    tag_5:\n      tag_18\n      0x04\n      dup1\n      calldatasize\n      sub\n      dup2\n      add\n      swap1\n      tag_19\n      swap2\n      swap1\n      tag_13\n      jump\t// in\n    tag_19:\n      tag_20\n      jump\t// in\n    tag_18:\n      stop\n        /* \"Contracts/operators/assignment.sol\":532:624  function mulassignment(uint a) public {... */\n    tag_6:\n      tag_21\n      0x04\n      dup1\n      calldatasize\n      sub\n      dup2\n      add\n      swap1\n      tag_22\n      swap2\n      swap1\n      tag_13\n      jump\t// in\n    tag_22:\n      tag_23\n      jump\t// in\n    tag_21:\n      stop\n        /* \"Contracts/operators/assignment.sol\":241:259  uint public number */\n    tag_7:\n      tag_24\n      tag_25\n      jump\t// in\n    tag_24:\n      mload(0x40)\n      tag_26\n      swap2\n      swap1\n      tag_27\n      jump\t// in\n    tag_26:\n      mload(0x40)\n      dup1\n      swap2\n      sub\n      swap1\n      return\n        /* \"Contracts/operators/assignment.sol\":337:426  function addassignment(uint a)public{... */\n    tag_8:\n      tag_28\n      0x04\n      dup1\n      calldatasize\n      sub\n      dup2\n      add\n      swap1\n      tag_29\n      swap2\n      swap1\n      tag_13\n      jump\t// in\n    tag_29:\n      tag_30\n      jump\t// in\n    tag_28:\n      stop\n        /* \"Contracts/operators/assignment.sol\":265:332  function simpleassignment(uint a) public{... */\n    tag_9:\n      tag_31\n      0x04\n      dup1\n      calldatasize\n      sub\n      dup2\n      add\n      swap1\n      tag_32\n      swap2\n      swap1\n      tag_13\n      jump\t// in\n    tag_32:\n      tag_33\n      jump\t// in\n    tag_31:\n      stop\n        /* \"Contracts/operators/assignment.sol\":431:522  function subassignment(uint a) public {... */\n    tag_14:\n        /* \"Contracts/operators/assignment.sol\":489:490  a */\n      dup1\n        /* \"Contracts/operators/assignment.sol\":479:485  number */\n      0x00\n      dup1\n        /* \"Contracts/operators/assignment.sol\":479:490  number -= a */\n      dup3\n      dup3\n      sload\n      tag_35\n      swap2\n      swap1\n      tag_36\n      jump\t// in\n    tag_35:\n      swap3\n      pop\n      pop\n      dup2\n      swap1\n      sstore\n      pop\n        /* \"Contracts/operators/assignment.sol\":431:522  function subassignment(uint a) public {... */\n      pop\n      jump\t// out\n        /* \"Contracts/operators/assignment.sol\":726:811  function modassignment(uint a) public {... */\n    tag_17:\n        /* \"Contracts/operators/assignment.sol\":784:785  a */\n      dup1\n        /* \"Contracts/operators/assignment.sol\":774:780  number */\n      0x00\n      dup1\n        /* \"Contracts/operators/assignment.sol\":774:785  number %= a */\n      dup3\n      dup3\n      sload\n      tag_38\n      swap2\n      swap1\n      tag_39\n      jump\t// in\n    tag_38:\n      swap3\n      pop\n      pop\n      dup2\n      swap1\n      sstore\n      pop\n        /* \"Contracts/operators/assignment.sol\":726:811  function modassignment(uint a) public {... */\n      pop\n      jump\t// out\n        /* \"Contracts/operators/assignment.sol\":629:721  function divassignment(uint a) public {... */\n    tag_20:\n        /* \"Contracts/operators/assignment.sol\":687:688  a */\n      dup1\n        /* \"Contracts/operators/assignment.sol\":677:683  number */\n      0x00\n      dup1\n        /* \"Contracts/operators/assignment.sol\":677:688  number /= a */\n      dup3\n      dup3\n      sload\n      tag_41\n      swap2\n      swap1\n      tag_42\n      jump\t// in\n    tag_41:\n      swap3\n      pop\n      pop\n      dup2\n      swap1\n      sstore\n      pop\n        /* \"Contracts/operators/assignment.sol\":629:721  function divassignment(uint a) public {... */\n      pop\n      jump\t// out\n        /* \"Contracts/operators/assignment.sol\":532:624  function mulassignment(uint a) public {... */\n    tag_23:\n        /* \"Contracts/operators/assignment.sol\":590:591  a */\n      dup1\n        /* \"Contracts/operators/assignment.sol\":580:586  number */\n      0x00\n      dup1\n        /* \"Contracts/operators/assignment.sol\":580:591  number *= a */\n      dup3\n      dup3\n      sload\n      tag_44\n      swap2\n      swap1\n      tag_45\n      jump\t// in\n    tag_44:\n      swap3\n      pop\n      pop\n      dup2\n      swap1\n      sstore\n      pop\n        /* \"Contracts/operators/assignment.sol\":532:624  function mulassignment(uint a) public {... */\n      pop\n      jump\t// out\n        /* \"Contracts/operators/assignment.sol\":241:259  uint public number */\n    tag_25:\n      sload(0x00)\n      dup2\n      jump\t// out\n        /* \"Contracts/operators/assignment.sol\":337:426  function addassignment(uint a)public{... */\n    tag_30:\n        /* \"Contracts/operators/assignment.sol\":393:394  a */\n      dup1\n        /* \"Contracts/operators/assignment.sol\":383:389  number */\n      0x00\n      dup1\n        /* \"Contracts/operators/assignment.sol\":383:394  number += a */\n      dup3\n      dup3\n      sload\n      tag_47\n      swap2\n      swap1\n      tag_48\n      jump\t// in\n    tag_47:\n      swap3\n      pop\n      pop\n      dup2\n      swap1\n      sstore\n      pop\n        /* \"Contracts/operators/assignment.sol\":337:426  function addassignment(uint a)public{... */\n      pop\n      jump\t// out\n        /* \"Contracts/operators/assignment.sol\":265:332  function simpleassignment(uint a) public{... */\n    tag_33:\n        /* \"Contracts/operators/assignment.sol\":324:325  a */\n      dup1\n        /* \"Contracts/operators/assignment.sol\":315:321  number */\n      0x00\n        /* \"Contracts/operators/assignment.sol\":315:325  number = a */\n      dup2\n      swap1\n      sstore\n      pop\n        /* \"Contracts/operators/assignment.sol\":265:332  function simpleassignment(uint a) public{... */\n      pop\n      jump\t// out\n        /* \"#utility.yul\":88:205   */\n    tag_51:\n        /* \"#utility.yul\":197:198   */\n      0x00\n        /* \"#utility.yul\":194:195   */\n      dup1\n        /* \"#utility.yul\":187:199   */\n      revert\n        /* \"#utility.yul\":334:411   */\n    tag_53:\n        /* \"#utility.yul\":371:378   */\n      0x00\n        /* \"#utility.yul\":400:405   */\n      dup2\n        /* \"#utility.yul\":389:405   */\n      swap1\n      pop\n        /* \"#utility.yul\":334:411   */\n      swap2\n      swap1\n      pop\n      jump\t// out\n        /* \"#utility.yul\":417:539   */\n    tag_54:\n        /* \"#utility.yul\":490:514   */\n      tag_65\n        /* \"#utility.yul\":508:513   */\n      dup2\n        /* \"#utility.yul\":490:514   */\n      tag_53\n      jump\t// in\n    tag_65:\n        /* \"#utility.yul\":483:488   */\n      dup2\n        /* \"#utility.yul\":480:515   */\n      eq\n        /* \"#utility.yul\":470:533   */\n      tag_66\n      jumpi\n        /* \"#utility.yul\":529:530   */\n      0x00\n        /* \"#utility.yul\":526:527   */\n      dup1\n        /* \"#utility.yul\":519:531   */\n      revert\n        /* \"#utility.yul\":470:533   */\n    tag_66:\n        /* \"#utility.yul\":417:539   */\n      pop\n      jump\t// out\n        /* \"#utility.yul\":545:684   */\n    tag_55:\n        /* \"#utility.yul\":591:596   */\n      0x00\n        /* \"#utility.yul\":629:635   */\n      dup2\n        /* \"#utility.yul\":616:636   */\n      calldataload\n        /* \"#utility.yul\":607:636   */\n      swap1\n      pop\n        /* \"#utility.yul\":645:678   */\n      tag_68\n        /* \"#utility.yul\":672:677   */\n      dup2\n        /* \"#utility.yul\":645:678   */\n      tag_54\n      jump\t// in\n    tag_68:\n        /* \"#utility.yul\":545:684   */\n      swap3\n      swap2\n      pop\n      pop\n      jump\t// out\n        /* \"#utility.yul\":690:1019   */\n    tag_13:\n        /* \"#utility.yul\":749:755   */\n      0x00\n        /* \"#utility.yul\":798:800   */\n      0x20\n        /* \"#utility.yul\":786:795   */\n      dup3\n        /* \"#utility.yul\":777:784   */\n      dup5\n        /* \"#utility.yul\":773:796   */\n      sub\n        /* \"#utility.yul\":769:801   */\n      slt\n        /* \"#utility.yul\":766:885   */\n      iszero\n      tag_70\n      jumpi\n        /* \"#utility.yul\":804:883   */\n      tag_71\n      tag_51\n      jump\t// in\n    tag_71:\n        /* \"#utility.yul\":766:885   */\n    tag_70:\n        /* \"#utility.yul\":924:925   */\n      0x00\n        /* \"#utility.yul\":949:1002   */\n      tag_72\n        /* \"#utility.yul\":994:1001   */\n      dup5\n        /* \"#utility.yul\":985:991   */\n      dup3\n        /* \"#utility.yul\":974:983   */\n      dup6\n        /* \"#utility.yul\":970:992   */\n      add\n        /* \"#utility.yul\":949:1002   */\n      tag_55\n      jump\t// in\n    tag_72:\n        /* \"#utility.yul\":939:1002   */\n      swap2\n      pop\n        /* \"#utility.yul\":895:1012   */\n      pop\n        /* \"#utility.yul\":690:1019   */\n      swap3\n      swap2\n      pop\n      pop\n      jump\t// out\n        /* \"#utility.yul\":1025:1143   */\n    tag_56:\n        /* \"#utility.yul\":1112:1136   */\n      tag_74\n        /* \"#utility.yul\":1130:1135   */\n      dup2\n        /* \"#utility.yul\":1112:1136   */\n      tag_53\n      jump\t// in\n    tag_74:\n        /* \"#utility.yul\":1107:1110   */\n      dup3\n        /* \"#utility.yul\":1100:1137   */\n      mstore\n        /* \"#utility.yul\":1025:1143   */\n      pop\n      pop\n      jump\t// out\n        /* \"#utility.yul\":1149:1371   */\n    tag_27:\n        /* \"#utility.yul\":1242:1246   */\n      0x00\n        /* \"#utility.yul\":1280:1282   */\n      0x20\n        /* \"#utility.yul\":1269:1278   */\n      dup3\n        /* \"#utility.yul\":1265:1283   */\n      add\n        /* \"#utility.yul\":1257:1283   */\n      swap1\n      pop\n        /* \"#utility.yul\":1293:1364   */\n      tag_76\n        /* \"#utility.yul\":1361:1362   */\n      0x00\n        /* \"#utility.yul\":1350:1359   */\n      dup4\n        /* \"#utility.yul\":1346:1363   */\n      add\n        /* \"#utility.yul\":1337:1343   */\n      dup5\n        /* \"#utility.yul\":1293:1364   */\n      tag_56\n      jump\t// in\n    tag_76:\n        /* \"#utility.yul\":1149:1371   */\n      swap3\n      swap2\n      pop\n      pop\n      jump\t// out\n        /* \"#utility.yul\":1377:1557   */\n    tag_57:\n        /* \"#utility.yul\":1425:1502   */\n      0x4e487b7100000000000000000000000000000000000000000000000000000000\n        /* \"#utility.yul\":1422:1423   */\n      0x00\n        /* \"#utility.yul\":1415:1503   */\n      mstore\n        /* \"#utility.yul\":1522:1526   */\n      0x11\n        /* \"#utility.yul\":1519:1520   */\n      0x04\n        /* \"#utility.yul\":1512:1527   */\n      mstore\n        /* \"#utility.yul\":1546:1550   */\n      0x24\n        /* \"#utility.yul\":1543:1544   */\n      0x00\n        /* \"#utility.yul\":1536:1551   */\n      revert\n        /* \"#utility.yul\":1563:1757   */\n    tag_36:\n        /* \"#utility.yul\":1603:1607   */\n      0x00\n        /* \"#utility.yul\":1623:1643   */\n      tag_79\n        /* \"#utility.yul\":1641:1642   */\n      dup3\n        /* \"#utility.yul\":1623:1643   */\n      tag_53\n      jump\t// in\n    tag_79:\n        /* \"#utility.yul\":1618:1643   */\n      swap2\n      pop\n        /* \"#utility.yul\":1657:1677   */\n      tag_80\n        /* \"#utility.yul\":1675:1676   */\n      dup4\n        /* \"#utility.yul\":1657:1677   */\n      tag_53\n      jump\t// in\n    tag_80:\n        /* \"#utility.yul\":1652:1677   */\n      swap3\n      pop\n        /* \"#utility.yul\":1701:1702   */\n      dup3\n        /* \"#utility.yul\":1698:1699   */\n      dup3\n        /* \"#utility.yul\":1694:1703   */\n      sub\n        /* \"#utility.yul\":1686:1703   */\n      swap1\n      pop\n        /* \"#utility.yul\":1725:1726   */\n      dup2\n        /* \"#utility.yul\":1719:1723   */\n      dup2\n        /* \"#utility.yul\":1716:1727   */\n      gt\n        /* \"#utility.yul\":1713:1750   */\n      iszero\n      tag_81\n      jumpi\n        /* \"#utility.yul\":1730:1748   */\n      tag_82\n      tag_57\n      jump\t// in\n    tag_82:\n        /* \"#utility.yul\":1713:1750   */\n    tag_81:\n        /* \"#utility.yul\":1563:1757   */\n      swap3\n      swap2\n      pop\n      pop\n      jump\t// out\n        /* \"#utility.yul\":1763:1943   */\n    tag_58:\n        /* \"#utility.yul\":1811:1888   */\n      0x4e487b7100000000000000000000000000000000000000000000000000000000\n        /* \"#utility.yul\":1808:1809   */\n      0x00\n        /* \"#utility.yul\":1801:1889   */\n      mstore\n        /* \"#utility.yul\":1908:1912   */\n      0x12\n        /* \"#utility.yul\":1905:1906   */\n      0x04\n        /* \"#utility.yul\":1898:1913   */\n      mstore\n        /* \"#utility.yul\":1932:1936   */\n      0x24\n        /* \"#utility.yul\":1929:1930   */\n      0x00\n        /* \"#utility.yul\":1922:1937   */\n      revert\n        /* \"#utility.yul\":1949:2125   */\n    tag_39:\n        /* \"#utility.yul\":1981:1982   */\n      0x00\n        /* \"#utility.yul\":1998:2018   */\n      tag_85\n        /* \"#utility.yul\":2016:2017   */\n      dup3\n        /* \"#utility.yul\":1998:2018   */\n      tag_53\n      jump\t// in\n    tag_85:\n        /* \"#utility.yul\":1993:2018   */\n      swap2\n      pop\n        /* \"#utility.yul\":2032:2052   */\n      tag_86\n        /* \"#utility.yul\":2050:2051   */\n      dup4\n        /* \"#utility.yul\":2032:2052   */\n      tag_53\n      jump\t// in\n    tag_86:\n        /* \"#utility.yul\":2027:2052   */\n      swap3\n      pop\n        /* \"#utility.yul\":2071:2072   */\n      dup3\n        /* \"#utility.yul\":2061:2096   */\n      tag_87\n      jumpi\n        /* \"#utility.yul\":2076:2094   */\n      tag_88\n      tag_58\n      jump\t// in\n    tag_88:\n        /* \"#utility.yul\":2061:2096   */\n    tag_87:\n        /* \"#utility.yul\":2117:2118   */\n      dup3\n        /* \"#utility.yul\":2114:2115   */\n      dup3\n        /* \"#utility.yul\":2110:2119   */\n      mod\n        /* \"#utility.yul\":2105:2119   */\n      swap1\n      pop\n        /* \"#utility.yul\":1949:2125   */\n      swap3\n      swap2\n      pop\n      pop\n      jump\t// out\n        /* \"#utility.yul\":2131:2316   */\n    tag_42:\n        /* \"#utility.yul\":2171:2172   */\n      0x00\n        /* \"#utility.yul\":2188:2208   */\n      tag_90\n        /* \"#utility.yul\":2206:2207   */\n      dup3\n        /* \"#utility.yul\":2188:2208   */\n      tag_53\n      jump\t// in\n    tag_90:\n        /* \"#utility.yul\":2183:2208   */\n      swap2\n      pop\n        /* \"#utility.yul\":2222:2242   */\n      tag_91\n        /* \"#utility.yul\":2240:2241   */\n      dup4\n        /* \"#utility.yul\":2222:2242   */\n      tag_53\n      jump\t// in\n    tag_91:\n        /* \"#utility.yul\":2217:2242   */\n      swap3\n      pop\n        /* \"#utility.yul\":2261:2262   */\n      dup3\n        /* \"#utility.yul\":2251:2286   */\n      tag_92\n      jumpi\n        /* \"#utility.yul\":2266:2284   */\n      tag_93\n      tag_58\n      jump\t// in\n    tag_93:\n        /* \"#utility.yul\":2251:2286   */\n    tag_92:\n        /* \"#utility.yul\":2308:2309   */\n      dup3\n        /* \"#utility.yul\":2305:2306   */\n      dup3\n        /* \"#utility.yul\":2301:2310   */\n      div\n        /* \"#utility.yul\":2296:2310   */\n      swap1\n      pop\n        /* \"#utility.yul\":2131:2316   */\n      swap3\n      swap2\n      pop\n      pop\n      jump\t// out\n        /* \"#utility.yul\":2322:2732   */\n    tag_45:\n        /* \"#utility.yul\":2362:2369   */\n      0x00\n        /* \"#utility.yul\":2385:2405   */\n      tag_95\n        /* \"#utility.yul\":2403:2404   */\n      dup3\n        /* \"#utility.yul\":2385:2405   */\n      tag_53\n      jump\t// in\n    tag_95:\n        /* \"#utility.yul\":2380:2405   */\n      swap2\n      pop\n        /* \"#utility.yul\":2419:2439   */\n      tag_96\n        /* \"#utility.yul\":2437:2438   */\n      dup4\n        /* \"#utility.yul\":2419:2439   */\n      tag_53\n      jump\t// in\n    tag_96:\n        /* \"#utility.yul\":2414:2439   */\n      swap3\n      pop\n        /* \"#utility.yul\":2474:2475   */\n      dup3\n        /* \"#utility.yul\":2471:2472   */\n      dup3\n        /* \"#utility.yul\":2467:2476   */\n      mul\n        /* \"#utility.yul\":2496:2526   */\n      tag_97\n        /* \"#utility.yul\":2514:2525   */\n      dup2\n        /* \"#utility.yul\":2496:2526   */\n      tag_53\n      jump\t// in\n    tag_97:\n        /* \"#utility.yul\":2485:2526   */\n      swap2\n      pop\n        /* \"#utility.yul\":2675:2676   */\n      dup3\n        /* \"#utility.yul\":2666:2673   */\n      dup3\n        /* \"#utility.yul\":2662:2677   */\n      div\n        /* \"#utility.yul\":2659:2660   */\n      dup5\n        /* \"#utility.yul\":2656:2678   */\n      eq\n        /* \"#utility.yul\":2636:2637   */\n      dup4\n        /* \"#utility.yul\":2629:2638   */\n      iszero\n        /* \"#utility.yul\":2609:2692   */\n      or\n        /* \"#utility.yul\":2586:2725   */\n      tag_98\n      jumpi\n        /* \"#utility.yul\":2705:2723   */\n      tag_99\n      tag_57\n      jump\t// in\n    tag_99:\n        /* \"#utility.yul\":2586:2725   */\n    tag_98:\n        /* \"#utility.yul\":2370:2732   */\n      pop\n        /* \"#utility.yul\":2322:2732   */\n      swap3\n      swap2\n      pop\n      pop\n      jump\t// out\n        /* \"#utility.yul\":2738:2929   */\n    tag_48:\n        /* \"#utility.yul\":2778:2781   */\n      0x00\n        /* \"#utility.yul\":2797:2817   */\n      tag_101\n        /* \"#utility.yul\":2815:2816   */\n      dup3\n        /* \"#utility.yul\":2797:2817   */\n      tag_53\n      jump\t// in\n    tag_101:\n        /* \"#utility.yul\":2792:2817   */\n      swap2\n      pop\n        /* \"#utility.yul\":2831:2851   */\n      tag_102\n        /* \"#utility.yul\":2849:2850   */\n      dup4\n        /* \"#utility.yul\":2831:2851   */\n      tag_53\n      jump\t// in\n    tag_102:\n        /* \"#utility.yul\":2826:2851   */\n      swap3\n      pop\n        /* \"#utility.yul\":2874:2875   */\n      dup3\n        /* \"#utility.yul\":2871:2872   */\n      dup3\n        /* \"#utility.yul\":2867:2876   */\n      add\n        /* \"#utility.yul\":2860:2876   */\n      swap1\n      pop\n        /* \"#utility.yul\":2895:2898   */\n      dup1\n        /* \"#utility.yul\":2892:2893   */\n      dup3\n        /* \"#utility.yul\":2889:2899   */\n      gt\n        /* \"#utility.yul\":2886:2922   */\n      iszero\n      tag_103\n      jumpi\n        /* \"#utility.yul\":2902:2920   */\n      tag_104\n      tag_57\n      jump\t// in\n    tag_104:\n        /* \"#utility.yul\":2886:2922   */\n    tag_103:\n        /* \"#utility.yul\":2738:2929   */\n      swap3\n      swap2\n      pop\n      pop\n      jump\t// out\n\n    auxdata: 0xa26469706673582212204758268b46ad19ca819938b1af538c38e85711c7429655727046718500c05dad64736f6c63430008190033\n}\n",
				"bytecode": {
					"linkReferences": {},
					"object": "6080604052348015600e575f80fd5b506103f68061001c5f395ff3fe608060405234801561000f575f80fd5b506004361061007b575f3560e01c8063730231761161005957806373023176146100d35780638381f58a146100ef578063886c69511461010d578063b8d42692146101295761007b565b806305467b621461007f5780632b1deb171461009b5780636a89f3dd146100b7575b5f80fd5b6100996004803603810190610094919061020c565b610145565b005b6100b560048036038101906100b0919061020c565b61015f565b005b6100d160048036038101906100cc919061020c565b610179565b005b6100ed60048036038101906100e8919061020c565b610193565b005b6100f76101ad565b6040516101049190610246565b60405180910390f35b6101276004803603810190610122919061020c565b6101b2565b005b610143600480360381019061013e919061020c565b6101cc565b005b805f80828254610155919061028c565b9250508190555050565b805f8082825461016f91906102ec565b9250508190555050565b805f80828254610189919061031c565b9250508190555050565b805f808282546101a3919061034c565b9250508190555050565b5f5481565b805f808282546101c2919061038d565b9250508190555050565b805f8190555050565b5f80fd5b5f819050919050565b6101eb816101d9565b81146101f5575f80fd5b50565b5f81359050610206816101e2565b92915050565b5f60208284031215610221576102206101d5565b5b5f61022e848285016101f8565b91505092915050565b610240816101d9565b82525050565b5f6020820190506102595f830184610237565b92915050565b7f4e487b71000000000000000000000000000000000000000000000000000000005f52601160045260245ffd5b5f610296826101d9565b91506102a1836101d9565b92508282039050818111156102b9576102b861025f565b5b92915050565b7f4e487b71000000000000000000000000000000000000000000000000000000005f52601260045260245ffd5b5f6102f6826101d9565b9150610301836101d9565b925082610311576103106102bf565b5b828206905092915050565b5f610326826101d9565b9150610331836101d9565b925082610341576103406102bf565b5b828204905092915050565b5f610356826101d9565b9150610361836101d9565b925082820261036f816101d9565b915082820484148315176103865761038561025f565b5b5092915050565b5f610397826101d9565b91506103a2836101d9565b92508282019050808211156103ba576103b961025f565b5b9291505056fea26469706673582212204758268b46ad19ca819938b1af538c38e85711c7429655727046718500c05dad64736f6c63430008190033",
					"opcodes": "PUSH1 0x80 PUSH1 0x40 MSTORE CALLVALUE DUP1 ISZERO PUSH1 0xE JUMPI PUSH0 DUP1 REVERT JUMPDEST POP PUSH2 0x3F6 DUP1 PUSH2 0x1C PUSH0 CODECOPY PUSH0 RETURN INVALID PUSH1 0x80 PUSH1 0x40 MSTORE CALLVALUE DUP1 ISZERO PUSH2 0xF JUMPI PUSH0 DUP1 REVERT JUMPDEST POP PUSH1 0x4 CALLDATASIZE LT PUSH2 0x7B JUMPI PUSH0 CALLDATALOAD PUSH1 0xE0 SHR DUP1 PUSH4 0x73023176 GT PUSH2 0x59 JUMPI DUP1 PUSH4 0x73023176 EQ PUSH2 0xD3 JUMPI DUP1 PUSH4 0x8381F58A EQ PUSH2 0xEF JUMPI DUP1 PUSH4 0x886C6951 EQ PUSH2 0x10D JUMPI DUP1 PUSH4 0xB8D42692 EQ PUSH2 0x129 JUMPI PUSH2 0x7B JUMP JUMPDEST DUP1 PUSH4 0x5467B62 EQ PUSH2 0x7F JUMPI DUP1 PUSH4 0x2B1DEB17 EQ PUSH2 0x9B JUMPI DUP1 PUSH4 0x6A89F3DD EQ PUSH2 0xB7 JUMPI JUMPDEST PUSH0 DUP1 REVERT JUMPDEST PUSH2 0x99 PUSH1 0x4 DUP1 CALLDATASIZE SUB DUP2 ADD SWAP1 PUSH2 0x94 SWAP2 SWAP1 PUSH2 0x20C JUMP JUMPDEST PUSH2 0x145 JUMP JUMPDEST STOP JUMPDEST PUSH2 0xB5 PUSH1 0x4 DUP1 CALLDATASIZE SUB DUP2 ADD SWAP1 PUSH2 0xB0 SWAP2 SWAP1 PUSH2 0x20C JUMP JUMPDEST PUSH2 0x15F JUMP JUMPDEST STOP JUMPDEST PUSH2 0xD1 PUSH1 0x4 DUP1 CALLDATASIZE SUB DUP2 ADD SWAP1 PUSH2 0xCC SWAP2 SWAP1 PUSH2 0x20C JUMP JUMPDEST PUSH2 0x179 JUMP JUMPDEST STOP JUMPDEST PUSH2 0xED PUSH1 0x4 DUP1 CALLDATASIZE SUB DUP2 ADD SWAP1 PUSH2 0xE8 SWAP2 SWAP1 PUSH2 0x20C JUMP JUMPDEST PUSH2 0x193 JUMP JUMPDEST STOP JUMPDEST PUSH2 0xF7 PUSH2 0x1AD JUMP JUMPDEST PUSH1 0x40 MLOAD PUSH2 0x104 SWAP2 SWAP1 PUSH2 0x246 JUMP JUMPDEST PUSH1 0x40 MLOAD DUP1 SWAP2 SUB SWAP1 RETURN JUMPDEST PUSH2 0x127 PUSH1 0x4 DUP1 CALLDATASIZE SUB DUP2 ADD SWAP1 PUSH2 0x122 SWAP2 SWAP1 PUSH2 0x20C JUMP JUMPDEST PUSH2 0x1B2 JUMP JUMPDEST STOP JUMPDEST PUSH2 0x143 PUSH1 0x4 DUP1 CALLDATASIZE SUB DUP2 ADD SWAP1 PUSH2 0x13E SWAP2 SWAP1 PUSH2 0x20C JUMP JUMPDEST PUSH2 0x1CC JUMP JUMPDEST STOP JUMPDEST DUP1 PUSH0 DUP1 DUP3 DUP3 SLOAD PUSH2 0x155 SWAP2 SWAP1 PUSH2 0x28C JUMP JUMPDEST SWAP3 POP POP DUP2 SWAP1 SSTORE POP POP JUMP JUMPDEST DUP1 PUSH0 DUP1 DUP3 DUP3 SLOAD PUSH2 0x16F SWAP2 SWAP1 PUSH2 0x2EC JUMP JUMPDEST SWAP3 POP POP DUP2 SWAP1 SSTORE POP POP JUMP JUMPDEST DUP1 PUSH0 DUP1 DUP3 DUP3 SLOAD PUSH2 0x189 SWAP2 SWAP1 PUSH2 0x31C JUMP JUMPDEST SWAP3 POP POP DUP2 SWAP1 SSTORE POP POP JUMP JUMPDEST DUP1 PUSH0 DUP1 DUP3 DUP3 SLOAD PUSH2 0x1A3 SWAP2 SWAP1 PUSH2 0x34C JUMP JUMPDEST SWAP3 POP POP DUP2 SWAP1 SSTORE POP POP JUMP JUMPDEST PUSH0 SLOAD DUP2 JUMP JUMPDEST DUP1 PUSH0 DUP1 DUP3 DUP3 SLOAD PUSH2 0x1C2 SWAP2 SWAP1 PUSH2 0x38D JUMP JUMPDEST SWAP3 POP POP DUP2 SWAP1 SSTORE POP POP JUMP JUMPDEST DUP1 PUSH0 DUP2 SWAP1 SSTORE POP POP JUMP JUMPDEST PUSH0 DUP1 REVERT JUMPDEST PUSH0 DUP2 SWAP1 POP SWAP2 SWAP1 POP JUMP JUMPDEST PUSH2 0x1EB DUP2 PUSH2 0x1D9 JUMP JUMPDEST DUP2 EQ PUSH2 0x1F5 JUMPI PUSH0 DUP1 REVERT JUMPDEST POP JUMP JUMPDEST PUSH0 DUP2 CALLDATALOAD SWAP1 POP PUSH2 0x206 DUP2 PUSH2 0x1E2 JUMP JUMPDEST SWAP3 SWAP2 POP POP JUMP JUMPDEST PUSH0 PUSH1 0x20 DUP3 DUP5 SUB SLT ISZERO PUSH2 0x221 JUMPI PUSH2 0x220 PUSH2 0x1D5 JUMP JUMPDEST JUMPDEST PUSH0 PUSH2 0x22E DUP5 DUP3 DUP6 ADD PUSH2 0x1F8 JUMP JUMPDEST SWAP2 POP POP SWAP3 SWAP2 POP POP JUMP JUMPDEST PUSH2 0x240 DUP2 PUSH2 0x1D9 JUMP JUMPDEST DUP3 MSTORE POP POP JUMP JUMPDEST PUSH0 PUSH1 0x20 DUP3 ADD SWAP1 POP PUSH2 0x259 PUSH0 DUP4 ADD DUP5 PUSH2 0x237 JUMP JUMPDEST SWAP3 SWAP2 POP POP JUMP JUMPDEST PUSH32 0x4E487B7100000000000000000000000000000000000000000000000000000000 PUSH0 MSTORE PUSH1 0x11 PUSH1 0x4 MSTORE PUSH1 0x24 PUSH0 REVERT JUMPDEST PUSH0 PUSH2 0x296 DUP3 PUSH2 0x1D9 JUMP JUMPDEST SWAP2 POP PUSH2 0x2A1 DUP4 PUSH2 0x1D9 JUMP JUMPDEST SWAP3 POP DUP3 DUP3 SUB SWAP1 POP DUP2 DUP2 GT ISZERO PUSH2 0x2B9 JUMPI PUSH2 0x2B8 PUSH2 0x25F JUMP JUMPDEST JUMPDEST SWAP3 SWAP2 POP POP JUMP JUMPDEST PUSH32 0x4E487B7100000000000000000000000000000000000000000000000000000000 PUSH0 MSTORE PUSH1 0x12 PUSH1 0x4 MSTORE PUSH1 0x24 PUSH0 REVERT JUMPDEST PUSH0 PUSH2 0x2F6 DUP3 PUSH2 0x1D9 JUMP JUMPDEST SWAP2 POP PUSH2 0x301 DUP4 PUSH2 0x1D9 JUMP JUMPDEST SWAP3 POP DUP3 PUSH2 0x311 JUMPI PUSH2 0x310 PUSH2 0x2BF JUMP JUMPDEST JUMPDEST DUP3 DUP3 MOD SWAP1 POP SWAP3 SWAP2 POP POP JUMP JUMPDEST PUSH0 PUSH2 0x326 DUP3 PUSH2 0x1D9 JUMP JUMPDEST SWAP2 POP PUSH2 0x331 DUP4 PUSH2 0x1D9 JUMP JUMPDEST SWAP3 POP DUP3 PUSH2 0x341 JUMPI PUSH2 0x340 PUSH2 0x2BF JUMP JUMPDEST JUMPDEST DUP3 DUP3 DIV SWAP1 POP SWAP3 SWAP2 POP POP JUMP JUMPDEST PUSH0 PUSH2 0x356 DUP3 PUSH2 0x1D9 JUMP JUMPDEST SWAP2 POP PUSH2 0x361 DUP4 PUSH2 0x1D9 JUMP JUMPDEST SWAP3 POP DUP3 DUP3 MUL PUSH2 0x36F DUP2 PUSH2 0x1D9 JUMP JUMPDEST SWAP2 POP DUP3 DUP3 DIV DUP5 EQ DUP4 ISZERO OR PUSH2 0x386 JUMPI PUSH2 0x385 PUSH2 0x25F JUMP JUMPDEST JUMPDEST POP SWAP3 SWAP2 POP POP JUMP JUMPDEST PUSH0 PUSH2 0x397 DUP3 PUSH2 0x1D9 JUMP JUMPDEST SWAP2 POP PUSH2 0x3A2 DUP4 PUSH2 0x1D9 JUMP JUMPDEST SWAP3 POP DUP3 DUP3 ADD SWAP1 POP DUP1 DUP3 GT ISZERO PUSH2 0x3BA JUMPI PUSH2 0x3B9 PUSH2 0x25F JUMP JUMPDEST JUMPDEST SWAP3 SWAP2 POP POP JUMP INVALID LOG2 PUSH5 0x6970667358 0x22 SLT KECCAK256 SELFBALANCE PC 0x26 DUP12 CHAINID 0xAD NOT 0xCA DUP2 SWAP10 CODESIZE 0xB1 0xAF MSTORE8 DUP13 CODESIZE 0xE8 JUMPI GT 0xC7 TIMESTAMP SWAP7 SSTORE PUSH19 0x7046718500C05DAD64736F6C63430008190033 "
				},
				"gasEstimates": {
					"creation": {
						"codeDepositCost": "202800",
						"executionCost": "243",
						"totalCost": "203043"
					},
					"external": {
						"addassignment(uint256)": "infinite",
						"divassignment(uint256)": "infinite",
						"modassignment(uint256)": "infinite",
						"mulassignment(uint256)": "infinite",
						"number()": "2446",
						"simpleassignment(uint256)": "22580",
						"subassignment(uint256)": "infinite"
					}
				},
				"methodIdentifiers": {
					"addassignment(uint256)": "886c6951",
					"divassignment(uint256)": "6a89f3dd",
					"modassignment(uint256)": "2b1deb17",
					"mulassignment(uint256)": "73023176",
					"number()": "8381f58a",
					"simpleassignment(uint256)": "b8d42692",
					"subassignment(uint256)": "05467b62"
				}
			},
			"storageLayout": {
				"storage": [
					{
						"astId": 3,
						"contract": "Contracts/operators/assignment.sol:practise",
						"label": "number",
						"offset": 0,
						"slot": "0",
						"type": "t_uint256"
					}
				],
				"types": {
					"t_uint256": {
						"encoding": "inplace",
						"label": "uint256",
						"numberOfBytes": "32"
					}
				}
			},
			"userdoc": {
				"kind": "user",
				"methods": {},
				"version": 1
			}
		}
	}
}